S01C000043686173736973436F6E74726F6C6C65725F56312E7372656330
S113000071C000001CC600000FC6000089C00000BB
S113001087C0000085C0000083C0000081C00000CC
S11300207FC0000017C6000020C6000079C0000091
S113003077C0000075C0000073C0000071C00000EC
S11300406FC0000071C600006BC0000069C00000F2
S113005067C0000065C0000063C0000061C000000C
S11300605FC000000C94CA080C94280959C0000011
S113007057C0000055C0000053C0000051C000002C
S11300804FC000004DC000004BC0000049C000003C
S11300900C94F9080C94560943C0000041C00000B8
S11300A03FC000003DC000003BC0000039C000005C
S11300B037C0000035C0000033C0000031C000006C
S11300C02FC000002DC000002BC0000029C000007C
S11300D027C0000025C0000023C0000021C000008C
S11300E01FC0000011241FBECFEFD1E2DEBFCDBF81
S11300F012E0A0E0B2E0E0E8F4E100E00BBF02C0EF
S113010007900D92A234B107D9F724E0A2E4B2E03B
S113011001C01D92AF3FB207E1F78FD30C943E0AA2
S11301206FCFEAE7F0E08081806880830895EAE792
S1130130F0E09081987F90839081892B808308954B
S1130140ECE7F0E090819C7F9083208130E4839FF2
S1130150C0011124822B80830895EAE7F0E08081B6
S113016080648083808186FDFDCF809178009091AA
S113017079000895CF93C62F10927A00ECE7F0E04F
S113018090819F7D9083D3DF8C2FDADFCADFE5DF98
S1130190E4DFCF910895ECE7F0E09081907E9083C6
S11301A09081892B8083EAE7F0E0808180648083FA
S11301B0808186FDFDCF809178009091790008952B
S11301C0E8E0F1E0908180E2892780830895E8E007
S11301D0F1E080818F7D80830895E9E6F0E08081FD
S11301E08A60808383E08DBB8093680080E880937D
S11301F06B0080936C00089583EC8DB91EB887E082
S11302008093010183E08093020187E684B981E051
S113021085B988E180930A0110920B0198EC9AB990
S11302201AB898E097B918B81092040181B980E21D
S11302308093070180930801D0CF08951092800025
S11302408DE08093810088E391E09093890080930E
S1130250880082E080936F000895EF92FF920F93DD
S11302601F93CF93DF93C62FD42F823009F440C05D
S113027018F4813041F0BFC0833009F467C0843082
S113028009F48FC0B8C081E0CBD640917A0250E027
S113029060E070E08A019B013C604D2F50E060E01B
S11302A070E0032E3DE0440F551F661F771F3A95FB
S11302B0D1F7302D402B512B622B732B0C2F10E0D8
S11302C020E030E00F2EF2E1000F111F221F331F38
S11302D0FA95D1F7F02D78018901E42AF52A062B45
S11302E0172B2BE732E048E0682F81E0B2D683C0B9
S11302F082E096D69AE090932C044D2F50E060E073
S113030070E0032E3DE0440F551F661F771F3A959A
S1130310D1F7302D416079600C2F10E020E030E0FF
S11303200F2EF2E1000F111F221F331FFA95D1F790
S1130330F02D78018901E42AF52A062B172B2CE2EB
S113034034E044E0682F82E084D655C082E068D669
S11303504D2F50E060E070E0032E3DE0440F551F48
S1130360661F771F3A95D1F7302D41607A600C2FC4
S113037010E020E030E00F2EF2E1000F111F221FE9
S1130380331FFA95D1F7F02D78018901E42AF52A73
S1130390062B172B2FE133E044E0682F82E059D677
S11303A02AC084E03DD64D2F50E060E070E0032E7B
S11303B03DE0440F551F661F771F3A95D1F7302D46
S11303C0416060640C2F10E020E030E00F2EF2E179
S11303D0000F111F221F331FFA95D1F7F02D78015A
S11303E08901E42AF52A062B172B2AEF34E044E08E
S11303F0682F84E02ED6DF91CF911F910F91FF904B
S1130400EF900895CF92DF92EF92FF92CF93DF9314
S1130410D82FCAE0C12CD12C76018D2FBCDEC80E9A
S1130420D91EE11CF11CC150C1F7C701B6012AE075
S113043030E040E050E0C4D7C901DF91CF91FF9094
S1130440EF90DF90CF9008950F931F93CF93DF9396
S1130450EC018B018BE0D6DF9C01215031092E3F4A
S1130460334078F49983888387E0CCDF9C01215062
S113047031092E3F334038F4F8019183808381E0C1
S113048003C080E001C080E0DF91CF911F910F9104
S11304900895EF92FF920F931F93CF93DF938C01F4
S11304A07B018AE0AFDFEC019C0124563109213243
S11304B0334008F046C088E0A5DF9C01245631098A
S11304C02132334008F03FC09E0123533109F90122
S11304D0E81BF90BE336F105C0F5F801D183C083BD
S11304E0C130D24058F080912C0484FD07C0806153
S11304F080932C0441E061E082E0AFDE85E082DF9E
S1130500EC01845691098132934008F582E07ADF48
S11305109C012456310921323340D8F49E01281B12
S1130520390BC901992324F488279927821B930B3B
S1130530C3978336910578F4F701D183C08381E0B2
S11305400BC080E009C080E007C080E005C080E007
S113055003C080E001C080E0DF91CF911F910F9133
S1130560FF90EF900895CF93DF93FC01218130E059
S1130570322F22274481C581D6818281B901680F37
S1130580711D683C710529F592B180E2892782B911
S1130590842F90E0A0E0B0E0BC01552744278C2FC5
S11305A090E0A0E0B0E0BA2FA92F982F8827840FFD
S11305B0951FA61FB71F8D0F911DA11DB11D01977A
S11305C0A105B10521F481E08093830202C0109259
S11305D08302DF91CF910895BF92CF92DF92EF9281
S11305E0FF920F931F93CF93DF93CDB7DEB7A297FC
S11305F00FB6F894DEBF0FBECDBF8DE2898381E0D4
S11306008A83EFE1F3E0818592859B838C839385D4
S113061024852D839E8396819F83888785859685EF
S113062099878A87878190859B878C87878590891E
S11306309D878E87ACEFB3E013968C911397149635
S11306409C9114979F87888B15968C911597169675
S11306509C911697998B8A8B809176029091770260
S11306609B8B8C8B80912C048D8B81A18E8BEBE7E3
S1130670F2E0808191819F8B888F11968C911197E4
S113068012969C91998F8A8F809184028B8F80918E
S113069079028D8F80E88E8F8F8F88A38E010F5FF4
S11306A01F4FDE015D967D01A801B12CC12C61E0D4
S11306B070E019C02081243459F4DC909B01082E89
S11306C002C0220F331F0A94E2F72D292C931082C3
S11306D0019631968730910569F7495F5F4F11960E
S11306E04E155F0521F0FA018B2D9C2DE3CF7E0181
S11306F081E2E80EF11CF80181918F0121D60E15DB
S11307001F05C9F7A2960FB6F894DEBF0FBECDBF82
S1130710DF91CF911F910F91FF90EF90DF90CF90D9
S1130720BF900895CF93DF93EC011DDF84E408D6D6
S113073053DF1882DF91CF910895843421F481E04E
S1130740809373020DC090917302913049F4E0914B
S113075072029E0F90937202F0E0EE5BFD4F808375
S1130760E0917202E93058F0F0E0EF5BFD4F108247
S1130770109272021092730282E492E0D3CF089531
S1130780DA01C901072E7DE0B695A795979587955F
S11307907A95D1F7702D80FD0FC081FD07C082FDD1
S11307A008C083FF48C023E030E008C021E030E007
S11307B005C022E030E002C020E030E0DB01119609
S11307C08C91119790E0F901EE0FFF1FEE0FFF1FC0
S11307D0EE0FFF1FE20FF31FE450FC4F928381835F
S11307E02C91922B9283818313968C91139790E092
S11307F09483838312962C911297922B94838383F0
S113080014968C91149790E09683858315962C9179
S11308101597922B9683858317969C911797292F6A
S113082030E03087278316968C91892B90E090874F
S1130830878381E0089580E00895CF93DF93CDB757
S1130840DEB76D970FB6F894DEBF0FBECDBF8FE154
S11308509EE40197F1F700C00000CEDC95D480E05F
S11308609BE452D561E086E085DC81E022D382E01E
S113087020D384E01ED37894E5E0F1E080818064A5
S11308808083DCDCF39910C041E061E082E0E5DCC8
S113089097DC9FEFE3EDF0E39150E040F040E1F7A7
S11308A000C00000F39BF0CF0CE214E0F80180815B
S11308B08062808341E061E082E0CFDCFFEF23EDE2
S11308C080E3F15020408040E1F700C00000F801CF
S11308D080818F7D806C808341E061E082E0BDDCBB
S11308E0ECEFF3E080E090E021E0322F082E01C02D
S11308F0330F0A94EAF73083168215821086178222
S113090012821182148213820196399684309105E1
S113091061F781E0809323031A8219821C821B826F
S11309201E821D8218861F82BE016D5F7F4FCE011D
S11309300196AFDDBE01695F7F4FCE01059684DD70
S113094088E0E6E3F2E0DE01199601900D928A95C3
S1130950E1F70F2EFBE7CF2EF2E0DF2EF02D0F2E66
S1130960F0E08F2EF2E09F2EF02D412C512C0F2E13
S1130970F2E06F2EF2E07F2EF02D0F2EFCE2AF2E70
S1130980F4E0BF2EF02D84E04BD3E12CF12C00E4F5
S113099010E09E01275F3F4F48E0682F84E059D361
S11309A08A858F5F8A8784E0F6DB7C0183E0F3DB52
S11309B0F09B60C081E0D1D3829586958695837043
S11309C08230D1F0833071F1813009F052C08E0150
S11309D0075E1F4F9E012F5E3F4FAE01435E5F4F88
S11309E061E68BD2298D3A8D4B8D5C8DBE016F5E95
S11309F07F4F8D8DC5DE3DC08E01075E1F4F9E016A
S1130A002F5E3F4FAE01435E5F4F61E781E075D2D9
S1130A10298D3A8D4B8D5C8DBE016F5E7F4F8D8D20
S1130A20AFDE27C08E01075E1F4F9E012F5E3F4F32
S1130A30AE01435E5F4F61E681E05FD2298D3A8D5E
S1130A404B8D5C8DBE016F5E7F4F8D8D99DE9E0157
S1130A502F5E3F4FAE01435E5F4F61E781E04DD2B1
S1130A60298D3A8D4B8D5C8DBE016F5E7F4F8D8DD0
S1130A7087DEF098F19B3BC082E06FD38295869528
S1130A8086958370823089F08330E1F0813079F586
S1130A908E01075E1F4F9E012F5E3F4FAE01435EE6
S1130AA05F4F61E682E029D222C08E01075E1F4FAC
S1130AB09E012F5E3F4FAE01435E5F4F61E782E0D0
S1130AC01CD215C08E01075E1F4F9E012F5E3F4F43
S1130AD0AE01435E5F4F61E682E00FD29E012F5E5E
S1130AE03F4FAE01435E5F4F61E782E006D28EB3B3
S1130AF0079B03C010927A0203C081E080937A02BC
S1130B00C70196958795969587958130F1E09F0763
S1130B1008F086C08A30910508F47AC0F601918302
S1130B2080838B3F910510F0159A01C015984AE017
S1130B3060E274E0F601808191816DD480E294E0FA
S1130B4014D48EE392E011D41ED4813011F421D454
S1130B50F4DDBE016F5F7F4FCE0103969ADCBE01C8
S1130B60695F7F4FCE0105966FDC84E04BDC909388
S1130B7079028093780281E00EDBF4014081518197
S1130B808417950758F4F301242D352D2F5F3F4F1B
S1130B904191519184179507C8F302C0242D352D36
S1130BA0F901EE0FFF1FE250FE4F60817181DB01FE
S1130BB0A81BB90BEEE1EA9FC001EB9F900D112435
S1130BC0E29FD001E39FB00D11249D0126503F4FB9
S1130BD0641B750BE1D3620F731F709377026093EC
S1130BE07602653FF1E07F0738F0F501808180FDF2
S1130BF013C081608083C7CE603E714008F0C3CECD
S1130C00F501808180FFBFCE8E7FF5018083BBCE4E
S1130C10F601118210828ACF603E7140A8F3B3CEF0
S1130C20F6011182108282CF1F920F920FB60F929B
S1130C301124F09A0F900FBE0F901F9018951F92D9
S1130C400F920FB60F921124F19A0F900FBE0F90CE
S1130C501F9018951F920F920FB60F921124F29ABB
S1130C600F900FBE0F901F9018951F920F920FB602
S1130C700F9211240BB60F920F931F932F933F9350
S1130C804F935F936F937F938F939F93AF93BF9390
S1130C90CF93EF93FF938091030186FD2EC0F399C8
S1130CA019C0CEE103E011E02FEF81EE94E0215072
S1130CB080409040E1F700C0000082DAF8018081B2
S1130CC086FD1BC0C13019F4F39A81DA16C0C150F5
S1130CD059F713C0CAE003E011E0FFEF21EE84E00E
S1130CE0F15020408040E1F700C0000069DAF801CB
S1130CF0808186FD02C0C15081F769DAFF91EF91CE
S1130D00CF91BF91AF919F918F917F916F915F919F
S1130D104F913F912F911F910F910F900BBE0F9008
S1130D200FBE0F901F9018951F920F920FB60F923F
S1130D3011240BB60F922F933F934F935F936F93AE
S1130D407F938F939F93AF93BF93EF93FF93809180
S1130D5074029091750201969093750280937402C7
S1130D60809174029091750281709078992324F493
S1130D7001978E6F9F6F01961816190624F44FE0A1
S1130D8063E081E06ADA809174029091750288319F
S1130D90910551F08033910561F00C9771F441E0B5
S1130DA061E082E05ADA09C041E061E083E055DAAB
S1130DB004C041E061E084E050DA809174029091D3
S1130DC07502C19724F01092750210927402FF917B
S1130DD0EF91BF91AF919F918F917F916F915F91AF
S1130DE04F913F912F910F900BBE0F900FBE0F901C
S1130DF01F901895823051F0843071F0813069F47D
S1130E00E2E0F1E080818E7F80830895E2E0F1E00A
S1130E1080818D7F8083089528980895823051F0D1
S1130E20843071F0813069F4E2E0F1E08081816026
S1130E3080830895E2E0F1E08081826080830895F8
S1130E40289A08951F93CF93DF93C82F162FD42F7A
S1130E50D1DF82E093D1812F91D18D2F8FD18C2F2F
S1130E60DDDFDF91CF911F910895CF93DF93C82FDA
S1130E70D62FC0DF8D2F82D18C2FD0DFDF91CF9181
S1130E8008950F931F93CF93DF93C82F062FD42F6A
S1130E90122FB0DF85E072D1802F70D1812F6ED1F7
S1130EA08D2F6CD18C2FBADFDF91CF911F910F91D1
S1130EB00895CF93C82F60ECD8DF20EE40E86FE0B0
S1130EC08C2FDFDF44E06AE28C2FBCDF4AEC69E25E
S1130ED08C2FB8DF41E068E28C2FB4DF43E06BE293
S1130EE08C2FB0DF41E06DE08C2FACDF20EE40E0D2
S1130EF06FE08C2FC6DFCF9108957F928F929F92DF
S1130F00AF92BF92CF92DF92EF92FF920F931F9313
S1130F10CF93DF93CDB7DEB72D970FB6F894DEBF2E
S1130F200FBECDBF782E4A015901613728F40F2E28
S1130F30F0E9FF2EF02D04C00F2EF4E9FF2EF02D62
S1130F40872D58DF8F2D1AD1CE0101967C016E01B9
S1130F509EE0C90ED11C80E011D1F70181937F017D
S1130F60EC15FD05C1F72A81898190E0A0E0B0E08D
S1130F70072E75E1880F991FAA1FBB1F7A95D1F719
S1130F80702D3C81832B422F407E50E060E070E066
S1130F90032E3DE0440F551F661F771F3A95D1F786
S1130FA0302D842B952BA62BB72B2370A22B2B81B2
S1130FB0922BF80180839183A283B3834D854F7074
S1130FC0F401408350E0BE016B5F7F4FC5011AD22C
S1130FD0872D24DF2D960FB6F894DEBF0FBECDBF4C
S1130FE0DF91CF911F910F91FF90EF90DF90CF9001
S1130FF0BF90AF909F908F907F900895CF93DF9391
S1131000C82FD62FF7DE83E0B9D08D2FB7D080E07C
S1131010B5D0D82F8C2F02DF8D2FDF91CF9108957B
S1131020CF93C82F60E3EADF83FF0CC060E48C2F0A
S1131030E5DF83FF09C060E58C2FE0DF83FF06C096
S113104080E005C080E303C080E401C080E5CF9167
S113105008954F925F926F927F92AF92BF92CF9218
S1131060DF92EF92FF920F931F93CF93DF93B82EEB
S1131070A62ED42F690127013801662309F45EC026
S113108043E0E0DEB801A701032E35E176956795CC
S1131090579547953A95D1F7302D61E06A0D8B2D20
S11310A0D1DEB801A701032E3DE0769567955795EB
S11310B047953A95D1F7302D407E862D8370482B85
S11310C0486062E06A0D8B2DBDDE7727612F502FBB
S11310D04F2D63E06A0D8B2DB5DE4E2D64E06A0D55
S11310E08B2DB0DE4D2F65E06A0D8B2DABDEDD233D
S11310F0A9F08601C6E0CA0DD150ED2EF12C8FEF78
S1131100E81AF80AEC0CFD1CF80141918F016C2FD0
S11311108B2D98DECF5F0E151F05B1F78A2D8595AF
S1131120859585958595835061E070E002C0660FD2
S1131130771F8A95E2F760688B2D97DEDF91CF9158
S11311401F910F91FF90EF90DF90CF90BF90AF90E1
S11311507F906F905F904F900895CF93DF93C82F47
S113116049DE80EB0BD080E009D0D82F80E006D098
S11311708C2F54DE8D2FDF91CF9108958EBD0DB449
S113118007FEFDCF8EB5089581E58CBD81E08DBD50
S11311901EBC08951F920F920FB60F9211240BB626
S11311A00F922F938F939F93EF93FF938091C0009F
S11311B02091C6008871E091CC02EF5FEF719091AD
S11311C0CB02E91739F0E093CC02F0E0E153FD4F94
S11311D0208301C082E08093CA02FF91EF919F9126
S11311E08F912F910F900BBE0F900FBE0F901F90F9
S11311F018951F920F920FB60F9211240BB60F92EF
S11312002F938F939F93EF93FF938091C800209126
S1131210CE008871E0918702EF5FEF7190918602B2
S1131220E91739F0E0938702F0E0E657FD4F208399
S113123001C082E080938502FF91EF919F918F918D
S11312402F910F900BBE0F900FBE0F901F9018950B
S11312501F920F920FB60F9211240BB60F928F9319
S11312609F93EF93FF939091CE028091CD029817B4
S113127069F0E091CD02EF5FEF71E093CD02F0E011
S1131280E151FD4F80818093C60005C0E1ECF0E0A0
S113129080818F7D8083FF91EF919F918F910F903B
S11312A00BBE0F900FBE0F901F9018951F920F92B8
S11312B00FB60F9211240BB60F928F939F93EF9357
S11312C0FF939091890280918802981769F0E091C8
S11312D08802EF5FEF71E0938802F0E0E655FD4F7E
S11312E080818093CE0005C0E9ECF0E080818F7DA1
S11312F08083FF91EF919F918F910F900BBE0F9080
S11313000FBE0F901F9018951092890210928802B8
S11313101092870210928602E1E6F0E080E8808372
S113132010821092CD0087E68093CC0082E08093F7
S1131330C80088E18093C90086E08093CA000895BC
S1131340209189022F5F2F71909188022917E1F370
S1131350E22FF0E0E655FD4F808320938902E9EC0B
S1131360F0E08081806280830895CF93DF93EC0165
S11313708881882329F02196E3DF89918111FCCFAC
S1131380DF91CF9108958091C800881F8827881F16
S113139008958091CE000895AA1BBB1B51E107C09C
S11313A0AA1FBB1FA617B70710F0A61BB70B881FF1
S11313B0991F5A95A9F780959095BC01CD01089580
S11313C0A1E21A2EAA1BBB1BFD010DC0AA1FBB1F45
S11313D0EE1FFF1FA217B307E407F50720F0A21BB7
S11313E0B30BE40BF50B661F771F881F991F1A9424
S11313F069F760957095809590959B01AC01BD014E
S1131400CF010895FB01DC0102C001900D9241500F
S11314105040D8F70895BB274A3031F4992322F479
S1131420BDE2909581959F4F01C0BB27FB015527D5
S1131430AA27880F991FAA1FA41710F0A41B83952D
S11314405051B9F7A05DAA3308F0A95DA1930097A4
S113145079F7B111B1931192CB0100C0DC01FC0109
S1131460672F71917723E1F7329704C07C916D93D4
S113147070836291AE17BF07C8F30895F894FFCF45
S1131480210320031F031D0317031103FF02EE02B0
S1131490DE02C302B1029F027D02560245023202FD
S11314A01102ED01D001BB01670152013D01290187
S11314B01601EA00CC00000000FF00FF00FF0D0A47
S10514C0000026
S9030000FC
