S01100006C65645F666C6173682E7372656371
S113000071C0000077C0000075C0000073C000001C
S113001071C000006FC000006DC000006BC0000024
S113002069C0000067C0000065C0000063C0000034
S113003061C000005FC000005DC000005BC0000044
S113004059C0000074C0000055C0000053C0000037
S113005051C000004FC000004DC000004BC0000064
S113006049C0000047C0000045C0000043C0000074
S113007041C000003FC000003DC000003BC0000084
S113008039C0000037C0000035C0000033C0000094
S113009031C000002FC000002DC000002BC00000A4
S11300A029C0000027C0000025C0000023C00000B4
S11300B021C000001FC000001DC000001BC00000C4
S11300C019C0000017C0000015C0000013C00000D4
S11300D011C000000FC000000DC000000BC00000E4
S11300E009C0000011241FBECFEFD1E2DEBFCDBF97
S11300F002D044C085CFE7E0F1E080818062808354
S1130100109280008DE08093810088E99AE39093B7
S113011089008093880082E080936F007894FFCFF9
S1130120E8E0F1E0908180E28927808308951F92BE
S11301300F920FB60F9211240BB60F922F933F9389
S11301404F935F936F937F938F939F93AF93BF93DB
S1130150EF93FF93E5DFFF91EF91BF91AF919F91F3
S11301608F917F916F915F914F913F912F910F905C
S11301700BBE0F900FBE0F901F901895F894FFCFF1
S9030000FC
