S011000063635F6D65726765322E73726563AC
S113000071C00000C3C2000081C2000088C00000AB
S113001086C0000084C0000082C0000080C00000D0
S11300207EC00000F3C200007AC0000078C0000067
S113003076C0000074C0000072C0000070C00000F0
S11300406EC0000059C200006AC0000068C0000011
S113005066C000002AC2000062C0000060C0000048
S11300605EC00000DCC4000038C5000058C00000B9
S113007056C0000054C0000052C0000050C0000030
S11300804EC000004CC000004AC0000048C0000040
S1130090F5C4000050C5000042C0000040C000008C
S11300A03EC000003CC000003AC0000038C0000060
S11300B036C0000034C0000032C0000030C0000070
S11300C02EC000002CC000002AC0000028C0000080
S11300D026C0000024C0000022C0000020C0000090
S11300E01EC0000011241FBECFEFD1E2DEBFCDBF82
S11300F012E0A0E0B2E0E0E4FCE000E00BBF02C0EC
S113010007900D92A430B107D9F722E0A4E0B2E041
S113011001C01D92AB39B207E1F725D18FC570CF6D
S1130120ECE7F0E09081907E9083883060F0EBE71C
S1130130F0E0908198609083ECE7F0E09081885043
S1130140892B80830AC0EBE7F0E09081977F90834E
S1130150ECE7F0E09081892B8083EAE7F0E080818E
S113016080648083808186FDFDCF809178009091AA
S1130170790008958F929F92AF92BF92CF92DF92AF
S1130180EF92FF920F931F93CF93DF93C82FD62F35
S11301906A014801590190D38501740196014D2FDC
S11301A0682F8C2FA2D3DF91CF911F910F91FF90D5
S11301B0EF90DF90CF90BF90AF909F908F90089575
S11301C0AF92BF92CF92DF92EF92FF920F931F9361
S11301D0CF93C82F7B016A01590104D48295869577
S11301E086958370823059F0833081F08130C9F470
S11301F085019601A70161E68C2FCBD212C085013F
S11302009601A70161E68C2FC4D20BC0850196012B
S1130210A70161E68C2FBDD29601A70161E68C2F60
S1130220B8D2CF911F910F91FF90EF90DF90CF90B4
S1130230BF90AF900895E9E6F0E080818A60808302
S113024083E08DBB81E08093680080E880936B003D
S1130250089582EC8DB91EB887E08093010183E094
S11302608093020187E684B981E085B998E190938F
S11302700A0110920B0188EC8AB91AB888E087B990
S113028018B810920401E5E0F1E080818064808375
S113029091B980E182B980E280930701CCCF0895BF
S11302A0D8DFB7D380E09BE474D481E04EC20895D4
S11302B084B5826084BD85B5836085BD8AEF87BDC2
S11302C0EEE6F0E0808182608083109280008DE011
S11302D08093810088E99AE3909389008093880051
S11302E082E080936F0008950F931F93CF93DF9361
S11302F08C0184E46AD4E8012196F8018081882382
S113030039F08E01899161D4F80180818111F9CF8E
S1130310DF91CF911F910F910895CF93DF9300D078
S113032000D0CDB7DEB780910B02982F990F809142
S11303300A02880F880F892B90910C02892B8983DC
S1130340809105028A83809104028B838091060246
S11303508C83CE010196C8DF0F900F900F900F9001
S1130360DF91CF9108959CDFA3DF10920A02789465
S1130370FFCF0F931F93CF93DF93CDB7DEB72897AB
S11303800FB6F894DEBF0FBECDBF809108029091E6
S113039009029C012F5F3F4F30930902209308020A
S11303A0853691055CF0E8E0F1E0908180E28927F0
S11303B080831092090210920802AFDF809103013A
S11303C086FD1EC081E080930C0280910E02909104
S11303D00F029C012F5F3F4F30930F0220930E02B8
S11303E0813D9740A8F080910D02811111C081E0F8
S11303F080930D0290910B02892780930B0208C011
S113040010920C0210920D0210920F0210920E0222
S1130410FE01319688E0DF011D928A95E9F780910B
S113042007028B3050F0109207020EE110E020E03A
S113043034E2AF0168E081E09DDE809107028F5FC6
S113044080930702809103028F5F8093030280915F
S113045002028F5F80930202809101028B3030F0A0
S113046085E05EDE80930502109201028091000215
S11304708B3030F08AE054DE809304021092000244
S1130480809101028F5F80930102809100028F5F4F
S11304908093000228960FB6F894DEBF0FBECDBF3E
S11304A0DF91CF911F910F9108951F920F920FB674
S11304B00F9211240BB60F922F933F934F935F9398
S11304C06F937F938F939F93AF93BF93EF93FF9318
S11304D050DFFF91EF91BF91AF919F918F917F91E9
S11304E06F915F914F913F912F910F900BBE0F90A1
S11304F00FBE0F901F9018951F920F920FB60F9278
S113050011240F900FBE0F901F9018951F920F92F9
S11305100FB60F9211240BB60F922F933F934F9364
S11305205F936F937F938F939F93AF93BF93EF9357
S1130530FF93CF93DF93CDB7DEB72D97DEBFCDBF4B
S11305409E01275F3F4FAE014F5F5F4FBE01635F68
S11305507F4F81E035DE2D960FB6F894DEBF0FBED7
S1130560CDBFDF91CF91FF91EF91BF91AF919F915B
S11305708F917F916F915F914F913F912F910F9048
S11305800BBE0F900FBE0F901F9018951F920F92E5
S11305900FB60F9211240BB60F922F933F934F93E4
S11305A05F936F937F938F939F93AF93BF93EF93D7
S11305B0FF93CF93DF93CDB7DEB72D97DEBFCDBFCB
S11305C09E01275F3F4FAE014F5F5F4FBE01635FE8
S11305D07F4F82E0F5DD2D960FB6F894DEBF0FBE97
S11305E0CDBFDF91CF91FF91EF91BF91AF919F91DB
S11305F08F917F916F915F914F913F912F910F90C8
S11306000BBE0F900FBE0F901F9018951F920F9264
S11306100FB60F9211240BB60F922F933F934F9363
S11306205F936F937F938F939F93AF93BF93EF9356
S1130630FF93CF93DF93CDB7DEB72D97DEBFCDBF4A
S11306409E01275F3F4FAE014F5F5F4FBE01635F67
S11306507F4F84E0B5DD2D960FB6F894DEBF0FBE54
S1130660CDBFDF91CF91FF91EF91BF91AF919F915A
S11306708F917F916F915F914F913F912F910F9047
S11306800BBE0F900FBE0F901F901895823051F043
S1130690843071F0813069F4E2E0F1E080818E7F92
S11306A080830895E2E0F1E080818D7F8083089566
S11306B028980895823051F0843071F0813069F4C3
S11306C0E2E0F1E08081816080830895E2E0F1E07E
S11306D08081826080830895289A08951F93CF9320
S11306E0DF93C82F162FD42FD1DF82E08CD1812F36
S11306F08AD18D2F88D18C2FDDDFDF91CF911F918F
S11307000895CF93DF93C82FD62FC0DF8D2F7BD1D1
S11307108C2FD0DFDF91CF9108950F931F93CF9348
S1130720DF93C82F062FD42F122FB0DF85E06BD1B3
S1130730802F69D1812F67D18D2F65D18C2FBADF9E
S1130740DF91CF911F910F910895CF93C82F60EC43
S1130750D8DF20EE40E86FE08C2FDFDF44E06AE270
S11307608C2FBCDF4AEC69E28C2FB8DF41E068E2F1
S11307708C2FB4DF43E06BE28C2FB0DF41E06DE0FF
S11307808C2FACDF20EE40E06FE08C2FC6DFCF91E2
S113079008957F928F929F92AF92BF92CF92DF92F1
S11307A0EF92FF920F931F93CF93DF93CDB7DEB7F2
S11307B02D970FB6F894DEBF0FBECDBF782E4A0139
S11307C05901613728F40F2EF0E9FF2EF02D04C0F3
S11307D00F2EF4E9FF2EF02D872D58DF8F2D13D126
S11307E0CE0101967C016E019EE0C90ED11C80E011
S11307F00AD1F70181937F01EC15FD05C1F72A8128
S1130800898190E0A0E0B0E0072E75E1880F991F80
S1130810AA1FBB1F7A95D1F7702D3B81932B3C8186
S1130820832B422F407E50E060E070E0032E3DE0D9
S1130830440F551F661F771F3A95D1F7302D842B2F
S1130840952BA62BB72B2370A22BF80180839183C1
S1130850A283B3834D854F70F401408350E0BE0101
S11308606B5F7F4FC501E1D1872D24DF2D960FB635
S1130870F894DEBF0FBECDBFDF91CF911F910F91D2
S1130880FF90EF90DF90CF90BF90AF909F908F90AC
S11308907F900895CF93DF93C82FD62FF7DE83E0A0
S11308A0B2D08D2FB0D080E0AED0D82F8C2F02DF05
S11308B08D2FDF91CF910895CF93C82F60E3EADFA6
S11308C083FF0CC060E48C2FE5DF83FF09C060E583
S11308D08C2FE0DF83FF06C080E005C080E303C007
S11308E080E401C080E5CF9108958F929F92AF92EA
S11308F0BF92DF92EF92FF920F931F93CF93DF93F8
S1130900662309F463C047015801C32FE22ED42E95
S1130910F62ED82F43E0E2DEB501A401032E35E123
S113092076956795579547953A95D1F7302D81E09F
S11309308F0D682F8D2FD2DEB501A401032E3DE06B
S113094076956795579547953A95D1F7302D407E22
S11309508A2D8370482B486062E06F0D8D2FBEDEB8
S113096077276B2D5A2D492D83E08F0D682F8D2FFE
S1130970B5DE64E06F0D482D8D2FB0DE65E06F0DA0
S11309804D2D8D2FABDEDD2089F00E2D1C2FC6E002
S1130990CF0D46E04D0DE42EEF0CF80141918F018F
S11309A06C2F8D2F9BDECF5FCE11F7CF8F2D8595CA
S11309B0859585958595835061E070E002C0660F4A
S11309C0771F8A95E2F760688D2F9BDEDF91CF91C8
S11309D01F910F91FF90EF90DF90BF90AF909F9089
S11309E08F900895CF93DF93C82F50DE80EB0BD008
S11309F080E009D0D82F80E006D08C2F5BDE8D2FCD
S1130A00DF91CF9108958EBD0DB407FEFDCF8EB555
S1130A10089581E58CBD81E08DBD1EBC08951F92B3
S1130A200F920FB60F9211240BB60F922F938F9340
S1130A309F93EF93FF938091C0002091C60088712B
S1130A40E0915702EF5FEF7190915602E91739F088
S1130A50E0935702F0E0E65AFD4F208301C082E0A4
S1130A6080935502FF91EF919F918F912F910F9059
S1130A700BBE0F900FBE0F901F9018951F920F92F0
S1130A800FB60F9211240BB60F922F938F939F934F
S1130A90EF93FF938091C8002091CE008871E0917C
S1130AA01202EF5FEF7190911102E91739F0E093B0
S1130AB01202F0E0EB5EFD4F208301C082E08093E0
S1130AC01002FF91EF919F918F912F910F900BBE88
S1130AD00F900FBE0F901F9018951F920F920FB694
S1130AE00F9211240BB60F928F939F93EF93FF9362
S1130AF09091590280915802981769F0E091580238
S1130B00EF5FEF71E0935802F0E0E658FD4F80810B
S1130B108093C60005C0E1ECF0E080818F7D808386
S1130B20FF91EF919F918F910F900BBE0F900FBE8D
S1130B300F901F9018951F920F920FB60F921124C9
S1130B400BB60F928F939F93EF93FF9390911402A0
S1130B5080911302981769F0E0911302EF5FEF712F
S1130B60E0931302F0E0EB5CFD4F80818093CE00B4
S1130B7005C0E9ECF0E080818F7D8083FF91EF91E7
S1130B809F918F910F900BBE0F900FBE0F901F90EF
S1130B90189510925902109258021092570210920E
S1130BA05602E1E6F0E080E8808310821092C500EE
S1130BB087E68093C40082E08093C00088E180933C
S1130BC0C10086E08093C200089590919A02911129
S1130BD015C0209159022F5F2F7190915802291747
S1130BE0E1F3E22FF0E0E658FD4F808320935902B1
S1130BF0E1ECF0E080818062808308959130A1F47B
S1130C00209114022F5F2F71909113022917E1F3A1
S1130C10E22FF0E0EB5CFD4F808320931402E9ECBB
S1130C20F0E08081806280830895FB01DC0102C0D2
S1130C3001900D9241505040D8F70895F894FFCF99
S1070C4004030201A2
S9030000FC
