S011000063635F6D65726765322E73726563AC
S1130000F6C000000C94A9080C9469080EC1000005
S11300100CC100000AC1000008C1000006C10000B4
S113002004C100000C94E90800C10000FEC00000F7
S1130030FCC00000FAC00000F8C00000F6C00000D8
S1130040F4C000000C945F08F0C00000EEC0000093
S1130050ECC000000C943808E8C00000E6C00000C2
S1130060E4C000000C94F20A0C94500BDEC00000B3
S1130070DCC00000DAC00000D8C00000D6C0000018
S1130080D4C00000D2C00000D0C00000CEC0000028
S11300900C94210B0C947E0BC8C00000C6C0000059
S11300A0C4C00000C2C00000C0C00000BEC0000048
S11300B0BCC00000BAC00000B8C00000B6C0000058
S11300C0B4C00000B2C00000B0C00000AEC0000068
S11300D0ACC00000AAC00000A8C00000A6C0000078
S11300E0A4C000000D026E04CA02E50200031B0353
S11300F0360351036C038703A203BD03D803EA0349
S1130100FC030E0420043B0455046E046E046E04C8
S11301106E046E046E046E046E046E046E046E044B
S11301206E046E046E046E046E046E046E046E043B
S11301306E046E046E046E046E046E046E046E042B
S11301406E046E046E046E046E046E046E046E041B
S11301506E046E046E046E046E046E046E046E040B
S11301606E046E046E046E046E046E046E046E04FB
S11301706E046E046E046E046E046E046E046E04EB
S11301806E046E046E046E046E046E046E046E04DB
S11301906E046E046E046E046E046E046E046E04CB
S11301A06E046E046E046E046E046E046E046E04BB
S11301B06E046E046E046E046E046E046E046E04AB
S11301C06E04280243026E046E046E046E046E0410
S11301D06E046E046E045E0279026E046E046E0494
S11301E06E046E046E046E046E049402AF02112455
S11301F01FBECFEFD1E2DEBFCDBF18E0A0E0B2E07A
S1130200E4E2FEE100E00BBF02C007900D92AC3EB9
S1130210B107D9F72AE0ACEEB8E001C01D92AB31CA
S1130220B207E1F709D60C94100FEACEEAE7F0E042
S11302308081806880830895EAE7F0E09081987F68
S113024090839081892B80830895ECE7F0E090817E
S11302509C7F9083208130E4839FC0011124822BF2
S113026080830895CF93C62F10927A00ECE7F0E0D4
S113027090819F7D9083E0DF8C2FE7DFD7DFCF91E4
S11302800895ECE7F0E09081907E9083883060F0F0
S1130290EBE7F0E0908198609083ECE7F0E09081E8
S11302A08850892B80830AC0EBE7F0E09081977F28
S11302B09083ECE7F0E09081892B8083EAE7F0E01B
S11302C0808180648083808186FDFDCF8091780069
S11302D0909179000895D5DF9695879596958795A1
S11302E008958F929F92AF92BF92CF92DF92EF9236
S11302F0FF920F931F93CF93DF93C82FD62F6A01DA
S1130300480159010E943F0A8501740196014D2F4D
S1130310682F8C2F0E94580ADF91CF911F910F9163
S1130320FF90EF90DF90CF90BF90AF909F908F9011
S11303300895AF92BF92CF92DF92EF92FF920F9304
S11303401F93CF93C82F7B016A0159010E94D50ADC
S11303508295869586958370823059F0833081F03A
S11303608130C9F485019601A70161E68C2FF4D789
S113037012C085019601A70161E78C2FEDD70BC050
S113038085019601A70161E68C2FE6D79601A701A6
S113039061E78C2FE1D7CF911F910F91FF90EF90E0
S11303A0DF90CF90BF90AF9008950F931F93CF939A
S11303B0DF93182F092F5F934F937F936F931F92AF
S11303C088E28F93D0E0DF93C0E0CF930E94270CA4
S11303D0DF93CF930F931F9387E292E09F938F93C2
S11303E01F9282E38F931F921F920E94270C8DB756
S11303F09EB742960FB6F8949EBF0FBE8DBFDF9195
S1130400CF911F910F9108956538710508F066C268
S1130410FB01EE58FF4F0C94150C8230910561F0EE
S11304208330910579F0019709F058C26DE272E0CA
S113043083E392E0BACF089568E372E08FE392E039
S1130440B4CF089569E472E08FE492E0AECF0895EA
S11304508230910561F08330910579F0019709F0BC
S11304603DC269E572E083E392E09FCF08956EE6B2
S113047072E08FE392E099CF089564E872E08FE42C
S113048092E093CF08958230910561F08330910515
S113049079F0019709F022C262EA72E083E392E004
S11304A084CF08956CEB72E08FE392E07ECF0895E1
S11304B067ED72E08FE492E078CF08958230910581
S11304C061F08330910579F0019709F007C26AEF72
S11304D072E083E392E069CF08956FE073E08FE305
S11304E092E063CF089565E273E08FE492E05DCF1C
S11304F008958230910561F08330910579F0019778
S113050009F0ECC163E473E083E392E04ECF089515
S11305106DE573E08FE392E048CF089568E773E0F8
S11305208FE492E042CF08958230910561F08330E8
S1130530910579F0019709F0D1C16BE973E083E388
S113054092E033CF089560EB73E08FE392E02DCF18
S1130550089566EC73E08FE492E027CF089582302B
S1130560910561F08330910579F0019709F0B6C1E6
S113057064EE73E083E392E018CF08956EEF73E0C6
S11305808FE392E012CF089569E174E08FE492E082
S11305900CCF08958230910561F08330910579F094
S11305A0019709F09BC16CE374E083E392E0FDCE14
S11305B008956AE574E08FE392E0F7CE089561E868
S11305C074E08FE492E0F1CE08958230910561F0F9
S11305D08330910579F0019709F080C16CE374E0F0
S11305E083E392E0E2CE089567EA74E08FE392E059
S11305F0DCCE08956FEC74E08FE492E0D6CE0895DB
S11306008230910561F08330910579F0019709F00A
S113061065C166EF74E083E392E0C7CE089565E1B7
S113062075E08FE392E0C1CE08956DE375E08FE449
S113063092E0BBCE08958230910561F0833091053C
S113064079F0019709F04AC166EF74E083E392E020
S1130650ACCE089564E675E08FE392E0A6CE0895EB
S11306606DE875E08FE492E0A0CE089582309105A4
S113067061F08330910579F0019709F02FC165EBA2
S113068075E083E392E091CE08956FEC75E08FE31B
S113069092E08BCE089562EF75E08FE492E085CE10
S11306A008958230910561F08330910579F00197C6
S11306B009F014C165EB75E083E392E076CE08950A
S11306C064E176E08FE392E070CE089568E376E02B
S11306D08FE492E06ACE08958230910561F0833010
S11306E0910579F0019709F0F9C065EB75E083E3B2
S11306F092E05BCE08956BE576E08FE392E055CE11
S1130700089568E776E08FE492E04FCE0895823052
S1130710910561F08330910579F0019709F0DEC00D
S113072065E976E083E392E040CE08956FEA76E0EF
S11307308FE392E03ACE089562ED76E08FE492E0A2
S113074034CE08958230910561F08330910579F0BB
S1130750019709F0C3C065EB75E083E392E025CE11
S1130760089564E176E08FE392E01FCE089568E394
S113077076E08FE492E019CE08958230910561F01D
S11307808330910579F0019709F0A8C065E976E016
S113079083E392E00ACE089564EF76E08FE392E07B
S11307A004CE089560E177E08FE492E0FECD0895F1
S11307B08130910519F0039739F008956CE277E0E0
S11307C083E392E0F2CD089562E477E08FE492E06F
S11307D0ECCD08958130910519F0039739F008950F
S11307E06CE277E083E392E0E0CD089568E677E099
S11307F08FE492E0DACD08958130910519F00397E2
S113080039F008956FE877E083E392E0CECD089560
S113081068EA77E08FE492E0C8CD089581309105CD
S113082019F0039739F0089566EC77E083E392E0DA
S1130830BCCD089565ED77E08FE492E0B6CD0895E0
S11308408230910561F08330910579F0019709F0C8
S113085045C068EE77E083E392E0A7CD089561E0B8
S113086078E08FE392E0A1CD089567E178E08FE42A
S113087092E09BCD08958230910559F08330910523
S113088071F0019759F562E378E083E392E08DCD4E
S1130890089560E578E08FE392E087CD089567E7F7
S11308A078E08FE492E081CD08958230910559F08B
S11308B08330910571F0019789F462E378E083E372
S11308C092E073CD08956DE978E08FE392E06DCD09
S11308D0089565EC78E08FE492E067CD089540E0F8
S11308E050E092CD0895E9E6F0E080818A6080834B
S11308F083E08DBB81E08093680080E880936B0087
S1130900089582EC8DB91EB887E08093010183E0DD
S11309108093020187E684B981E085B998E19093D8
S11309200A0110920B0188EC8AB91AB888E087B9D9
S113093018B810920401E5E0F1E0808180648083BE
S113094091B980E182B980E280930701CCCF089508
S1130950D8DF42D680E09BE4FFD661E086E082DC0B
S113096081E0D6D482E0D4D484E0D2C4089584B59E
S1130970826084BD85B5836085BD8AEF87BDEEE660
S1130980F0E0808182608083109280008DE080930B
S1130990810088E99AE3909389008093880082E03B
S11309A080936F000895E0911002F09111029F016D
S11309B0241B350BDC014D915C91420F531FA4E6BF
S11309C0A49FC001A59F900D11246E0F7F1F620F7D
S11309D0731F17D7862F653608F084E608950F93A2
S11309E01F93CF93DF93EC0100913D0910E085E064
S11309F090E047DC000F111FF801E75DF64F91838B
S1130A00808310913D0981E0810F80933D0982E04C
S1130A1090E037DCE12FF0E0EE0FFF1FEB5EF64FC6
S1130A209183808380913D09883010F010923D09B4
S1130A30E9E2F9E0A5E1B9E069E379E080E090E07A
S1130A4020E030E041915191240F351F4D915D918B
S1130A50840F951FE617F707A9F73695279536955E
S1130A6027953695279539832883609112027091D2
S1130A7013024091060250910702461B570B24179C
S1130A803507D0F196958795969587959695879590
S1130A904091020250910302461B570B841795079D
S1130AA068F14091080250910902461B570B421706
S1130AB0530730F14091040250910502461B570B35
S1130AC048175907F8F0281B390BC901992324F456
S1130AD088279927821B930B209141093091420961
S1130AE08217930788F020910002309101022817A1
S1130AF0390760F080E00BC081E009C081E007C0E5
S1130B0082E005C082E003C083E001C083E0DF919E
S1130B10CF911F910F910895EF92FF921F93CF935E
S1130B20DF9300D0CDB7DEB77C011A821982CE01E3
S1130B30019655DF182F40910602509107026091EB
S1130B40080270910902CE0101962DDFF70180831E
S1130B50123051F0133071F0113089F46EE070E00E
S1130B6082E090E0BCDE0BC06EE070E082E090E0DA
S1130B70B6DE05C06EE070E082E090E0B0DE812F6A
S1130B800F900F90DF91CF911F91FF90EF900895F8
S1130B900F931F93CF93DF93EC010091140910E09E
S1130BA08AE090E06EDB000F111FF801E050F74F70
S1130BB0918380831091140981E0810F809314093B
S1130BC088E090E05EDBE12FF0E0EE0FFF1FE451E0
S1130BD0F74F9183808380911409883010F010922C
S1130BE01409E0E0F9E0ACEEB8E060E179E080E01F
S1130BF090E020E030E041915191240F351F4D9158
S1130C005D91840F951FE617F707A9F73695279589
S1130C103695279536952795AC0156954795569563
S1130C20479556954795B901641B750BCB019923DC
S1130C3024F488279927861B970BFC013983288382
S1130C40609112027091130280910C0290910D0236
S1130C50861B970B2817390758F080910E02909144
S1130C600F02860F971F8217930720F482E003C0B8
S1130C7081E001C080E020910A0230910B02261B22
S1130C80370B4217530710F484600AC020910E02F8
S1130C9030910F02620F731F6417750708F48860A0
S1130CA02091410930914209E217F30738F020916D
S1130CB00002309101022E173F0708F48061DF9192
S1130CC0CF911F910F910895EF92FF921F93CF93AD
S1130CD0DF9300D0CDB7DEB77C011A821982CE0132
S1130CE0019656DF182F40910C0250910D0260912D
S1130CF00E0270910F02CE01019655DEF70180833A
S1130D00123051F0133071F0113089F469E070E061
S1130D1082E090E0E4DD0BC06AE070E082E090E005
S1130D20DEDD05C06BE070E082E090E0D8DD812F6D
S1130D300F900F90DF91CF911F91FF90EF90089546
S1130D40FF920F931F93CF93DF938C01F62E84E4CD
S1130D501FD5FF2041F0E8010F0D111D899118D511
S1130D60C017D107D9F78DE013D58AE011D5DF91EB
S1130D70CF911F910F91FF900895CF93DF9300D0EF
S1130D8000D0CDB7DEB780914309853620F48F5F5C
S1130D908093430902C01092430980918B09982FD4
S1130DA0990F80918A09880F880F892B90918C095B
S1130DB0892B898380913F098A8380913E098B83A3
S1130DC0809140098C8364E0CE010196B9DF0F90D5
S1130DD00F900F900F90DF91CF910895CF93DF93F1
S1130DE0EC01888180937A09C8DF1882DF91CF9162
S1130DF00895843421F481E0809375090DC09091A5
S1130E007509913049F4E09174099E0F9093740927
S1130E10F0E0EC5BF64F8083E0917409E93058F020
S1130E20F0E0ED5BF64F1082109274091092750990
S1130E3084E499E0D3CF08958BDD99DD10928A097B
S1130E402FEF89E698E1215080409040E1F700C0FF
S1130E5000007894CDD48130E9F7D0D4CADFFACF3A
S1130E600F931F93CF93DF931F92CDB7DEB780917B
S1130E707809909179098536910534F40196909317
S1130E8079098093780904C010927909109278093D
S1130E908091030186FD1EC081E080938C098091BE
S1130EA08E0990918F099C012F5F3F4F30938F09DA
S1130EB020938E09813D9740A8F080918D0981117E
S1130EC011C081E080938D0990918B0989278093CB
S1130ED08B0908C010928C0910928D0910928F0909
S1130EE010928E0980913F0980938209809176093E
S1130EF0909177090A9768F0109277091092760911
S1130F000EE110E020E034E242E859E068E081E0DC
S1130F10E8D980911D0290911E02C39720F010928F
S1130F201E0210921D0280911B0290911C02C39715
S1130F30E0F010921C0210921B0280918B09813008
S1130F4031F4EAE7F9E08081806C808305C0EAE748
S1130F50F9E080818F73808301E010E020E039E0C4
S1130F604AE759E068E082E0BCD980911902909187
S1130F701A028536910520F010921A021092190275
S1130F808091170290911802C39720F010921802D2
S1130F9010921702809176099091770901969093A7
S1130FA077098093760980911D0290911E02019623
S1130FB090931E0280931D0280911B0290911C024B
S1130FC0019690931C0280931B02809119029091C8
S1130FD01A02019690931A028093190280911702C3
S1130FE090911802019690931802809317028091B1
S1130FF016028B3050F0CE0101968EDD811103C0B4
S1131000898180933F0910921602809115028B30DA
S113101050F0CE01019658DE811103C0898180937E
S11310203E0910921502809114028B3030F084E056
S113103052D98093400910921402809116028F5F56
S113104080931602809115028F5F80931502809120
S113105014028F5F8093140280913F098093820968
S1131060809320020F90DF91CF911F910F910895EB
S11310701F920F920FB60F9211240BB60F922F935B
S11310803F934F935F936F937F938F939F93AF930C
S1131090BF93EF93FF93E4DEFF91EF91BF91AF9184
S11310A09F918F917F916F915F914F913F912F917C
S11310B00F900BBE0F900FBE0F901F9018951F92AC
S11310C00F920FB60F9211240F900FBE0F901F9026
S11310D018951F920F920FB60F9211240BB60F9210
S11310E02F933F934F935F936F937F938F939F932C
S11310F0AF93BF93EF93FF93CF93DF93CDB7DEB757
S11311002D97DEBFCDBF9E01275F3F4FAE014F5FDE
S11311105F4FBE01635F7F4F81E00BD92D960FB601
S1131120F894DEBF0FBECDBFDF91CF91FF91EF9159
S1131130BF91AF919F918F917F916F915F914F91EB
S11311403F912F910F900BBE0F900FBE0F901F90E9
S113115018951F920F920FB60F9211240BB60F928F
S11311602F933F934F935F936F937F938F939F93AB
S1131170AF93BF93EF93FF93CF93DF93CDB7DEB7D6
S11311802D97DEBFCDBF9E01275F3F4FAE014F5F5E
S11311905F4FBE01635F7F4F82E0CBD82D960FB6C1
S11311A0F894DEBF0FBECDBFDF91CF91FF91EF91D9
S11311B0BF91AF919F918F917F916F915F914F916B
S11311C03F912F910F900BBE0F900FBE0F901F9069
S11311D018951F920F920FB60F9211240BB60F920F
S11311E02F933F934F935F936F937F938F939F932B
S11311F0AF93BF93EF93FF93CF93DF93CDB7DEB756
S11312002D97DEBFCDBF9E01275F3F4FAE014F5FDD
S11312105F4FBE01635F7F4F84E08BD82D960FB67E
S1131220F894DEBF0FBECDBFDF91CF91FF91EF9158
S1131230BF91AF919F918F917F916F915F914F91EA
S11312403F912F910F900BBE0F900FBE0F901F90E8
S11312501895823051F0843071F0813069F4E2E005
S1131260F1E080818E7F80830895E2E0F1E0808167
S11312708D7F8083089528980895823051F08430BA
S113128071F0813069F4E2E0F1E080818160808373
S11312900895E2E0F1E08081826080830895289AD5
S11312A008951F93CF93DF93C82F162FD42FD1DF28
S11312B082E08CD1812F8AD18D2F88D18C2FDDDFD4
S11312C0DF91CF911F910895CF93DF93C82FD62F2D
S11312D0C0DF8D2F7BD18C2FD0DFDF91CF9108958C
S11312E00F931F93CF93DF93C82F062FD42F122F62
S11312F0B0DF85E06BD1802F69D1812F67D18D2F2D
S113130065D18C2FBADFDF91CF911F910F91089592
S1131310CF93C82F60ECD8DF20EE40E86FE08C2F2D
S1131320DFDF44E06AE28C2FBCDF4AEC69E28C2FF9
S1131330B8DF41E068E28C2FB4DF43E06BE28C2F2E
S1131340B0DF41E06DE08C2FACDF28EE48E06FE0C9
S11313508C2FC6DFCF9108957F928F929F92AF9288
S1131360BF92CF92DF92EF92FF920F931F93CF938E
S1131370DF93CDB7DEB72D970FB6F894DEBF0FBE5F
S1131380CDBF782E4A015901613728F40F2EF0E9B8
S1131390FF2EF02D04C00F2EF4E9FF2EF02D872D23
S11313A058DF8F2D13D1CE0101967C016E019EE092
S11313B0C90ED11C80E00AD1F70181937F01EC159D
S11313C0FD05C1F72A81898190E0A0E0B0E0072EF5
S11313D075E1880F991FAA1FBB1F7A95D1F7702D4D
S11313E03B81932B3C81832B422F407E50E060E075
S11313F070E0032E3DE0440F551F661F771F3A959A
S1131400D1F7302D842B952BA62BB72B2370A22B31
S1131410F80180839183A283B3834D854F70F401D7
S1131420408350E0BE016B5F7F4FC50107D2872D1B
S113143024DF2D960FB6F894DEBF0FBECDBFDF912B
S1131440CF911F910F91FF90EF90DF90CF90BF90BD
S1131450AF909F908F907F900895CF93DF93C82F84
S1131460D62FF7DE83E0B2D08D2FB0D080E0AED09F
S1131470D82F8C2F02DF8D2FDF91CF910895CF933A
S1131480C82F60E3EADF83FF0CC060E48C2FE5DF44
S113149083FF09C060E58C2FE0DF83FF06C080E096
S11314A005C080E303C080E401C080E5CF910895C6
S11314B08F929F92AF92BF92DF92EF92FF920F931F
S11314C01F93CF93DF93662309F463C04701580148
S11314D0C32FE22ED42EF62ED82F43E0E2DEB50140
S11314E0A401032E35E176956795579547953A956E
S11314F0D1F7302D81E08F0D682F8D2FD2DEB5010D
S1131500A401032E3DE076956795579547953A9546
S1131510D1F7302D407E8A2D8370482B486062E0DD
S11315206F0D8D2FBEDE77276B2D5A2D492D83E04D
S11315308F0D682F8D2FB5DE64E06F0D482D8D2F34
S1131540B0DE65E06F0D4D2D8D2FABDEDD2089F013
S11315500E2D1C2FC6E0CF0D46E04D0DE42EEF0CF2
S1131560F80141918F016C2F8D2F9BDECF5FCE113F
S1131570F7CF8F2D8595859585958595835061E069
S113158070E002C0660F771F8A95E2F760688D2FBE
S11315909BDEDF91CF911F910F91FF90EF90DF9031
S11315A0BF90AF909F908F900895CF93DF93C82FF3
S11315B050DE80EB0BD080E009D0D82F80E006D03D
S11315C08C2F5BDE8D2FDF91CF9108958EBD0DB4EE
S11315D007FEFDCF8EB5089581E58CBD81E08DBDFC
S11315E01EBC08951F920F920FB60F9211240BB6D2
S11315F00F922F938F939F93EF93FF938091C0004B
S11316002091C6008871E091D709EF5FEF71909146
S1131610D609E91739F0E093D709F0E0E652F64F1E
S1131620208301C082E08093D509FF91EF919F91BF
S11316308F912F910F900BBE0F900FBE0F901F90A4
S113164018951F920F920FB60F9211240BB60F929A
S11316502F938F939F93EF93FF938091C8002091D2
S1131660CE008871E0919209EF5FEF71909191093A
S1131670E91739F0E0939209F0E0EB56F64F208336
S113168001C082E080939009FF91EF919F918F9127
S11316902F910F900BBE0F900FBE0F901F901895B7
S11316A01F920F920FB60F9211240BB60F928F93C5
S11316B09F93EF93FF939091D9098091D80998173C
S11316C069F0E091D809EF5FEF71E093D809F0E099
S11316D0E650F64F80818093C60005C0E1ECF0E04F
S11316E080818F7D8083FF91EF919F918F910F90E7
S11316F00BBE0F900FBE0F901F9018951F920F9264
S11317000FB60F9211240BB60F928F939F93EF9302
S1131710FF939091940980919309981769F0E0914F
S11317209309EF5FEF71E0939309F0E0EB54F64F08
S113173080818093CE0005C0E9ECF0E080818F7D4C
S11317408083FF91EF919F918F910F900BBE0F902B
S11317500FBE0F901F9018951092D9091092D809B6
S11317601092D7091092D609E1E6F0E080E8808370
S113177010821092C50087E68093C40082E08093B3
S1131780C00088E18093C10086E08093C200089580
S113179090911A0A911115C02091D9092F5F2F71C8
S11317A09091D8092917E1F3E22FF0E0E650F64FC3
S11317B080832093D909E1ECF0E08081806280830A
S11317C008959130A1F4209194092F5F2F71909185
S11317D093092917E1F3E22FF0E0EB54F64F8083ED
S11317E020939409E9ECF0E080818062808308957D
S11317F08091C000881F8827881F08958091C600A3
S11318000895AA1BBB1B51E107C0AA1FBB1FA61743
S1131810B70710F0A61BB70B881F991F5A95A9F795
S113182080959095BC01CD010895EE0FFF1F002413
S1131830001C0BBE0790F691E02D0994FB01DC011E
S113184002C001900D9241505040D8F708950F9373
S11318501F93CF93DF93CDB7DEB72E970FB6F894CF
S1131860DEBF0FBECDBF0D891E898F89988D26E0FE
S11318702C831A83098397FF02C080E090E80197C4
S11318809E838D83AE01455E5F4F698D7A8DCE0157
S1131890019619D04D815E8157FD0AC02F8138858C
S11318A0421753070CF49A01F801E20FF31F108258
S11318B02E960FB6F894DEBF0FBECDBFDF91CF9149
S11318C01F910F9108952F923F924F925F926F92C2
S11318D07F928F929F92AF92BF92CF92DF92EF92BC
S11318E0FF920F931F93CF93DF93CDB7DEB72B9760
S11318F00FB6F894DEBF0FBECDBF6C017B018A0129
S1131900FC0117821682838181FFBFC1CE0101963B
S11319103C01F6019381F70193FD859193FF819139
S11319207F01882309F4ADC1853239F493FD859193
S113193093FF81917F01853221F4B60190E0D6D1E5
S1131940E8CF912C212C312CFFE1F315D8F08B3208
S113195079F038F4803279F08332A1F4232D2061B8
S11319601DC08D3261F0803369F4232D216016C0CF
S1131970832D8260382EE32DE4603E2E2AC0F32DA1
S1131980F8601DC037FC2DC020ED280F2A3040F030
S11319908E32B9F436FC75C1232D2064322E19C061
S11319A036FE06C08AE0989E200D1124922E11C0A6
S11319B0EAE02E9E200D1124222EF32DF0623F2EFC
S11319C008C08C3621F4832D8068382E02C08836F6
S11319D041F4F70193FD859193FF81917F0181117A
S11319E0B3CF982F9F7D9554933028F40C5F1F4FED
S11319F09FE399830DC0833631F0833771F08335CB
S1131A0009F055C020C0F801808189830E5F1F4F03
S1131A1088248394912C530112C02801F2E04F0EC4
S1131A20511CF801A080B18036FE03C0692D70E01E
S1131A3002C06FEF7FEFC5014ED14C018201F32D3F
S1131A40FF773F2E15C0280122E0420E511CF801F9
S1131A50A080B18036FE03C0692D70E002C06FEF34
S1131A607FEFC5012DD14C01F32DF0683F2E82018B
S1131A7033FC19C0822D90E088169906A0F4B601B3
S1131A8080E290E033D12A94F5CFF50137FC8591BB
S1131A9037FE81915F01B60190E028D121102A948C
S1131AA021E0821A91088114910479F7E1C0843607
S1131AB011F0893639F5F80137FE07C0608171816C
S1131AC0828193810C5F1F4F08C060817181072E52
S1131AD0000C880B990B0E5F1F4FF32DFF763F2EE2
S1131AE097FF09C090958095709561957F4F8F4FB2
S1131AF09F4FF0683F2E2AE030E0A30133D1882EB7
S1131B00861844C0853731F4232D2F7EB22E2AE067
S1131B1030E025C0932D997FB92E8F36C1F018F48B
S1131B20883579F0AEC0803719F0883721F0A9C024
S1131B30E92FE061BE2EB4FE0DC0FB2DF460BF2E74
S1131B4009C034FE0AC0292F2660B22E06C028E040
S1131B5030E005C020E130E002C020E132E0F801CD
S1131B60B7FE07C060817181828193810C5F1F4F32
S1131B7006C06081718180E090E00E5F1F4FA30179
S1131B80F1D0882E8618FB2DFF773F2E36FE0DC030
S1131B90232D2E7FA22E891458F434FE0BC032FC60
S1131BA009C0832D8E7EA82E05C0B82CA32C03C09B
S1131BB0B82C01C0B92CA4FE0FC0FE01E80DF11D24
S1131BC08081803321F49A2D997EA92E09C0A2FE2A
S1131BD006C0B394B39404C08A2D867809F0B394F4
S1131BE0A3FC10C0A0FE06C0B21480F4280C922CF2
S1131BF09B180DC0B21458F4B60180E290E076D080
S1131C00B394F8CFB21418F42B1802C0982C212CDA
S1131C10A4FE0FC0B60180E390E068D0A2FE16C017
S1131C20A1FC03C088E790E002C088E590E0B6011B
S1131C300CC08A2D867851F0A1FE02C08BE201C04F
S1131C4080E2A7FC8DE2B60190E050D0891430F414
S1131C50B60180E390E04AD09A94F8CF8A94F301D5
S1131C60E80DF11D8081B60190E040D08110F6CFDF
S1131C70222009F44ECEB60180E290E037D02A94B7
S1131C80F7CFF6018681978102C08FEF9FEF2B96E5
S1131C900FB6F894DEBF0FBECDBFDF91CF911F9179
S1131CA00F91FF90EF90DF90CF90BF90AF909F90F7
S1131CB08F907F906F905F904F903F902F900895FA
S1131CC0FC010590615070400110D8F78095909503
S1131CD08E0F9F1F0895FC01615070400190011008
S1131CE0D8F7809590958E0F9F1F08950F931F939B
S1131CF0CF93DF93FB01238121FD03C08FEF9FEF7F
S1131D002CC022FF16C04681578124813581421799
S1131D10530744F4A081B1819D012F5F3F4F31836C
S1131D2020838C93268137812F5F3F4F378326830F
S1131D3014C08B01EC01FB010084F185E02D0995B1
S1131D40892BE1F6D80116968D919C9117970196EF
S1131D5017969C938E931697CE01DF91CF911F9186
S1131D600F910895FA01AA27283051F1203181F109
S1131D70E8946F936E7F6E5F7F4F8F4F9F4FAF4F8F
S1131D80B1E03ED0B4E03CD0670F781F891F9A1FA2
S1131D90A11D680F791F8A1F911DA11D6A0F711D56
S1131DA0811D911DA11D20D009F468943F912AE062
S1131DB0269F11243019305D3193DEF6CF0108954A
S1131DC0462F4770405D4193B3E00FD0C9F7F6CF7B
S1131DD0462F4F70405D4A3318F0495D31FD405243
S1131DE0419302D0A9F7EACFB4E0A69597958795D9
S1131DF077956795BA95C9F70097610571050895B8
S1131E009B01AC010A2E0694579547953795279563
S1131E10BA95C9F7620F731F841F951FA01D0895FB
S1071E20F894FFCF60
S1131E241E003A01F2014501F101C701AA01990218
S1131E340300280005040304000300020001000059
S1131E44000A0A000028C82573202573004572720D
S1131E546F7200494E464F004572726F7221002121
S1131E645741524E494E4721004552524F52002386
S1131E74234552524F5223230043414E425553208B
S1131E8431204E6F20526573706F6E736500434149
S1131E944E4255532031204E6F20526573706F6E3D
S1131EA47365210043414E42555320312043524926
S1131EB4544943414C204E4F20524553504F4E53A6
S1131EC4450043414E4255532031204D616C666FA9
S1131ED4726D6564205061636B65740043414E42C6
S1131EE455532031204D616C666F726D65642050CA
S1131EF461636B6574210043414E42555320312084
S1131F04435249544943414C204D414C464F524D50
S1131F144544205041434B45540043414E4255539C
S1131F242032204E6F20526573706F6E73650043C8
S1131F34414E4255532032204E6F20526573706FC8
S1131F446E7365210043414E42555320322043525F
S1131F5449544943414C204E4F20524553504F4E0F
S1131F6453450043414E4255532032204D616C6623
S1131F746F726D6564205061636B65740043414EF8
S1131F844255532032204D616C666F726D65642036
S1131F945061636B6574210043414E4255532032B2
S1131FA420435249544943414C204D414C464F52DD
S1131FB44D4544205041434B45540043414E425502
S1131FC4532033204E6F20526573706F6E73650017
S1131FD443414E4255532033204E6F205265737053
S1131FE46F6E7365210043414E42555320332043A1
S1131FF45249544943414C204E4F20524553504F6B
S11320044E53450043414E4255532033204D616C99
S1132014666F726D6564205061636B65740043413F
S11320244E4255532033204D616C666F726D656466
S1132034205061636B6574210043414E4255532023
S11320443320435249544943414C204D414C464F5B
S1132054524D4544205041434B45540047656172F9
S1132064626F782025642054656D7065726174759F
S11320747265204E6F726D616C0047656172626FA8
S1132084782025642054656D706572617475726579
S11320942041626E6F726D616C6C79204C6F772194
S11320A40047454152424F582025642054454D5021
S11320B44552415455524520435249544943414C95
S11320C44C59204C4F570047656172626F78202544
S11320D4642054656D706572617475726520416223
S11320E46E6F726D616C6C79204869676821004772
S11320F4454152424F582025642054454D50455281
S1132104415455524520435249544943414C4C5936
S11321142048494748005261646961746F722025FC
S1132124642054656D7065726174757265204E6FB8
S1132134726D616C005261646961746F722025640C
S11321442054656D70657261747572652041626EA8
S11321546F726D616C6C79204C6F7721005241442D
S11321644941544F522025642054454D5045524111
S11321745455524520435249544943414C4C5920E7
S11321844C4F57005261646961746F722025642056
S113219454656D70657261747572652041626E6F09
S11321A4726D616C6C7920486967682100524144FE
S11321B44941544F522025642054454D50455241C1
S11321C45455524520435249544943414C4C592097
S11321D448494748004272616B6573202564205066
S11321E472657373757265204E6F726D616C004213
S11321F472616B6573202564205072657373757204
S1132204652041626E6F726D616C6C79204C6F77DE
S113221421004252414B45532025642050524553DA
S11322245355524520435249544943414C4C592037
S11322344C4F57004272616B6573202564205072C1
S11322446573737572652041626E6F726D616C6C37
S113225479204869676821004252414B455320253F
S113226464205052455353555245204352495449CE
S113227443414C4C592048494748004272616B65BC
S113228473202564205072657373757265205761D9
S1132294726E6E696E6721004252414B455320258C
S11322A4642050524553535552452043524954498E
S11322B443414C21004272616B65732025642050B4
S11322C46F736974696F6E204E6F726D616C004236
S11322D472616B657320256420506F736974696F30
S11322E46E2041626E6F726D616C6C79204C6F77F5
S11322F421004252414B455320256420504F5349F9
S113230454494F4E20435249544943414C4C59205B
S11323144C4F57004272616B657320256420506FE3
S1132324736974696F6E205761726E696E672100F8
S11323344252414B455320256420504F534954493C
S11323444F4E20435249544943414C0053746565EC
S113235472696E6720416E676C65204E6F726D61A1
S11323646C005354454552494E4720414E474C4511
S1132374204F555453494445204C4546542050411C
S113238452414D45544552005354454552494E47D4
S113239420414E474C45204F5554534944452052FF
S11323A44947485420504152414D455445520054E4
S11323B468726F74746C652046756E6374696F6EAD
S11323C4204E6F726D616C005448524F54544C4506
S11323D420435249544943414C204D414C46554EA7
S11323E44354494F4E0043617220697320757072DF
S11323F4696768740043415220484153204F56454D
S1132404525455524E4544004261747465727920A5
S1132414256420436861726765204E6F726D616C38
S11324240042617474657279202564204368617282
S11324346765204C6F770042415454455259202516
S11324446420434841524745204352495449434137
S11324544C00426174746572792025642054656D5E
S11324647065726174757265204E6F726D616C0073
S1132474426174746572792025642054656D7065B5
S11324847261747572652041626E6F726D616C6CF9
S113249479204C6F772100424154544552592025E8
S11324A4642054454D50455241545552452043529D
S11324B449544943414C4C59204C4F570042617490
S11324C4746572792025642054656D706572617435
S11324D47572652041626E6F726D616C6C7920480F
S11324E469676821004241545445525920256420A7
S11324F454454D5045524154555245204352495434
S10F25044943414C4C59204849474800C9
S9030000FC
