S011000063635F6D65726765322E73726563AC
S1130000F6C000000C941C090C94DA080EC1000020
S11300100CC100000AC1000008C1000006C10000B4
S113002004C100000C945C0900C10000FEC0000083
S1130030FCC00000FAC00000F8C00000F6C00000D8
S1130040F4C000000C94D008F0C00000EEC0000022
S1130050ECC000000C94A908E8C00000E6C0000051
S1130060E4C000000C94660B0C94C40BDEC00000CA
S1130070DCC00000DAC00000D8C00000D6C0000018
S1130080D4C00000D2C00000D0C00000CEC0000028
S11300900C94950B0C94F20BC8C00000C6C0000071
S11300A0C4C00000C2C00000C0C00000BEC0000048
S11300B0BCC00000BAC00000B8C00000B6C0000058
S11300C0B4C00000B2C00000B0C00000AEC0000068
S11300D0ACC00000AAC00000A8C00000A6C0000078
S11300E0A4C0000010027104CD02E80203031E0341
S11300F0390354036F038A03A503C003DB03ED0331
S1130100FF03110423043E045804710471047104B0
S11301107104710471047104710471047104710433
S11301207104710471047104710471047104710423
S11301307104710471047104710471047104710413
S11301407104710471047104710471047104710403
S113015071047104710471047104710471047104F3
S113016071047104710471047104710471047104E3
S113017071047104710471047104710471047104D3
S113018071047104710471047104710471047104C3
S113019071047104710471047104710471047104B3
S11301A071047104710471047104710471047104A3
S11301B07104710471047104710471047104710493
S11301C071042B02460271047104710471047104F8
S11301D071047104710461027C027104710471047C
S11301E0710471047104710471049702B202112440
S11301F01FBECFEFD1E2DEBFCDBF18E0A0E0B2E07A
S1130200EAEFFEE100E00BBF02C007900D92A23FAF
S1130210B107D9F72AE0A2EFB8E001C01D92A230DD
S1130220B207E1F745D60C947B0FEACEEAE7F0E09B
S11302308081806880830895EAE7F0E09081987F68
S113024090839081892B80830895ECE7F0E090817E
S11302509C7F9083208130E4839FC0011124822BF2
S113026080830895CF93C62F10927A00ECE7F0E0D4
S113027090819F7D9083E0DF8C2FE7DFD7DFCF91E4
S11302800895ECE7F0E09081907E9083883060F0F0
S1130290EBE7F0E0908198609083ECE7F0E09081E8
S11302A08850892B80830AC0EBE7F0E09081977F28
S11302B09083ECE7F0E09081892B8083EAE7F0E01B
S11302C0808180648083808186FDFDCF8091780069
S11302D09091790008958F929F92AF92BF92CF929E
S11302E0DF92EF92FF920F931F93CF93DF93C82F68
S11302F0D62F6A01480159010E94B30A850174018D
S113030096014D2F682F8C2F0E94CC0ADF91CF913C
S11303101F910F91FF90EF90DF90CF90BF90AF901F
S11303209F908F900895AF92BF92CF92DF92EF92F9
S1130330FF920F931F93CF93C82F7B016A0159013A
S11303400E94490B8295869586958370823061F070
S1130350833091F08130E9F485019601A70161E6CB
S11303608C2F0E94200A15C085019601A70161E720
S11303708C2F0E94200A0DC085019601A70161E619
S11303808C2F0E94200A9601A70161E78C2F0E94FE
S1130390200ACF911F910F91FF90EF90DF90CF90A3
S11303A0BF90AF9008950F931F93CF93DF93182FAF
S11303B0092F5F934F937F936F931F9288E28F93DC
S11303C0D0E0DF93C0E0CF930E94920CDF93CF93F1
S11303D00F931F938CE292E09F938F931F9282E37B
S11303E08F93CF93DF930E94920C62E370E08D2F82
S11303F09C2F41D58DB79EB742960FB6F8949EBFF9
S11304000FBE8DBFDF91CF911F910F910895653875
S1130410710508F066C2FB01EE58FF4F0C94800C86
S11304208230910561F08330910579F0019709F0EC
S113043058C262E372E088E392E0B5CF08956DE3B9
S113044072E084E492E0AFCF08956EE472E084E554
S113045092E0A9CF08958230910561F0833091052F
S113046079F0019709F03DC26EE572E088E392E00D
S11304709ACF089563E772E084E492E094CF0895FC
S113048069E872E084E592E08ECF089582309105A8
S113049061F08330910579F0019709F022C267EA8F
S11304A072E088E392E07FCF089561EC72E084E427
S11304B092E079CF08956CED72E084E592E073CF19
S11304C008958230910561F08330910579F00197A8
S11304D009F007C26FEF72E088E392E064CF0895F9
S11304E064E173E084E492E05ECF08956AE273E02D
S11304F084E592E058CF08958230910561F083300D
S1130500910579F0019709F0ECC168E473E088E3A0
S113051092E049CF089562E673E084E492E043CF29
S113052008956DE773E084E592E03DCF089582304D
S1130530910561F08330910579F0019709F0D1C1FB
S113054060EA73E088E392E02ECF089565EB73E0F0
S113055084E492E028CF08956BEC73E084E592E0A4
S113056022CF08958230910561F08330910579F0AE
S1130570019709F0B6C169EE73E088E392E013CF06
S1130580089563E074E084E492E00DCF08956EE191
S113059074E084E592E007CF08958230910561F01C
S11305A08330910579F0019709F09BC161E474E00F
S11305B088E392E0F8CE08956FE574E084E492E075
S11305C0F2CE089566E874E084E592E0ECCE0895F6
S11305D08230910561F08330910579F0019709F03B
S11305E080C161E474E088E392E0DDCE08956CEAB2
S11305F074E084E492E0D7CE089564ED74E084E579
S113060092E0D1CE08958230910561F08330910556
S113061079F0019709F065C16BEF74E088E392E02B
S1130620C2CE08956AE175E084E492E0BCCE0895F8
S113063062E475E084E592E0B6CE089582309105D7
S113064061F08330910579F0019709F04AC16BEFAD
S113065074E088E392E0A7CE089569E675E084E447
S113066092E0A1CE089562E975E084E592E09BCE24
S113067008958230910561F08330910579F00197F6
S113068009F02FC16AEB75E088E392E08CCE0895FF
S113069064ED75E084E492E086CE089567EF75E03A
S11306A084E592E080CE08958230910561F0833034
S11306B0910579F0019709F014C16AEB75E088E3BC
S11306C092E071CE089569E176E084E492E06BCE25
S11306D008956DE376E084E592E065CE0895823076
S11306E0910561F08330910579F0019709F0F9C023
S11306F06AEB75E088E392E056CE089560E676E012
S113070084E492E050CE08956DE776E084E592E0CB
S11307104ACE08958230910561F08330910579F0D5
S1130720019709F0DEC06AE976E088E392E03BCE07
S1130730089564EB76E084E492E035CE089567EDA5
S113074076E084E592E02FCE08958230910561F041
S11307508330910579F0019709F0C3C06AEB75E025
S113076088E392E020CE089569E176E084E492E0A3
S11307701ACE08956DE376E084E592E014CE0895F0
S11307808230910561F08330910579F0019709F089
S1130790A8C06AE976E088E392E005CE089569EF9F
S11307A076E084E492E0FFCD089565E177E084E5A6
S11307B092E0F9CD08958130910519F0039739F04D
S11307C0089561E377E088E392E0EDCD089567E46E
S11307D077E084E592E0E7CD08958130910519F042
S11307E0039739F0089561E377E088E392E0DBCD85
S11307F008956DE677E084E592E0D5CD08958130E3
S1130800910519F0039739F0089564E977E088E3D6
S113081092E0C9CD08956DEA77E084E592E0C3CD16
S113082008958130910519F0039739F008956BEC20
S113083077E088E392E0B7CD08956AED77E084E548
S113084092E0B1CD08958230910561F08330910535
S113085079F0019709F045C06DEE77E088E392E006
S1130860A2CD089566E078E084E492E09CCD0895FA
S11308706CE178E084E592E096CD089582309105AC
S113088059F08330910571F0019759F567E378E0E9
S113089088E392E088CD089565E578E084E492E009
S11308A082CD08956CE778E084E592E07CCD0895EC
S11308B08230910559F08330910571F0019789F4E4
S11308C067E378E088E392E06ECD089562EA78E029
S11308D084E492E068CD08956AEC78E084E592E0DF
S11308E062CD089540E050E092CD0895E9E6F0E04D
S11308F080818A60808383E08DBB81E0809368007F
S113090080E880936B00089582EC8DB91EB887E06F
S11309108093010183E08093020187E684B981E03A
S113092085B998E190930A0110920B0188EC8AB979
S11309301AB888E087B918B810920401E5E0F1E02C
S113094080818064808391B980E182B980E2809360
S11309500701CCCF0895D8DFB3D680E09BE470D7ED
S113096061E086E07FDC81E047D582E045D584E024
S113097043D5E5E0F1E0808180648083089584B507
S1130980826084BD85B5836085BD8AEF87BDEEE650
S1130990F0E0808182608083109280008DE08093FB
S11309A0810088E99AE3909389008093880082E02B
S11309B080936F000895FC01808191816817790705
S11309C0D8F084179507D0F0E0911602F091170241
S11309D09F01241B350BA9019C01240F351FA4E69C
S11309E0A29FC001A39F900D1124640F751F6E0F69
S11309F07F1F72D7862F089584E6089580E00895B6
S1130A000F931F93CF93DF93EC010091580910E0EB
S1130A1085E090E036DC000F111FF801EC5BF64F27
S1130A20918380831091580981E0810F8093580944
S1130A3082E090E026DCE12FF0E0EE0FFF1FE05DA6
S1130A40F64F9183808380915809883010F010927A
S1130A505809E4E4F9E0A0E3B9E064E579E080E072
S1130A6090E020E030E041915191240F351F4D91E9
S1130A705D91840F951FE617F707A9F7369527951B
S1130A8036952795369527953983288360911802E2
S1130A907091190240910A0250910B02461B570BA8
S1130AA024173507D0F19695879596958795969551
S1130AB087954091060250910702461B570B8417F5
S1130AC0950768F140910C0250910D02461B570B9B
S1130AD04217530730F14091080250910902461B16
S1130AE0570B48175907F8F0281B390BC9019923EC
S1130AF024F488279927821B930B20915C09309159
S1130B005D098217930788F0209100023091010259
S1130B102817390760F080E00BC081E009C081E04C
S1130B2007C082E005C082E003C083E001C083E027
S1130B30DF91CF911F910F910895EF92FF921F9330
S1130B40CF93DF9300D0CDB7DEB77C011A82198230
S1130B50CE01019655DF182F40910A0250910B02E5
S1130B6060910C0270910D02CE01019624DFF70111
S1130B708083123051F0133071F0113089F46EE03B
S1130B8070E082E090E0AEDE0BC06EE070E082E0E8
S1130B9090E0A8DE05C06EE070E082E090E0A2DEA6
S1130BA0812F0F900F90DF91CF911F91FF90EF90C5
S1130BB008950F931F93CF93DF93EC0100912F09B6
S1130BC010E08AE090E05DDB000F111FF801E55EA4
S1130BD0F64F9183808310912F0981E0810F8093D8
S1130BE02F0988E090E04DDBE12FF0E0EE0FFF1FCE
S1130BF0E95FF64F9183808380912F09883010F04C
S1130C0010922F09EBE1F9E0A7E0B9E06BE279E09B
S1130C1080E090E020E030E041915191240F351FB5
S1130C204D915D91840F951FE617F707A9F7369547
S1130C3027953695279536952795AC015695479572
S1130C405695479556954795B901641B750BCB018D
S1130C50992324F488279927861B970BFC01398351
S1130C602883609118027091190280911202909168
S1130C701302861B970B2817390758F0809114022A
S1130C8090911502860F971F8217930720F482E034
S1130C9003C081E001C080E0209110023091110274
S1130CA0261B370B4217530710F484600AC02091A7
S1130CB0140230911502620F731F6417750708F44C
S1130CC0886020915C0930915D09E217F30738F0E0
S1130CD020910002309101022E173F0708F4806131
S1130CE0DF91CF911F910F910895EF92FF921F937F
S1130CF0CF93DF9300D0CDB7DEB77C011A8219827F
S1130D00CE01019656DF182F409112025091130222
S1130D106091140270911502CE0101964CDEF70128
S1130D208083123051F0133071F0113089F469E08E
S1130D3070E082E090E0D6DD0BC06AE070E082E013
S1130D4090E0D0DD05C06BE070E082E090E0CADDA9
S1130D50812F0F900F90DF91CF911F91FF90EF9013
S1130D6008951F93CF93DF93EC011091060981E05E
S1130D70810F8093060984E090E083DAE12FF0E0AC
S1130D80EE0FFF1FEE50F74F918380838091060989
S1130D90883010F010920609E2EFF8E042E059E0E2
S1130DA080E090E021913191820F931FE417F507C1
S1130DB0C9F79C013695279536952795369527953D
S1130DC039832883E0911802F0911902609102029C
S1130DD0709103026E1B7F0B81E02617370708F022
S1130DE080E040910402509105024E0F5F1F4217AC
S1130DF0530708F48E5FDF91CF911F910895EF920E
S1130E00FF921F93CF93DF9300D0CDB7DEB77C0161
S1130E101A821982CE010196A4DF182F4091020292
S1130E20509103026091040270910502CE01019673
S1130E30C2DDF7018083113019F0123039F00BC094
S1130E406DE070E082E090E04DDD05C06CE070E0A4
S1130E5082E090E047DD812F0F900F90DF91CF91DA
S1130E601F91FF90EF900895E8E0F1E0908180E217
S1130E70892780830895FF920F931F93CF93DF9365
S1130E808C01F62E84E4F8D4FF2041F0E8010F0D24
S1130E90111D8991F1D4C017D107D9F78DE0ECD495
S1130EA08AE0EAD4DF91CF911F910F91FF900895CA
S1130EB052DD65DD10926D09109271092FEF89E6FC
S1130EC098E1215080409040E1F700C00000789400
S1130ED0FFCF0F931F93CF93DF931F92CDB7DEB74E
S1130EE08091030186FD22C081E080937309809183
S1130EF07509909176099C012F5F3F4F30937609D5
S1130F0020937509813D9740C8F08091740981113F
S1130F1015C081E0809374099091720989278093A8
S1130F207209813059F4809371090CC010927309CD
S1130F3010927409109276091092750980917109C2
S1130F408130A1F480916F09909170099C012F5F09
S1130F503F4F3093700920936F09813D974030F0E3
S1130F60109271091092700910926F0980915E09B4
S1130F7090915F090A9778F010925F0910925E09C8
S1130F8010922B0206E616E626E634E045E659E022
S1130F9068E081E0A0D98091210290912202C39758
S1130FA068F0109222021092210201E010E020E485
S1130FB038E043E252E068E084E08DD980911F027A
S1130FC090912002C39768F01092200210921F02A1
S1130FD001E010E020E039E040E659E065E082E01D
S1130FE07AD980911D0290911E028536910568F090
S1130FF010921E0210921D0201E010E020E838E079
S113100040E659E065E082E066D980915E099091FE
S11310105F09019690935F0980935E098091210294
S11310209091220201969093220280932102809152
S11310301F029091200201969093200280931F0238
S113104080911D0290911E02019690931E0280933E
S11310501D0280911C028B3050F0CE0101966DDD93
S1131060811103C0898180935A0910921C028091D6
S11310701B028B3050F0CE01019637DE811103C084
S113108089818093590910921B0280911A028B3036
S113109050F0CE010196B3DE811103C089818093A3
S11310A05B0910921A0280911C028F5F80931C02CC
S11310B080911B028F5F80931B0280911A028F5FC5
S11310C080931A0220915909422F50E080910E0218
S11310D090910F028417950720F481E080936E09A4
S11310E002C010926E0960915A09E5E6F9E0608346
S11310F0218350915B09528340917209438330915B
S11311006F09348380917109858390916E09968368
S1131110E3E2F2E060832183528343833483858353
S11311209683E0E6F9E040E2849F9001112440E1D7
S1131130949FC0011124822B8F6C808384E6818369
S11311408283838384830F90DF91CF911F910F91CA
S113115008951F920F920FB60F9211240BB60F929F
S11311602F933F934F935F936F937F938F939F93AB
S1131170AF93BF93EF93FF93ACDEFF91EF91BF91D9
S1131180AF919F918F917F916F915F914F913F911B
S11311902F910F900BBE0F900FBE0F901F901895BC
S11311A01F920F920FB60F9211240F900FBE0F9043
S11311B01F9018951F920F920FB60F9211240BB621
S11311C00F922F933F934F935F936F937F938F93DC
S11311D09F93AF93BF93EF93FF93CF93DF93CDB7D9
S11311E0DEB72D97DEBFCDBF81E080932B029E0139
S11311F0275F3F4FAE014F5F5F4FBE01635F7F4F7D
S113120092D82D960FB6F894DEBF0FBECDBFDF91F6
S1131210CF91FF91EF91BF91AF919F918F917F916A
S11312206F915F914F913F912F910F900BBE0F9053
S11312300FBE0F901F9018951F920F920FB60F922A
S113124011240BB60F922F933F934F935F936F9399
S11312507F938F939F93AF93BF93EF93FF93CF931A
S1131260DF93CDB7DEB72D97DEBFCDBF9E01275FDD
S11312703F4FAE014F5F5F4FBE01635F7F4F82E020
S113128052D82D960FB6F894DEBF0FBECDBFDF91B6
S1131290CF91FF91EF91BF91AF919F918F917F91EA
S11312A06F915F914F913F912F910F900BBE0F90D3
S11312B00FBE0F901F9018951F920F920FB60F92AA
S11312C011240BB60F922F933F934F935F936F9319
S11312D07F938F939F93AF93BF93EF93FF93CF939A
S11312E0DF93CDB7DEB72D97DEBFCDBFBDDD9E0149
S11312F0275F3F4FAE014F5F5F4FBE01635F7F4F7C
S113130084E011D82D960FB6F894DEBF0FBECDBF82
S1131310DF91CF91FF91EF91BF91AF919F918F9109
S11313207F916F915F914F913F912F910F900BBEE1
S11313300F900FBE0F901F901895823051F084309B
S113134071F0813069F4E2E0F1E080818E7F808386
S11313500895E2E0F1E080818D7F808308952898EC
S11313600895823051F0843071F0813069F4E2E004
S1131370F1E08081816080830895E2E0F1E0808182
S1131380826080830895289A08951F93CF93DF93F2
S1131390C82F162FD42FD1DF82E08CD1812F8AD190
S11313A08D2F88D18C2FDDDFDF91CF911F91089590
S11313B0CF93DF93C82FD62FC0DF8D2F7BD18C2FF7
S11313C0D0DFDF91CF9108950F931F93CF93DF93D5
S11313D0C82F062FD42F122FB0DF85E06BD1802FBA
S11313E069D1812F67D18D2F65D18C2FBADFDF9121
S11313F0CF911F910F910895CF93C82F60ECD8DF40
S113140020EE40E86FE08C2FDFDF44E06AE28C2FAF
S1131410BCDF4AEC69E28C2FB8DF41E068E28C2F34
S1131420B4DF43E06BE28C2FB0DF41E06DE08C2F42
S1131430ACDF28EE48E06FE08C2FC6DFCF91089533
S11314407F928F929F92AF92BF92CF92DF92EF9250
S1131450FF920F931F93CF93DF93CDB7DEB72D97F2
S11314600FB6F894DEBF0FBECDBF782E4A015901E6
S1131470613728F40F2EF0E9FF2EF02D04C00F2E53
S1131480F4E9FF2EF02D872D58DF8F2D13D1CE01D7
S113149001967C016E019EE0C90ED11C80E00AD148
S11314A0F70181937F01EC15FD05C1F72A8189813C
S11314B090E0A0E0B0E0072E75E1880F991FAA1F05
S11314C0BB1F7A95D1F7702D3B81932B3C81832BE5
S11314D0422F407E50E060E070E0032E3DE0440F78
S11314E0551F661F771F3A95D1F7302D842B952B06
S11314F0A62BB72B2370A22BF80180839183A283A0
S1131500B3834D814F70F401408350E0BE016A5FA4
S11315107F4FC501FED1872D24DF2D960FB6F89499
S1131520DEBF0FBECDBFDF91CF911F910F91FF9012
S1131530EF90DF90CF90BF90AF909F908F907F906F
S11315400895CF93DF93C82FD62FF7DE83E0B2D070
S11315508D2FB0D080E0AED0D82F8C2F02DF8D2F0E
S1131560DF91CF910895CF93C82F60E3EADF83FF23
S11315700CC060E48C2FE5DF83FF09C060E58C2F8D
S1131580E0DF83FF06C080E005C080E303C080E4A1
S113159001C080E5CF9108958F929F92AF92BF9240
S11315A0DF92EF92FF920F931F93CF93DF93662303
S11315B009F463C047015801C32FE22ED42EF62E3E
S11315C0D82F43E0E2DEB501A401032E35E1769580
S11315D06795579547953A95D1F7302D81E08F0D52
S11315E0682F8D2FD2DEB501A401032E3DE0769540
S11315F06795579547953A95D1F7302D407E8A2DBA
S11316008370482B486062E06F0D8D2FBEDE772714
S11316106B2D5A2D492D83E08F0D682F8D2FB5DE4C
S113162064E06F0D482D8D2FB0DE65E06F0D4D2DFC
S11316308D2FABDEDD2089F00E2D1C2FC6E0CF0DE3
S113164046E04D0DE42EEF0CF80141918F016C2F13
S11316508D2F9BDECF5FCE11F7CF8F2D859585958E
S113166085958595835061E070E002C0660F771F11
S11316708A95E2F760688D2F9BDEDF91CF911F91F1
S11316800F91FF90EF90DF90BF90AF909F908F905D
S11316900895CF93DF93C82F50DE80EB0BD080E00A
S11316A009D0D82F80E006D08C2F5BDE8D2FDF9100
S11316B0CF9108958EBD0DB407FEFDCF8EB508956C
S11316C081E58CBD81E08DBD1EBC08951F920F92F3
S11316D00FB60F9211240BB60F922F938F939F93F3
S11316E0EF93FF938091C0002091C6008871E09130
S11316F0BE09EF5FEF719091BD09E91739F0E093EE
S1131700BE09F0E0EF53F64F208301C082E08093DE
S1131710BC09FF91EF919F918F912F910F900BBE78
S11317200F900FBE0F901F9018951F920F920FB637
S11317300F9211240BB60F922F938F939F93EF93D5
S1131740FF938091C8002091CE008871E0917909BF
S1131750EF5FEF7190917809E91739F0E093790917
S1131760F0E0E458F64F208301C082E080937709CB
S1131770FF91EF919F918F912F910F900BBE0F903E
S11317800FBE0F901F9018951F920F920FB60F92D5
S113179011240BB60F928F939F93EF93FF93909125
S11317A0C0098091BF09981769F0E091BF09EF5F04
S11317B0EF71E093BF09F0E0EF51F64F8081809321
S11317C0C60005C0E1ECF0E080818F7D8083FF914D
S11317D0EF919F918F910F900BBE0F900FBE0F90C2
S11317E01F9018951F920F920FB60F9211240BB6EB
S11317F00F928F939F93EF93FF9390917B09809126
S11318007A09981769F0E0917A09EF5FEF71E09334
S11318107A09F0E0E456F64F80818093CE0005C04B
S1131820E9ECF0E080818F7D8083FF91EF919F91BF
S11318308F910F900BBE0F900FBE0F901F901895B5
S11318401092C0091092BF091092BE091092BD09EE
S1131850E1E6F0E080E8808310821092C50087E61C
S11318608093C40082E08093C00088E18093C1002B
S113187086E08093C20008959091010A911115C0E9
S11318802091C0092F5F2F719091BF092917E1F3AF
S1131890E22FF0E0EF51F64F80832093C009E1EC92
S11318A0F0E080818062808308959130A1F42091DA
S11318B07B092F5F2F7190917A092917E1F3E22FA9
S11318C0F0E0E456F64F808320937B09E9ECF0E0E6
S11318D08081806280830895AA1BBB1B51E107C0ED
S11318E0AA1FBB1FA617B70710F0A61BB70B881FAC
S11318F0991F5A95A9F780959095BC01CD0108953B
S1131900EE0FFF1F0024001C0BBE0790F691E02D84
S11319100994FB01DC0102C001900D92415050403A
S1131920D8F708950F931F93CF93DF93CDB7DEB706
S11319302E970FB6F894DEBF0FBECDBF0D891E895A
S11319408F89988D26E02C831A83098397FF02C020
S113195080E090E801979E838D83AE01455E5F4FE2
S1131960698D7A8DCE01019619D04D815E8157FD26
S11319700AC02F813885421753070CF49A01F801E5
S1131980E20FF31F10822E960FB6F894DEBF0FBE3F
S1131990CDBFDF91CF911F910F9108952F923F9268
S11319A04F925F926F927F928F929F92AF92BF926B
S11319B0CF92DF92EF92FF920F931F93CF93DF9317
S11319C0CDB7DEB72B970FB6F894DEBF0FBECDBFF1
S11319D06C017B018A01FC0117821682838181FFDD
S11319E0BFC1CE0101963C01F6019381F70193FD3D
S11319F0859193FF81917F01882309F4ADC18532DC
S1131A0039F493FD859193FF81917F01853221F40F
S1131A10B60190E0D6D1E8CF912C212C312CFFE1F6
S1131A20F315D8F08B3279F038F4803279F08332C0
S1131A30A1F4232D20611DC08D3261F0803369F43F
S1131A40232D216016C0832D8260382EE32DE4609F
S1131A503E2E2AC0F32DF8601DC037FC2DC020EDAA
S1131A60280F2A3040F08E32B9F436FC75C1232D8C
S1131A702064322E19C036FE06C08AE0989E200DDE
S1131A801124922E11C0EAE02E9E200D1124222E44
S1131A90F32DF0623F2E08C08C3621F4832D80682C
S1131AA0382E02C0883641F4F70193FD859193FFE7
S1131AB081917F018111B3CF982F9F7D95549330ED
S1131AC028F40C5F1F4F9FE399830DC0833631F0D8
S1131AD0833771F0833509F055C020C0F801808147
S1131AE089830E5F1F4F88248394912C530112C065
S1131AF02801F2E04F0E511CF801A080B18036FE9F
S1131B0003C0692D70E002C06FEF7FEFC5014ED1B5
S1131B104C018201F32DFF773F2E15C0280122E0EE
S1131B20420E511CF801A080B18036FE03C0692D1D
S1131B3070E002C06FEF7FEFC5012DD14C01F32D92
S1131B40F0683F2E820133FC19C0822D90E0881684
S1131B509906A0F4B60180E290E033D12A94F5CF3F
S1131B60F50137FC859137FE81915F01B60190E064
S1131B7028D121102A9421E0821A91088114910419
S1131B8079F7E1C0843611F0893639F5F80137FE6A
S1131B9007C060817181828193810C5F1F4F08C0EF
S1131BA060817181072E000C880B990B0E5F1F4F0B
S1131BB0F32DFF763F2E97FF09C090958095709581
S1131BC061957F4F8F4F9F4FF0683F2E2AE030E0A2
S1131BD0A30133D1882E861844C0853731F4232DD0
S1131BE02F7EB22E2AE030E025C0932D997FB92EA6
S1131BF08F36C1F018F4883579F0AEC0803719F00B
S1131C00883721F0A9C0E92FE061BE2EB4FE0DC0D3
S1131C10FB2DF460BF2E09C034FE0AC0292F2660B4
S1131C20B22E06C028E030E005C020E130E002C05A
S1131C3020E132E0F801B7FE07C060817181828142
S1131C4093810C5F1F4F06C06081718180E090E03A
S1131C500E5F1F4FA301F1D0882E8618FB2DFF774E
S1131C603F2E36FE0DC0232D2E7FA22E891458F44C
S1131C7034FE0BC032FC09C0832D8E7EA82E05C015
S1131C80B82CA32C03C0B82C01C0B92CA4FE0FC0DF
S1131C90FE01E80DF11D8081803321F49A2D997E97
S1131CA0A92E09C0A2FE06C0B394B39404C08A2D21
S1131CB0867809F0B394A3FC10C0A0FE06C0B21449
S1131CC080F4280C922C9B180DC0B21458F4B60161
S1131CD080E290E076D0B394F8CFB21418F42B18C5
S1131CE002C0982C212CA4FE0FC0B60180E390E022
S1131CF068D0A2FE16C0A1FC03C088E790E002C031
S1131D0088E590E0B6010CC08A2D867851F0A1FEDA
S1131D1002C08BE201C080E2A7FC8DE2B60190E034
S1131D2050D0891430F4B60180E390E04AD09A94FC
S1131D30F8CF8A94F301E80DF11D8081B60190E09B
S1131D4040D08110F6CF222009F44ECEB60180E2B5
S1131D5090E037D02A94F7CFF6018681978102C0AC
S1131D608FEF9FEF2B960FB6F894DEBF0FBECDBF5B
S1131D70DF91CF911F910F91FF90EF90DF90CF9063
S1131D80BF90AF909F908F907F906F905F904F9097
S1131D903F902F900895FC01059061507040011010
S1131DA0D8F7809590958E0F9F1F0895FC01615080
S1131DB0704001900110D8F7809590958E0F9F1F69
S1131DC008950F931F93CF93DF93FB01238121FD8C
S1131DD003C08FEF9FEF2CC022FF16C046815781AE
S1131DE0248135814217530744F4A081B1819D01B8
S1131DF02F5F3F4F318320838C93268137812F5F60
S1131E003F4F3783268314C08B01EC01FB01008410
S1131E10F185E02D0995892BE1F6D80116968D916F
S1131E209C911797019617969C938E931697CE01C3
S1131E30DF91CF911F910F910895FA01AA272830BD
S1131E4051F1203181F1E8946F936E7F6E5F7F4F83
S1131E508F4F9F4FAF4FB1E03ED0B4E03CD0670FFF
S1131E60781F891F9A1FA11D680F791F8A1F911D52
S1131E70A11D6A0F711D811D911DA11D20D009F4A2
S1131E8068943F912AE0269F11243019305D3193E4
S1131E90DEF6CF010895462F4770405D4193B3E0CD
S1131EA00FD0C9F7F6CF462F4F70405D4A3318F074
S1131EB0495D31FD4052419302D0A9F7EACFB4E025
S1131EC0A6959795879577956795BA95C9F70097DD
S1131ED06105710508959B01AC010A2E069457957E
S1131EE0479537952795BA95C9F7620F731F841FD5
S10D1EF0951FA01D0895F894FFCF7C
S1131EFA1E00960084033A01F2014501F10107002C
S1131F0AEF01D20199020300280007060503000223
S1131F1A00010000000A0A000028C80125732025D0
S1131F2A73004572726F7200494E464F00457272D1
S1131F3A6F722100215741524E494E4721004552A2
S1131F4A524F520023234552524F522323004341F6
S1131F5A4E4255532031204E6F20526573706F6E76
S1131F6A73650043414E4255532031204E6F20522F
S1131F7A6573706F6E7365210043414E4255532059
S1131F8A3120435249544943414C204E4F20524533
S1131F9A53504F4E53450043414E4255532031202E
S1131FAA4D616C666F726D6564205061636B657414
S1131FBA0043414E4255532031204D616C666F7285
S1131FCA6D6564205061636B6574210043414E4220
S1131FDA5553203120435249544943414C204D41E1
S1131FEA4C464F524D4544205041434B45540043BF
S1131FFA414E4255532032204E6F20526573706F02
S113200A6E73650043414E4255532032204E6F2071
S113201A526573706F6E7365210043414E42555386
S113202A203220435249544943414C204E4F2052B6
S113203A4553504F4E53450043414E425553203267
S113204A204D616C666F726D6564205061636B65C7
S113205A740043414E4255532032204D616C666FE1
S113206A726D6564205061636B6574210043414E4F
S113207A425553203220435249544943414C204D3E
S113208A414C464F524D4544205041434B45540020
S113209A43414E4255532033204E6F20526573708C
S11320AA6F6E73650043414E4255532033204E6F81
S11320BA20526573706F6E7365210043414E425519
S11320CA53203320435249544943414C204E4F2014
S11320DA524553504F4E53450043414E42555320A7
S11320EA33204D616C666F726D6564205061636B59
S11320FA65740043414E4255532033204D616C664A
S113210A6F726D6564205061636B6574210043418D
S113211A4E425553203320435249544943414C209B
S113212A4D414C464F524D4544205041434B455432
S113213A0047656172626F782025642054656D706A
S113214A65726174757265204E6F726D616C0047B9
S113215A656172626F782025642054656D706572BA
S113216A61747572652041626E6F726D616C6C790F
S113217A204C6F77210047454152424F582025642D
S113218A2054454D504552415455524520435249D5
S113219A544943414C4C59204C4F5700476561728E
S11321AA626F782025642054656D70657261747558
S11321BA72652041626E6F726D616C6C7920486938
S11321CA6768210047454152424F582025642054EC
S11321DA454D50455241545552452043524954495C
S11321EA43414C4C5920484947480052616469614B
S11321FA746F722025642054656D706572617475FC
S113220A7265204E6F726D616C005261646961740B
S113221A6F722025642054656D70657261747572DD
S113222A652041626E6F726D616C6C79204C6F77B8
S113223A21005241444941544F52202564205445B7
S113224A4D504552415455524520435249544943ED
S113225A414C4C59204C4F57005261646961746F68
S113226A722025642054656D706572617475726597
S113227A2041626E6F726D616C6C7920486967687F
S113228A21005241444941544F5220256420544567
S113229A4D5045524154555245204352495449439D
S11322AA414C4C592048494748004272616B657356
S11322BA202564205072657373757265204E6F729F
S11322CA6D616C004272616B6573202564205072E3
S11322DA6573737572652041626E6F726D616C6CA1
S11322EA79204C6F7721004252414B455320256493
S11322FA2050524553535552452043524954494359
S113230A414C4C59204C4F57004272616B65732003
S113231A25642050726573737572652041626E6F0D
S113232A726D616C6C792048696768210042524178
S113233A4B4553202564205052455353555245204A
S113234A435249544943414C4C592048494748004F
S113235A4272616B657320256420507265737375CC
S113236A7265205761726E6E696E6721004252412E
S113237A4B4553202564205052455353555245200A
S113238A435249544943414C21004272616B65737B
S113239A20256420506F736974696F6E204E6F72C2
S11323AA6D616C004272616B657320256420506F05
S11323BA736974696F6E2041626E6F726D616C6CC1
S11323CA79204C6F7721004252414B4553202564B2
S11323DA20504F534954494F4E204352495449437C
S11323EA414C4C59204C4F57004272616B65732023
S11323FA256420506F736974696F6E205761726E19
S113240A696E6721004252414B455320256420508E
S113241A4F534954494F4E20435249544943414C1E
S113242A005374656572696E6720416E676C652036
S113243A4E6F726D616C005354454552494E4720A4
S113244A414E474C45204F555453494445204C4529
S113245A465420504152414D455445520053544527
S113246A4552494E4720414E474C45204F555453F7
S113247A49444520524947485420504152414D4508
S113248A544552005468726F74746C652046756EB4
S113249A6374696F6E204E6F726D616C005448529A
S11324AA4F54544C4520435249544943414C204DBE
S11324BA414C46554E4354494F4E0043617220697C
S11324CA73207570726967687400434152204841E9
S11324DA53204F5645525455524E45440042617456
S11324EA7465727920256420436861726765204E99
S11324FA6F726D616C00426174746572792025642F
S113250A20436861726765204C6F770042415454D6
S113251A4552592025642043484152474520435295
S113252A49544943414C00426174746572792025C7
S113253A642054656D7065726174757265204E6F9E
S113254A726D616C0042617474657279202564202D
S113255A54656D70657261747572652041626E6F3F
S113256A726D616C6C79204C6F772100424154542E
S113257A4552592025642054454D504552415455DD
S113258A524520435249544943414C4C59204C4FDB
S113259A5700426174746572792025642054656D0C
S11325AA70657261747572652041626E6F726D61D5
S11325BA6C6C792048696768210042415454455239
S11325CA592025642054454D50455241545552458D
S11325DA20435249544943414C4C5920484947489D
S10525EA0000EB
S9030000FC
