S011000063635F6D65726765322E73726563AC
S1130000F6C000000C9432090C94F0080EC10000F4
S11300100CC100000AC1000008C1000006C10000B4
S113002004C100000C94720900C10000FEC000006D
S1130030FCC00000FAC00000F8C00000F6C00000D8
S1130040F4C000000C94E608F0C00000EEC000000C
S1130050ECC000000C94BF08E8C00000E6C000003B
S1130060E4C000000C947C0B0C94DA0BDEC000009E
S1130070DCC00000DAC00000D8C00000D6C0000018
S1130080D4C00000D2C00000D0C00000CEC0000028
S11300900C94AB0B0C94080CC8C00000C6C0000044
S11300A0C4C00000C2C00000C0C00000BEC0000048
S11300B0BCC00000BAC00000B8C00000B6C0000058
S11300C0B4C00000B2C00000B0C00000AEC0000068
S11300D0ACC00000AAC00000A8C00000A6C0000078
S11300E0A4C0000010027104CD02E80203031E0341
S11300F0390354036F038A03A503C003DB03ED0331
S1130100FF03110423043E045804710471047104B0
S11301107104710471047104710471047104710433
S11301207104710471047104710471047104710423
S11301307104710471047104710471047104710413
S11301407104710471047104710471047104710403
S113015071047104710471047104710471047104F3
S113016071047104710471047104710471047104E3
S113017071047104710471047104710471047104D3
S113018071047104710471047104710471047104C3
S113019071047104710471047104710471047104B3
S11301A071047104710471047104710471047104A3
S11301B07104710471047104710471047104710493
S11301C071042B02460271047104710471047104F8
S11301D071047104710461027C027104710471047C
S11301E0710471047104710471049702B202112440
S11301F01FBECFEFD1E2DEBFCDBF18E0A0E0B2E07A
S1130200E6E2FFE100E00BBF02C007900D92A43FBD
S1130210B107D9F72AE0A4EFB8E001C01D92A930D4
S1130220B207E1F745D60C94910FEACEEAE7F0E085
S11302308081806880830895EAE7F0E09081987F68
S113024090839081892B80830895ECE7F0E090817E
S11302509C7F9083208130E4839FC0011124822BF2
S113026080830895CF93C62F10927A00ECE7F0E0D4
S113027090819F7D9083E0DF8C2FE7DFD7DFCF91E4
S11302800895ECE7F0E09081907E9083883060F0F0
S1130290EBE7F0E0908198609083ECE7F0E09081E8
S11302A08850892B80830AC0EBE7F0E09081977F28
S11302B09083ECE7F0E09081892B8083EAE7F0E01B
S11302C0808180648083808186FDFDCF8091780069
S11302D09091790008958F929F92AF92BF92CF929E
S11302E0DF92EF92FF920F931F93CF93DF93C82F68
S11302F0D62F6A01480159010E94C90A8501740177
S113030096014D2F682F8C2F0E94E20ADF91CF9126
S11303101F910F91FF90EF90DF90CF90BF90AF901F
S11303209F908F900895AF92BF92CF92DF92EF92F9
S1130330FF920F931F93CF93C82F7B016A0159013A
S11303400E945F0B8295869586958370823061F05A
S1130350833091F08130E9F485019601A70161E6CB
S11303608C2F0E94360A15C085019601A70161E70A
S11303708C2F0E94360A0DC085019601A70161E603
S11303808C2F0E94360A9601A70161E78C2F0E94E8
S1130390360ACF911F910F91FF90EF90DF90CF908D
S11303A0BF90AF9008950F931F93CF93DF93182FAF
S11303B0092F5F934F937F936F931F9288E28F93DC
S11303C0D0E0DF93C0E0CF930E94A80CDF93CF93DB
S11303D00F931F938EE292E09F938F931F9282E379
S11303E08F93CF93DF930E94A80C62E370E08D2F6C
S11303F09C2F41D58DB79EB742960FB6F8949EBFF9
S11304000FBE8DBFDF91CF911F910F910895653875
S1130410710508F066C2FB01EE58FF4F0C94960C70
S11304208230910561F08330910579F0019709F0EC
S113043058C264E372E08AE392E0B5CF08956FE3B3
S113044072E086E492E0AFCF089560E572E086E55D
S113045092E0A9CF08958230910561F0833091052F
S113046079F0019709F03DC260E672E08AE392E018
S11304709ACF089565E772E086E492E094CF0895F8
S11304806BE872E086E592E08ECF089582309105A4
S113049061F08330910579F0019709F022C269EA8D
S11304A072E08AE392E07FCF089563EC72E086E421
S11304B092E079CF08956EED72E086E592E073CF15
S11304C008958230910561F08330910579F00197A8
S11304D009F007C261E073E08AE392E064CF089513
S11304E066E173E086E492E05ECF08956CE273E027
S11304F086E592E058CF08958230910561F083300B
S1130500910579F0019709F0ECC16AE473E08AE39C
S113051092E049CF089564E673E086E492E043CF25
S113052008956FE773E086E592E03DCF0895823049
S1130530910561F08330910579F0019709F0D1C1FB
S113054062EA73E08AE392E02ECF089567EB73E0EA
S113055086E492E028CF08956DEC73E086E592E09E
S113056022CF08958230910561F08330910579F0AE
S1130570019709F0B6C16BEE73E08AE392E013CF02
S1130580089565E074E086E492E00DCF089560E29A
S113059074E086E592E007CF08958230910561F01A
S11305A08330910579F0019709F09BC163E474E00D
S11305B08AE392E0F8CE089561E674E086E492E07E
S11305C0F2CE089568E874E086E592E0ECCE0895F2
S11305D08230910561F08330910579F0019709F03B
S11305E080C163E474E08AE392E0DDCE08956EEAAC
S11305F074E086E492E0D7CE089566ED74E086E573
S113060092E0D1CE08958230910561F08330910556
S113061079F0019709F065C16DEF74E08AE392E027
S1130620C2CE08956CE175E086E492E0BCCE0895F4
S113063064E475E086E592E0B6CE089582309105D3
S113064061F08330910579F0019709F04AC16DEFAB
S113065074E08AE392E0A7CE08956BE675E086E441
S113066092E0A1CE089564E975E086E592E09BCE20
S113067008958230910561F08330910579F00197F6
S113068009F02FC16CEB75E08AE392E08CCE0895FB
S113069066ED75E086E492E086CE089569EF75E034
S11306A086E592E080CE08958230910561F0833032
S11306B0910579F0019709F014C16CEB75E08AE3B8
S11306C092E071CE08956BE176E086E492E06BCE21
S11306D008956FE376E086E592E065CE0895823072
S11306E0910561F08330910579F0019709F0F9C023
S11306F06CEB75E08AE392E056CE089562E676E00C
S113070086E492E050CE08956FE776E086E592E0C5
S11307104ACE08958230910561F08330910579F0D5
S1130720019709F0DEC06CE976E08AE392E03BCE03
S1130730089566EB76E086E492E035CE089569ED9F
S113074076E086E592E02FCE08958230910561F03F
S11307508330910579F0019709F0C3C06CEB75E023
S11307608AE392E020CE08956BE176E086E492E09D
S11307701ACE08956FE376E086E592E014CE0895EC
S11307808230910561F08330910579F0019709F089
S1130790A8C06CE976E08AE392E005CE08956BEF99
S11307A076E086E492E0FFCD089567E177E086E5A0
S11307B092E0F9CD08958130910519F0039739F04D
S11307C0089563E377E08AE392E0EDCD089569E468
S11307D077E086E592E0E7CD08958130910519F040
S11307E0039739F0089563E377E08AE392E0DBCD81
S11307F008956FE677E086E592E0D5CD08958130DF
S1130800910519F0039739F0089566E977E08AE3D2
S113081092E0C9CD08956FEA77E086E592E0C3CD12
S113082008958130910519F0039739F008956DEC1E
S113083077E08AE392E0B7CD08956CED77E086E542
S113084092E0B1CD08958230910561F08330910535
S113085079F0019709F045C06FEE77E08AE392E002
S1130860A2CD089568E078E086E492E09CCD0895F6
S11308706EE178E086E592E096CD089582309105A8
S113088059F08330910571F0019759F569E378E0E7
S11308908AE392E088CD089567E578E086E492E003
S11308A082CD08956EE778E086E592E07CCD0895E8
S11308B08230910559F08330910571F0019789F4E4
S11308C069E378E08AE392E06ECD089564EA78E023
S11308D086E492E068CD08956CEC78E086E592E0D9
S11308E062CD089540E050E092CD0895E9E6F0E04D
S11308F080818A60808383E08DBB81E0809368007F
S113090080E880936B00089582EC8DB91EB887E06F
S11309108093010183E08093020187E684B981E03A
S113092085B998E190930A0110920B0188EC8AB979
S11309301AB888E087B918B810920401E5E0F1E02C
S113094080818064808391B980E182B980E2809360
S11309500701CCCF0895D8DFC9D680E09BE486D7C1
S113096061E086E07FDC81E05DD582E05BD584E0F8
S113097059D5E5E0F1E0808180648083089584B5F1
S1130980826084BD85B5836085BD8AEF87BDEEE650
S1130990F0E0808182608083109280008DE08093FB
S11309A0810088E99AE3909389008093880082E02B
S11309B080936F000895FC01808191816817790705
S11309C0D8F084179507D0F0E0911602F091170241
S11309D09F01241B350BA9019C01240F351FA4E69C
S11309E0A29FC001A39F900D1124640F751F6E0F69
S11309F07F1F88D7862F089584E6089580E00895A0
S1130A000F931F93CF93DF93EC0100915A0910E0E9
S1130A1085E090E036DC000F111FF801EA5BF64F29
S1130A209183808310915A0981E0810F80935A0940
S1130A3082E090E026DCE12FF0E0EE0FFF1FEE5C99
S1130A40F64F9183808380915A09883010F0109278
S1130A505A09E6E4F9E0A2E3B9E066E579E080E06A
S1130A6090E020E030E041915191240F351F4D91E9
S1130A705D91840F951FE617F707A9F7369527951B
S1130A8036952795369527953983288360911802E2
S1130A907091190240910A0250910B02461B570BA8
S1130AA024173507D0F19695879596958795969551
S1130AB087954091060250910702461B570B8417F5
S1130AC0950768F140910C0250910D02461B570B9B
S1130AD04217530730F14091080250910902461B16
S1130AE0570B48175907F8F0281B390BC9019923EC
S1130AF024F488279927821B930B20915E09309157
S1130B005F098217930788F0209100023091010257
S1130B102817390760F080E00BC081E009C081E04C
S1130B2007C082E005C082E003C083E001C083E027
S1130B30DF91CF911F910F910895EF92FF921F9330
S1130B40CF93DF9300D0CDB7DEB77C011A82198230
S1130B50CE01019655DF182F40910A0250910B02E5
S1130B6060910C0270910D02CE01019624DFF70111
S1130B708083123051F0133071F0113089F46EE03B
S1130B8070E082E090E0AEDE0BC06EE070E082E0E8
S1130B9090E0A8DE05C06EE070E082E090E0A2DEA6
S1130BA0812F0F900F90DF91CF911F91FF90EF90C5
S1130BB008950F931F93CF93DF93EC0100913109B4
S1130BC010E08AE090E05DDB000F111FF801E35EA6
S1130BD0F64F918380831091310981E0810F8093D6
S1130BE0310988E090E04DDBE12FF0E0EE0FFF1FCC
S1130BF0E75FF64F9183808380913109883010F04C
S1130C0010923109EDE1F9E0A9E0B9E06DE279E093
S1130C1080E090E020E030E041915191240F351FB5
S1130C204D915D91840F951FE617F707A9F7369547
S1130C3027953695279536952795AC015695479572
S1130C405695479556954795B901641B750BCB018D
S1130C50992324F488279927861B970BFC01398351
S1130C602883609118027091190280911202909168
S1130C701302861B970B2817390758F0809114022A
S1130C8090911502860F971F8217930720F482E034
S1130C9003C081E001C080E0209110023091110274
S1130CA0261B370B4217530710F484600AC02091A7
S1130CB0140230911502620F731F6417750708F44C
S1130CC0886020915E0930915F09E217F30738F0DC
S1130CD020910002309101022E173F0708F4806131
S1130CE0DF91CF911F910F910895EF92FF921F937F
S1130CF0CF93DF9300D0CDB7DEB77C011A8219827F
S1130D00CE01019656DF182F409112025091130222
S1130D106091140270911502CE0101964CDEF70128
S1130D208083123051F0133071F0113089F469E08E
S1130D3070E082E090E0D6DD0BC06AE070E082E013
S1130D4090E0D0DD05C06BE070E082E090E0CADDA9
S1130D50812F0F900F90DF91CF911F91FF90EF9013
S1130D6008951F93CF93DF93EC011091080981E05C
S1130D70810F8093080984E090E083DAE12FF0E0AA
S1130D80EE0FFF1FEC50F74F918380838091080989
S1130D90883010F010920809E4EFF8E044E059E0DC
S1130DA080E090E021913191820F931FE417F507C1
S1130DB0C9F79C013695279536952795369527953D
S1130DC039832883E0911802F0911902609102029C
S1130DD0709103026E1B7F0B81E02617370708F022
S1130DE080E040910402509105024E0F5F1F4217AC
S1130DF0530708F48E5FDF91CF911F910895EF920E
S1130E00FF921F93CF93DF9300D0CDB7DEB77C0161
S1130E101A821982CE010196A4DF182F4091020292
S1130E20509103026091040270910502CE01019673
S1130E30C2DDF7018083113019F0123039F00BC094
S1130E406DE070E082E090E04DDD05C06CE070E0A4
S1130E5082E090E047DD812F0F900F90DF91CF91DA
S1130E601F91FF90EF900895E8E0F1E0908180E217
S1130E70892780830895FF920F931F93CF93DF9365
S1130E808C01F62E84E40ED5FF2041F0E8010F0D0D
S1130E90111D899107D5C017D107D9F78DE002D567
S1130EA08AE000D5DF91CF911F910F91FF900895B3
S1130EB052DD65DD10927409109278092FEF89E6EE
S1130EC098E1215080409040E1F700C00000789400
S1130ED0FFCF0F931F93CF93DF931F92CDB7DEB74E
S1130EE080916209909163098536910534F40196E5
S1130EF0909363098093620904C01092630910926D
S1130F0062098091030186FD24C081E080937A09FF
S1130F1080917C0990917D099C012F5F3F4F309314
S1130F207D0920937C09813D9740D8F080917B090D
S1130F30811117C081E080937B09909179098927F9
S1130F4080937909813069F48FDF81E08093780997
S1130F500CC010927A0910927B0910927D091092AC
S1130F607C09809178098130A1F48091760990916F
S1130F7077099C012F5F3F4F3093770920937609BF
S1130F80813D974030F010927809109277091092C1
S1130F90760980916009909161090A9778F010921E
S1130FA061091092600910922D0206E616E626E603
S1130FB034E04CE659E068E081E08DD98091230269
S1130FC090912402C39768F0109224021092230295
S1130FD001E010E020E438E045E252E068E084E01B
S1130FE07AD98091210290912202C39768F01092DD
S1130FF022021092210201E010E020E039E044E6F0
S113100059E068E082E067D980911F029091200244
S11310108536910520F01092200210921F028091D3
S11310201D0290911E02C39720F010921E0210928E
S11310301D02809160099091610901969093610964
S113104080936009809123029091240201969093E9
S1131050240280932302809121029091220201961E
S1131060909322028093210280911F02909120028A
S113107001969093200280931F0280911D0290910B
S11310801E02019690931E0280931D0280911C0201
S11310908B3050F0CE01019650DD811103C089815F
S11310A080935C0910921C0280911B028B3050F0DB
S11310B0CE0101961ADE811103C0898180935B09F8
S11310C010921B0280911A028B3050F0CE010196CF
S11310D096DE811103C0898180935D0910921A0202
S11310E080911C028F5F80931C0280911B028F5F92
S11310F080931B0280911A028F5F80931A023091B1
S11311005B09432F50E080910E0290910F028417E7
S1131110950720F481E08093750902C01092750947
S113112060915C09ECE6F9E06083318350915D09DC
S113113052832091790923834091760944839091C5
S113114078099583809175098683E5E2F2E06083EE
S1131150318352832383448395838683E4E6F9E0D1
S113116030E2839FA00111244F6C4083218392833A
S113117083830F90DF91CF911F910F9108951F9258
S11311800F920FB60F9211240BB60F922F933F9329
S11311904F935F936F937F938F939F93AF93BF937B
S11311A0EF93FF9396DEFF91EF91BF91AF919F91E3
S11311B08F917F916F915F914F913F912F910F90FC
S11311C00BBE0F900FBE0F901F9018951F920F9299
S11311D00FB60F9211240F900FBE0F901F90189509
S11311E01F920F920FB60F9211240BB60F922F93EA
S11311F03F934F935F936F937F938F939F93AF939B
S1131200BF93EF93FF93CF93DF93CDB7DEB72D97C3
S1131210DEBFCDBF81E080932D029E01275F3F4F4B
S1131220AE014F5F5F4FBE01635F7F4F7CD82D9649
S11312300FB6F894DEBF0FBECDBFDF91CF91FF9103
S1131240EF91BF91AF919F918F917F916F915F913A
S11312504F913F912F910F900BBE0F900FBE0F90A7
S11312601F9018951F920F920FB60F9211240BB670
S11312700F922F933F934F935F936F937F938F932B
S11312809F93AF93BF93EF93FF93CF93DF93CDB728
S1131290DEB72D97DEBFCDBF9E01275F3F4FAE0166
S11312A04F5F5F4FBE01635F7F4F82E03CD82D9656
S11312B00FB6F894DEBF0FBECDBFDF91CF91FF9183
S11312C0EF91BF91AF919F918F917F916F915F91BA
S11312D04F913F912F910F900BBE0F900FBE0F9027
S11312E01F9018951F920F920FB60F9211240BB6F0
S11312F00F922F933F934F935F936F937F938F93AB
S11313009F93AF93BF93EF93FF93CF93DF93CDB7A7
S1131310DEB72D97DEBFCDBF9E01275F3F4FAE01E5
S11313204F5F5F4FBE01635F7F4F84E00E94930174
S11313302D960FB6F894DEBF0FBECDBFDF91CF91CF
S1131340FF91EF91BF91AF919F918F917F916F9199
S11313505F914F913F912F910F900BBE0F900FBE55
S11313600F901F901895823051F0843071F08130C5
S113137069F4E2E0F1E080818E7F80830895E2E009
S1131380F1E080818D7F80830895289808958230CC
S113139051F0843071F0813069F4E2E0F1E0808151
S11313A0816080830895E2E0F1E08081826080833F
S11313B00895289A08951F93CF93DF93C82F162F6B
S11313C0D42FD1DF82E08CD1812F8AD18D2F88D187
S11313D08C2FDDDFDF91CF911F910895CF93DF93A1
S11313E0C82FD62FC0DF8D2F7BD18C2FD0DFDF917C
S11313F0CF9108950F931F93CF93DF93C82F062F98
S1131400D42F122FB0DF85E06BD1802F69D1812FCB
S113141067D18D2F65D18C2FBADFDF91CF911F91CA
S11314200F910895CF93C82F60ECD8DF20EE40E8E9
S11314306FE08C2FDFDF44E06AE28C2FBCDF4AECE4
S113144069E28C2FB8DF41E068E28C2FB4DF43E01F
S11314506BE28C2FB0DF41E06DE08C2FACDF28EE27
S113146048E06FE08C2FC6DFCF9108957F928F9272
S11314709F92AF92BF92CF92DF92EF92FF920F931F
S11314801F93CF93DF93CDB7DEB72D970FB6F894A4
S1131490DEBF0FBECDBF782E4A015901613728F453
S11314A00F2EF0E9FF2EF02D04C00F2EF4E9FF2ECD
S11314B0F02D872D58DF8F2D13D1CE0101967C019D
S11314C06E019EE0C90ED11C80E00AD1F701819320
S11314D07F01EC15FD05C1F72A81898190E0A0E028
S11314E0B0E0072E75E1880F991FAA1FBB1F7A95DC
S11314F0D1F7702D3B81932B3C81832B422F407E6F
S113150050E060E070E0032E3DE0440F551F661F7D
S1131510771F3A95D1F7302D842B952BA62BB72B1B
S11315202370A22BF80180839183A283B3834D851A
S11315304F70F401408350E0BE016B5F7F4FC501E3
S1131540FED1872D24DF2D960FB6F894DEBF0FBE93
S1131550CDBFDF91CF911F910F91FF90EF90DF905E
S1131560CF90BF90AF909F908F907F900895CF932E
S1131570DF93C82FD62FF7DE83E0B2D08D2FB0D003
S113158080E0AED0D82F8C2F02DF8D2FDF91CF914A
S11315900895CF93C82F60E3EADF83FF0CC060E4B3
S11315A08C2FE5DF83FF09C060E58C2FE0DF83FF2C
S11315B006C080E005C080E303C080E401C080E58C
S11315C0CF9108958F929F92AF92BF92DF92EF9244
S11315D0FF920F931F93CF93DF93662309F463C0A5
S11315E047015801C32FE22ED42EF62ED82F43E004
S11315F0E2DEB501A401032E35E176956795579592
S113160047953A95D1F7302D81E08F0D682F8D2FB6
S1131610D2DEB501A401032E3DE07695679557957A
S113162047953A95D1F7302D407E8A2D8370482B0B
S1131630486062E06F0D8D2FBEDE77276B2D5A2D2B
S1131640492D83E08F0D682F8D2FB5DE64E06F0D7B
S1131650482D8D2FB0DE65E06F0D4D2D8D2FABDE47
S1131660DD2089F00E2D1C2FC6E0CF0D46E04D0D78
S1131670E42EEF0CF80141918F016C2F8D2F9BDE2E
S1131680CF5FCE11F7CF8F2D85958595859585955F
S1131690835061E070E002C0660F771F8A95E2F71D
S11316A060688D2F9BDEDF91CF911F910F91FF908A
S11316B0EF90DF90BF90AF909F908F900895CF935D
S11316C0DF93C82F50DE80EB0BD080E009D0D82FF9
S11316D080E006D08C2F5BDE8D2FDF91CF910895B3
S11316E08EBD0DB407FEFDCF8EB5089581E58CBD8A
S11316F081E08DBD1EBC08951F920F920FB60F920C
S113170011240BB60F922F938F939F93EF93FF9314
S11317108091C0002091C6008871E091C509EF5FF7
S1131720EF719091C409E91739F0E093C509F0E02D
S1131730E853F64F208301C082E08093C309FF91F0
S1131740EF919F918F912F910F900BBE0F900FBE31
S11317500F901F9018951F920F920FB60F9211249D
S11317600BB60F922F938F939F93EF93FF938091D8
S1131770C8002091CE008871E0918009EF5FEF717D
S113178090917F09E91739F0E0938009F0E0ED5773
S1131790F64F208301C082E080937E09FF91EF9190
S11317A09F918F912F910F900BBE0F900FBE0F90B2
S11317B01F9018951F920F920FB60F9211240BB61B
S11317C00F928F939F93EF93FF939091C70980910A
S11317D0C609981769F0E091C609EF5FEF71E093CD
S11317E0C609F0E0E851F64F80818093C60005C039
S11317F0E1ECF0E080818F7D8083FF91EF919F91F8
S11318008F910F900BBE0F900FBE0F901F901895E5
S11318101F920F920FB60F9211240BB60F928F9353
S11318209F93EF93FF939091820980918109981778
S113183069F0E0918109EF5FEF71E0938109F0E0D5
S1131840ED55F64F80818093CE0005C0E9ECF0E0C1
S113185080818F7D8083FF91EF919F918F910F9075
S11318600BBE0F900FBE0F901F9018951092C709D2
S11318701092C6091092C5091092C409E1E6F0E07D
S113188080E8808310821092C50087E68093C400AC
S113189082E08093C00088E18093C10086E0809359
S11318A0C20008959091080A911115C02091C709AA
S11318B02F5F2F719091C6092917E1F3E22FF0E011
S11318C0E851F64F80832093C709E1ECF0E0808172
S11318D08062808308959130A1F4209182092F5F62
S11318E02F71909181092917E1F3E22FF0E0ED5572
S11318F0F64F808320938209E9ECF0E080818062D6
S113190080830895AA1BBB1B51E107C0AA1FBB1FFC
S1131910A617B70710F0A61BB70B881F991F5A9577
S1131920A9F780959095BC01CD010895EE0FFF1F96
S11319300024001C0BBE0790F691E02D0994FB01D6
S1131940DC0102C001900D9241505040D8F7089537
S11319500F931F93CF93DF93CDB7DEB72E970FB6B8
S1131960F894DEBF0FBECDBF0D891E898F89988D77
S113197026E02C831A83098397FF02C080E090E855
S113198001979E838D83AE01455E5F4F698D7A8D8D
S1131990CE01019619D04D815E8157FD0AC02F8179
S11319A03885421753070CF49A01F801E20FF31F2C
S11319B010822E960FB6F894DEBF0FBECDBFDF9116
S11319C0CF911F910F9108952F923F924F925F9262
S11319D06F927F928F929F92AF92BF92CF92DF923B
S11319E0EF92FF920F931F93CF93DF93CDB7DEB7A0
S11319F02B970FB6F894DEBF0FBECDBF6C017B01F1
S1131A008A01FC0117821682838181FFBFC1CE0146
S1131A1001963C01F6019381F70193FD859193FFB3
S1131A2081917F01882309F4ADC1853239F493FD96
S1131A30859193FF81917F01853221F4B60190E075
S1131A40D6D1E8CF912C212C312CFFE1F315D8F01D
S1131A508B3279F038F4803279F08332A1F4232D7B
S1131A6020611DC08D3261F0803369F4232D216023
S1131A7016C0832D8260382EE32DE4603E2E2AC0EA
S1131A80F32DF8601DC037FC2DC020ED280F2A303F
S1131A9040F08E32B9F436FC75C1232D2064322E09
S1131AA019C036FE06C08AE0989E200D1124922E9D
S1131AB011C0EAE02E9E200D1124222EF32DF06297
S1131AC03F2E08C08C3621F4832D8068382E02C046
S1131AD0883641F4F70193FD859193FF81917F014D
S1131AE08111B3CF982F9F7D9554933028F40C5FC8
S1131AF01F4F9FE399830DC0833631F0833771F014
S1131B00833509F055C020C0F801808189830E5FB8
S1131B101F4F88248394912C530112C02801F2E0B2
S1131B204F0E511CF801A080B18036FE03C0692D10
S1131B3070E002C06FEF7FEFC5014ED14C0182010E
S1131B40F32DFF773F2E15C0280122E0420E511CD1
S1131B50F801A080B18036FE03C0692D70E002C098
S1131B606FEF7FEFC5012DD14C01F32DF0683F2EAF
S1131B70820133FC19C0822D90E088169906A0F4E6
S1131B80B60180E290E033D12A94F5CFF50137FC19
S1131B90859137FE81915F01B60190E028D1211033
S1131BA02A9421E0821A91088114910479F7E1C002
S1131BB0843611F0893639F5F80137FE07C06081A3
S1131BC07181828193810C5F1F4F08C06081718194
S1131BD0072E000C880B990B0E5F1F4FF32DFF7619
S1131BE03F2E97FF09C090958095709561957F4F22
S1131BF08F4F9F4FF0683F2E2AE030E0A30133D18E
S1131C00882E861844C0853731F4232D2F7EB22EBA
S1131C102AE030E025C0932D997FB92E8F36C1F08C
S1131C2018F4883579F0AEC0803719F0883721F080
S1131C30A9C0E92FE061BE2EB4FE0DC0FB2DF460F7
S1131C40BF2E09C034FE0AC0292F2660B22E06C05A
S1131C5028E030E005C020E130E002C020E132E0BD
S1131C60F801B7FE07C060817181828193810C5FA6
S1131C701F4F06C06081718180E090E00E5F1F4FAE
S1131C80A301F1D0882E8618FB2DFF773F2E36FE58
S1131C900DC0232D2E7FA22E891458F434FE0BC0C0
S1131CA032FC09C0832D8E7EA82E05C0B82CA32C2F
S1131CB003C0B82C01C0B92CA4FE0FC0FE01E80D6E
S1131CC0F11D8081803321F49A2D997EA92E09C0BB
S1131CD0A2FE06C0B394B39404C08A2D867809F09A
S1131CE0B394A3FC10C0A0FE06C0B21480F4280C68
S1131CF0922C9B180DC0B21458F4B60180E290E007
S1131D0076D0B394F8CFB21418F42B1802C0982CE0
S1131D10212CA4FE0FC0B60180E390E068D0A2FE9F
S1131D2016C0A1FC03C088E790E002C088E590E0FB
S1131D30B6010CC08A2D867851F0A1FE02C08BE258
S1131D4001C080E2A7FC8DE2B60190E050D0891476
S1131D5030F4B60180E390E04AD09A94F8CF8A94A4
S1131D60F301E80DF11D8081B60190E040D08110AF
S1131D70F6CF222009F44ECEB60180E290E037D0AF
S1131D802A94F7CFF6018681978102C08FEF9FEFE7
S1131D902B960FB6F894DEBF0FBECDBFDF91CF9167
S1131DA01F910F91FF90EF90DF90CF90BF90AF9075
S1131DB09F908F907F906F905F904F903F902F9067
S1131DC00895FC010590615070400110D8F780958A
S1131DD090958E0F9F1F0895FC01615070400190F3
S1131DE00110D8F7809590958E0F9F1F08950F933B
S1131DF01F93CF93DF93FB01238121FD03C08FEF5A
S1131E009FEF2CC022FF16C0468157812481358163
S1131E104217530744F4A081B1819D012F5F3F4FC6
S1131E20318320838C93268137812F5F3F4F378303
S1131E30268314C08B01EC01FB010084F185E02DA5
S1131E400995892BE1F6D80116968D919C911797E7
S1131E50019617969C938E931697CE01DF91CF919E
S1131E601F910F910895FA01AA27283051F12031CA
S1131E7081F1E8946F936E7F6E5F7F4F8F4F9F4F1A
S1131E80AF4FB1E03ED0B4E03CD0670F781F891F5C
S1131E909A1FA11D680F791F8A1F911DA11D6A0F2A
S1131EA0711D811D911DA11D20D009F468943F91DD
S1131EB02AE0269F11243019305D3193DEF6CF01DC
S1131EC00895462F4770405D4193B3E00FD0C9F7A2
S1131ED0F6CF462F4F70405D4A3318F0495D31FD0F
S1131EE04052419302D0A9F7EACFB4E0A695979562
S1131EF0879577956795BA95C9F700976105710538
S1131F0008959B01AC010A2E069457954795379581
S1131F102795BA95C9F7620F731F841F951FA01DDB
S1091F200895F894FFCFC0
S1131F261E00960084033A01F2014501F1011400F2
S1131F36EF01D201990203002800070605040003F5
S1131F46000200010000000A0A000028C8012573E7
S1131F56202573004572726F7200494E464F004544
S1131F6672726F722100215741524E494E47210029
S1131F764552524F520023234552524F52232300B7
S1131F8643414E4255532031204E6F2052657370A3
S1131F966F6E73650043414E4255532031204E6F98
S1131FA620526573706F6E7365210043414E42552E
S1131FB653203120435249544943414C204E4F202B
S1131FC6524553504F4E53450043414E42555320BC
S1131FD631204D616C666F726D6564205061636B70
S1131FE665740043414E4255532031204D616C6661
S1131FF66F726D6564205061636B657421004341A3
S11320064E425553203120435249544943414C20B2
S11320164D414C464F524D4544205041434B455447
S11320260043414E4255532032204E6F2052657371
S1132036706F6E73650043414E4255532032204EF5
S11320466F20526573706F6E7365210043414E4273
S11320565553203220435249544943414C204E4F54
S113206620524553504F4E53450043414E4255531B
S11320762032204D616C666F726D65642050616319
S11320866B65740043414E4255532032204D616CBA
S1132096666F726D6564205061636B6574210043DD
S11320A6414E425553203220435249544943414CF0
S11320B6204D414C464F524D4544205041434B45DB
S11320C6540043414E4255532033204E6F205265EF
S11320D673706F6E73650043414E4255532033202F
S11320E64E6F20526573706F6E7365210043414EC7
S11320F6425553203320435249544943414C204EC0
S11321064F20524553504F4E53450043414E42557E
S1132116532033204D616C666F726D656420506187
S1132126636B65740043414E4255532033204D6121
S11321366C666F726D6564205061636B6574210013
S113214643414E4255532033204352495449434157
S11321564C204D414C464F524D4544205041434B33
S113216645540047656172626F7820256420546582
S11321766D7065726174757265204E6F726D616CF7
S11321860047656172626F782025642054656D701E
S1132196657261747572652041626E6F726D616CF1
S11321A66C79204C6F77210047454152424F5820A5
S11321B625642054454D50455241545552452043BB
S11321C65249544943414C4C59204C4F570047659A
S11321D66172626F782025642054656D7065726142
S11321E6747572652041626E6F726D616C6C7920D4
S11321F648696768210047454152424F5820256483
S11322062054454D50455241545552452043524958
S1132216544943414C4C592048494748005261644B
S11322266961746F722025642054656D70657261EE
S113223674757265204E6F726D616C0052616469CB
S113224661746F722025642054656D7065726174C3
S11322567572652041626E6F726D616C6C79204C8B
S11322666F7721005241444941544F52202564203E
S113227654454D50455241545552452043524954B4
S11322864943414C4C59204C4F5700526164696193
S1132296746F722025642054656D7065726174755F
S11322A672652041626E6F726D616C6C792048694B
S11322B6676821005241444941544F522025642005
S11322C654454D5045524154555245204352495464
S11322D64943414C4C592048494748004272616B76
S11322E66573202564205072657373757265204E7C
S11322F66F726D616C004272616B65732025642098
S113230650726573737572652041626E6F726D618A
S11323166C6C79204C6F7721004252414B45532017
S1132326256420505245535355524520435249542F
S11323364943414C4C59204C4F57004272616B65DE
S1132346732025642050726573737572652041622B
S11323566E6F726D616C6C79204869676821004202
S113236652414B45532025642050524553535552F0
S11323764520435249544943414C4C592048494706
S113238648004272616B6573202564205072657340
S113239673757265205761726E6E696E67210042AD
S11323A652414B45532025642050524553535552B0
S11323B64520435249544943414C21004272616BC2
S11323C6657320256420506F736974696F6E204E9F
S11323D66F726D616C004272616B657320256420B7
S11323E6506F736974696F6E2041626E6F726D61AE
S11323F66C6C79204C6F7721004252414B45532037
S1132406256420504F534954494F4E204352495452
S11324164943414C4C59204C4F57004272616B65FD
S11324267320256420506F736974696F6E20576139
S1132436726E696E6721004252414B4553202564F2
S113244620504F534954494F4E204352495449430F
S1132456414C005374656572696E6720416E676C02
S113246665204E6F726D616C005354454552494E5A
S11324764720414E474C45204F5554534944452027
S11324864C45465420504152414D45544552005303
S113249654454552494E4720414E474C45204F55D9
S11324A654534944452052494748542050415241C7
S11324B64D45544552005468726F74746C652046D9
S11324C6756E6374696F6E204E6F726D616C005425
S11324D648524F54544C4520435249544943414C65
S11324E6204D414C46554E4354494F4E004361726C
S11324F620697320757072696768740043415220BD
S1132506484153204F5645525455524E4544004275
S11325166174746572792025642043686172676505
S1132526204E6F726D616C0042617474657279201D
S1132536256420436861726765204C6F77004241C9
S11325465454455259202564204348415247452056
S1132556435249544943414C00426174746572794B
S11325662025642054656D706572617475726520EA
S11325764E6F726D616C00426174746572792025C8
S1132586642054656D70657261747572652041626C
S11325966E6F726D616C6C79204C6F7721004241CD
S11325A654544552592025642054454D50455241B2
S11325B65455524520435249544943414C4C5920A1
S11325C64C4F570042617474657279202564205417
S11325D6656D70657261747572652041626E6F72A5
S11325E66D616C6C792048696768210042415454D6
S11325F64552592025642054454D50455241545561
S1132606524520435249544943414C4C5920484968
S1072616474800002D
S9030000FC
