S011000063635F6D65726765322E73726563AC
S1130000F6C000000C94AC080C946C080EC10000FF
S11300100CC100000AC1000008C1000006C10000B4
S113002004C100000C94EC0800C10000FEC00000F4
S1130030FCC00000FAC00000F8C00000F6C00000D8
S1130040F4C000000C946208F0C00000EEC0000090
S1130050ECC000000C943B08E8C00000E6C00000BF
S1130060E4C000000C94F50A0C94530BDEC00000AD
S1130070DCC00000DAC00000D8C00000D6C0000018
S1130080D4C00000D2C00000D0C00000CEC0000028
S11300900C94240B0C94810BC8C00000C6C0000053
S11300A0C4C00000C2C00000C0C00000BEC0000048
S11300B0BCC00000BAC00000B8C00000B6C0000058
S11300C0B4C00000B2C00000B0C00000AEC0000068
S11300D0ACC00000AAC00000A8C00000A6C0000078
S11300E0A4C0000007026804C402DF02FA02150378
S11300F030034B03660381039C03B703D203E40379
S1130100F60308041A0435044F04680468046804F8
S1130110680468046804680468046804680468047B
S1130120680468046804680468046804680468046B
S1130130680468046804680468046804680468045B
S1130140680468046804680468046804680468044B
S1130150680468046804680468046804680468043B
S1130160680468046804680468046804680468042B
S1130170680468046804680468046804680468041B
S1130180680468046804680468046804680468040B
S113019068046804680468046804680468046804FB
S11301A068046804680468046804680468046804EB
S11301B068046804680468046804680468046804DB
S11301C0680422023D026804680468046804680440
S11301D068046804680458027302680468046804C4
S11301E0680468046804680468048E02A90211247F
S11301F01FBECFEFD1E2DEBFCDBF18E0A0E0B2E07A
S1130200EAE2FEE100E00BBF02C007900D92A43EBB
S1130210B107D9F72AE0A4EEB8E001C01D92A832D4
S1130220B207E1F74ED60C94130FEACEEAE7F0E0FA
S11302308081806880830895EAE7F0E09081987F68
S113024090839081892B80830895ECE7F0E090817E
S11302509C7F9083208130E4839FC0011124822BF2
S113026080830895CF93C62F10927A00ECE7F0E0D4
S113027090819F7D9083E0DF8C2FE7DFD7DFCF91E4
S11302800895ECE7F0E09081907E9083883060F0F0
S1130290EBE7F0E0908198609083ECE7F0E09081E8
S11302A08850892B80830AC0EBE7F0E09081977F28
S11302B09083ECE7F0E09081892B8083EAE7F0E01B
S11302C0808180648083808186FDFDCF8091780069
S11302D09091790008958F929F92AF92BF92CF929E
S11302E0DF92EF92FF920F931F93CF93DF93C82F68
S11302F0D62F6A01480159010E94420A85017401FE
S113030096014D2F682F8C2F0E945B0ADF91CF91AD
S11303101F910F91FF90EF90DF90CF90BF90AF901F
S11303209F908F900895AF92BF92CF92DF92EF92F9
S1130330FF920F931F93CF93C82F7B016A0159013A
S11303400E94D80A8295869586958370823059F0EA
S1130350833081F08130C9F485019601A70161E6FB
S11303608C2FFDD712C085019601A70161E68C2F61
S1130370F6D70BC085019601A70161E68C2FEFD754
S11303809601A70161E68C2FEAD7CF911F910F91B7
S1130390FF90EF90DF90CF90BF90AF9008950F93B0
S11303A01F93CF93DF93182F092F5F934F937F935E
S11303B06F931F9288E28F93D0E0DF93C0E0CF93D6
S11303C00E942A0CDF93CF930F931F938FE192E047
S11303D09F938F931F9282E38F931F921F920E9489
S11303E02A0C8DB79EB742960FB6F8949EBF0FBEE7
S11303F08DBFDF91CF911F910F91089565387105DD
S113040008F066C2FB01EE58FF4F0C94180C8230C2
S1130410910561F08330910579F0019709F058C294
S113042065E272E08BE292E0BACF089560E372E095
S113043087E392E0B4CF089561E472E087E492E048
S1130440AECF08958230910561F08330910579F043
S1130450019709F03DC261E572E08BE292E09FCF23
S1130460089566E672E087E392E099CF08956CE719
S113047072E087E492E093CF08958230910561F0B1
S11304808330910579F0019709F022C26AE972E09C
S11304908BE292E084CF089564EB72E087E392E00C
S11304A07ECF08956FEC72E087E492E078CF0895F0
S11304B08230910561F08330910579F0019709F05C
S11304C007C262EF72E08BE292E069CF089567E0C1
S11304D073E087E392E063CF08956DE173E087E40E
S11304E092E05DCF08958230910561F083309105EB
S11304F079F0019709F0ECC16BE373E08BE292E0D1
S11305004ECF089565E573E087E392E048CF089500
S113051060E773E087E492E042CF0895823091056A
S113052061F08330910579F0019709F0D1C163E955
S113053073E08BE292E033CF089568EA73E087E3D7
S113054092E02DCF08956EEB73E087E492E027CF1D
S113055008958230910561F08330910579F0019717
S113056009F0B6C16CED73E08BE292E018CF089508
S113057066EF73E087E392E012CF089561E174E0DF
S113058087E492E00CCF08958230910561F08330C6
S1130590910579F0019709F09BC164E374E08BE263
S11305A092E0FDCE089562E574E087E392E0F7CE31
S11305B0089569E774E087E492E0F1CE089582300B
S11305C0910561F08330910579F0019709F080C1BC
S11305D064E374E08BE292E0E2CE08956FE974E0A4
S11305E087E392E0DCCE089567EC74E087E492E060
S11305F0D6CE08958230910561F08330910579F06B
S1130600019709F065C16EEE74E08BE292E0C7CE0B
S113061008956DE075E087E392E0C1CE089565E347
S113062075E087E492E0BBCE08958230910561F0D5
S11306308330910579F0019709F04AC16EEE74E0B8
S11306408BE292E0ACCE08956CE575E087E392E02E
S1130650A6CE089565E875E087E492E0A0CE0895FB
S11306608230910561F08330910579F0019709F0AA
S11306702FC16DEA75E08BE292E091CE089567ECAC
S113068075E087E392E08BCE08956AEE75E087E427
S113069092E085CE08958230910561F08330910512
S11306A079F0019709F014C16DEA75E08BE292E0EC
S11306B076CE08956CE076E087E392E070CE0895FC
S11306C060E376E087E492E06ACE08958230910593
S11306D061F08330910579F0019709F0F9C06DEA72
S11306E075E08BE292E05BCE089563E576E087E304
S11306F092E055CE089560E776E087E492E04FCE2D
S113070008958230910561F08330910579F0019765
S113071009F0DEC06DE876E08BE292E040CE089509
S113072067EA76E087E392E03ACE08956AEC76E0F1
S113073087E492E034CE08958230910561F08330ED
S1130740910579F0019709F0C3C06DEA75E08BE279
S113075092E025CE08956CE076E087E392E01FCE28
S1130760089560E376E087E492E019CE089582303C
S1130770910561F08330910579F0019709F0A8C0E3
S11307806DE876E08BE292E00ACE08956CEE76E0B6
S113079087E392E004CE089568E077E087E492E08E
S11307A0FECD08958130910519F0039739F008952D
S11307B064E277E08BE292E0F2CD08956AE377E0B9
S11307C087E492E0ECCD08958130910519F0039708
S11307D039F0089564E277E08BE292E0E0CD089589
S11307E060E677E087E492E0DACD08958130910500
S11307F019F0039739F0089567E877E08BE292E007
S1130800CECD089560EA77E087E492E0C8CD0895FC
S11308108130910519F0039739F008956EEB77E074
S11308208BE292E0BCCD08956DEC77E087E492E032
S1130830B6CD08958230910561F08330910579F049
S1130840019709F045C060EE77E08BE292E0A7CD16
S1130850089569EF77E087E392E0A1CD08956FE012
S113086078E087E492E09BCD08958230910559F0B9
S11308708330910571F0019759F56AE278E08BE2D3
S113088092E08DCD089568E478E087E392E087CD27
S113089008956FE678E087E492E081CD0895823090
S11308A0910559F08330910571F0019789F46AE25A
S11308B078E08BE292E073CD089565E978E087E310
S11308C092E06DCD08956DEB78E087E492E067CD1A
S11308D0089540E050E092CD0895E9E6F0E080818B
S11308E08A60808383E08DBB81E08093680080E828
S11308F080936B00089582EC8DB91EB887E08093D5
S1130900010183E08093020187E684B981E085B91F
S113091098E190930A0110920B0188EC8AB91AB8F5
S113092088E087B918B810920401E5E0F1E080810D
S11309308064808391B980E182B980E28093070169
S1130940CCCF0895D8DF4BD680E09BE408D761E094
S113095086E088DC81E0DFD482E0DDC4089584B5DC
S1130960826084BD85B5836085BD8AEF87BDEEE670
S1130970F0E0808182608083109280008DE080931B
S1130980810088E99AE3909389008093880082E04B
S113099080936F000895E0911402F09115029F0175
S11309A0241B350BDC014D915C91420F531FA4E6CF
S11309B0A49FC001A59F900D11246E0F7F1F620F8D
S11309C0731F22D7862F653608F084E608950F93A7
S11309D01F93CF93DF93EC0100914A0910E085E067
S11309E090E04FDC000F111FF801EA5CF64F918391
S11309F0808310914A0981E0810F80934A0982E043
S1130A0090E03FDCE12FF0E0EE0FFF1FEE5DF64FCC
S1130A109183808380914A09883010F010924A09AA
S1130A20E6E3F9E0A2E2B9E066E479E080E090E090
S1130A3020E030E041915191240F351F4D915D919B
S1130A40840F951FE617F707A9F73695279536956E
S1130A5027953695279539832883609116027091DE
S1130A60170240910A0250910B02461B570B2417A0
S1130A703507D0F1969587959695879596958795A0
S1130A804091060250910702461B570B84179507A5
S1130A9068F140910C0250910D02461B570B42170E
S1130AA0530730F14091080250910902461B570B3D
S1130AB048175907F8F0281B390BC901992324F466
S1130AC088279927821B930B20914E0930914F0957
S1130AD08217930788F020910002309101022817B1
S1130AE0390760F080E00BC081E009C081E007C0F5
S1130AF082E005C082E003C083E001C083E0DF91AF
S1130B00CF911F910F910895EF92FF921F93CF936E
S1130B10DF9300D0CDB7DEB77C011A821982CE01F3
S1130B20019655DF182F40910A0250910B026091F3
S1130B300C0270910D02CE0101962DDFF701808326
S1130B40123051F0133071F0113089F46EE070E01E
S1130B5082E090E0BEDE0BC06EE070E082E090E0E8
S1130B60B8DE05C06EE070E082E090E0B2DE812F76
S1130B700F900F90DF91CF911F91FF90EF90089508
S1130B800F931F93CF93DF93EC010091210910E0A1
S1130B908AE090E076DB000F111FF801E35FF64F67
S1130BA0918380831091210981E0810F8093210931
S1130BB088E090E066DBE12FF0E0EE0FFF1FE750E6
S1130BC0F74F9183808380912109883010F010922F
S1130BD02109EDE0F9E0A9EFB8E06DE179E080E00A
S1130BE090E020E030E041915191240F351F4D9168
S1130BF05D91840F951FE617F707A9F7369527959A
S1130C003695279536952795AC0156954795569573
S1130C10479556954795B901641B750BCB019923EC
S1130C2024F488279927861B970BFC013983288392
S1130C306091160270911702809110029091110236
S1130C40861B970B2817390758F080911202909150
S1130C501302860F971F8217930720F482E003C0C4
S1130C6081E001C080E020910E0230910F02261B2A
S1130C70370B4217530710F484600AC02091120204
S1130C8030911302620F731F6417750708F48860AC
S1130C9020914E0930914F09E217F30738F0209163
S1130CA00002309101022E173F0708F48061DF91A2
S1130CB0CF911F910F910895EF92FF921F93CF93BD
S1130CC0DF9300D0CDB7DEB77C011A821982CE0142
S1130CD0019656DF182F4091100250911102609135
S1130CE0120270911302CE01019655DEF701808342
S1130CF0123051F0133071F0113089F469E070E072
S1130D0082E090E0E6DD0BC06AE070E082E090E013
S1130D10E0DD05C06BE070E082E090E0DADD812F79
S1130D200F900F90DF91CF911F91FF90EF90089556
S1130D30CF93DF93C091F808D0E084E090E0A1DA8B
S1130D40CC0FDD1FCC51D74F998388838091F8084D
S1130D50883010F01092F80880E0DF91CF91089568
S1130D60EF92FF921F93CF93DF9300D0CDB7DEB7FE
S1130D707C011A821982CE010196DADF182F409184
S1130D800202509103026091040270910502CE01A7
S1130D90019601DEF7018083113019F0123039F029
S1130DA00BC06DE070E082E090E093DD05C06CE084
S1130DB070E082E090E08DDD812F0F900F90DF9145
S1130DC0CF911F91FF90EF900895FF920F931F937F
S1130DD0CF93DF938C01F62E84E4DDD4FF2041F021
S1130DE0E8010F0D111D8991D6D4C017D107D9F789
S1130DF08DE0D1D48AE0CFD4DF91CF911F910F91B0
S1130E00FF900895CF93DF9300D000D0CDB7DEB725
S1130E1080915009853620F48F5F8093500902C079
S1130E201092500980919809982F990F80919709F1
S1130E30880F880F892B90919909892B8983809138
S1130E404C098A8380914B098B8380914D098C8353
S1130E5064E0CE010196B9DF0F900F900F900F90D0
S1130E60DF91CF910895CF93DF93EC018881809334
S1130E708709C8DF1882DF91CF910895843421F463
S1130E8081E0809382090DC090918209913049F4E8
S1130E90E09181099E0F90938109F0E0EF5AF64F9B
S1130EA08083E0918109E93058F0F0E0E05BF64F8F
S1130EB01082109281091092820981E599E0D3CFC2
S1130EC0089540DD4CDD109297092FEF89E698E1F3
S1130ED0215080409040E1F700C0000078948BD40A
S1130EE08130E9F78ED4CADFFACF0F931F93CF93E3
S1130EF0DF931F92CDB7DEB7809185099091860963
S1130F008536910534F4019690938609809385097A
S1130F1004C010928609109285098091030186FD10
S1130F201EC081E08093990980919B0990919C094E
S1130F309C012F5F3F4F30939C0920939B09813D77
S1130F409740A8F080919A09811111C081E08093A3
S1130F509A099091980989278093980908C010925A
S1130F60990910929A0910929C0910929B098091F8
S1130F704C0980938F0980918309909184090A9781
S1130F8068F010928409109283090EE110E020E0C9
S1130F9034E24FE859E068E081E09DD980911D0278
S1130FA090911E02C39768F010921E0210921D02C7
S1130FB001E010E020E039E047E859E068E082E031
S1130FC08AD9809183099091840901969093840928
S1130FD08093830980911B0290911C020196909347
S1130FE01C0280931B0280911D0290911E020196A7
S1130FF090931E0280931D0280911A028B3050F050
S1131000CE01019681DD811103C0898180934C0951
S113101010921A02809119028B3050F0CE01019681
S11310204BDE811103C0898180934B091092190210
S1131030809118028B3050F0CE01019691DE81111F
S113104003C0898180934D091092190280911A027C
S11310508F5F80931A02809119028F5F8093190227
S1131060809118028F5F809318020F90DF91CF91C7
S11310701F910F9108951F920F920FB60F92112492
S11310800BB60F922F933F934F935F936F937F937E
S11310908F939F93AF93BF93EF93FF9326DFFF91BB
S11310A0EF91BF91AF919F918F917F916F915F91DC
S11310B04F913F912F910F900BBE0F900FBE0F9049
S11310C01F9018951F920F920FB60F9211240F9034
S11310D00FBE0F901F9018951F920F920FB60F928C
S11310E011240BB60F922F933F934F935F936F93FB
S11310F07F938F939F93AF93BF93EF93FF93CF937C
S1131100DF93CDB7DEB72D97DEBFCDBF9E01275F3E
S11311103F4FAE014F5F5F4FBE01635F7F4F81E082
S113112002D92D960FB6F894DEBF0FBECDBFDF9166
S1131130CF91FF91EF91BF91AF919F918F917F914B
S11311406F915F914F913F912F910F900BBE0F9034
S11311500FBE0F901F9018951F920F920FB60F920B
S113116011240BB60F922F933F934F935F936F937A
S11311707F938F939F93AF93BF93EF93FF93CF93FB
S1131180DF93CDB7DEB72D97DEBFCDBF9E01275FBE
S11311903F4FAE014F5F5F4FBE01635F7F4F82E001
S11311A0C2D82D960FB6F894DEBF0FBECDBFDF9127
S11311B0CF91FF91EF91BF91AF919F918F917F91CB
S11311C06F915F914F913F912F910F900BBE0F90B4
S11311D00FBE0F901F9018951F920F920FB60F928B
S11311E011240BB60F922F933F934F935F936F93FA
S11311F07F938F939F93AF93BF93EF93FF93CF937B
S1131200DF93CDB7DEB72D97DEBFCDBF9E01275F3D
S11312103F4FAE014F5F5F4FBE01635F7F4F84E07E
S113122082D82D960FB6F894DEBF0FBECDBFDF91E6
S1131230CF91FF91EF91BF91AF919F918F917F914A
S11312406F915F914F913F912F910F900BBE0F9033
S11312500FBE0F901F901895823051F0843071F0BA
S1131260813069F4E2E0F1E080818E7F808308952B
S1131270E2E0F1E080818D7F8083089528980895CD
S1131280823051F0843071F0813069F4E2E0F1E0B1
S11312908081816080830895E2E0F1E08081826052
S11312A080830895289A08951F93CF93DF93C82FBE
S11312B0162FD42FD1DF82E08CD1812F8AD18D2FAC
S11312C088D18C2FDDDFDF91CF911F910895CF93CB
S11312D0DF93C82FD62FC0DF8D2F7BD18C2FD0DF8B
S11312E0DF91CF9108950F931F93CF93DF93C82F6E
S11312F0062FD42F122FB0DF85E06BD1802F69D158
S1131300812F67D18D2F65D18C2FBADFDF91CF91DB
S11313101F910F910895CF93C82F60ECD8DF20EE72
S113132040E86FE08C2FDFDF44E06AE28C2FBCDF03
S11313304AEC69E28C2FB8DF41E068E28C2FB4DF1D
S113134043E06BE28C2FB0DF41E06DE08C2FACDF2B
S113135028EE48E06FE08C2FC6DFCF9108957F928E
S11313608F929F92AF92BF92CF92DF92EF92FF92B1
S11313700F931F93CF93DF93CDB7DEB72D970FB69F
S1131380F894DEBF0FBECDBF782E4A0159016137F4
S113139028F40F2EF0E9FF2EF02D04C00F2EF4E9EF
S11313A0FF2EF02D872D58DF8F2D13D1CE010196FE
S11313B07C016E019EE0C90ED11C80E00AD1F701C8
S11313C081937F01EC15FD05C1F72A81898190E0A5
S11313D0A0E0B0E0072E75E1880F991FAA1FBB1F7C
S11313E07A95D1F7702D3B81932B3C81832B422F2F
S11313F0407E50E060E070E0032E3DE0440F551F56
S1131400661F771F3A95D1F7302D842B952BA62B89
S1131410B72B2370A22BF80180839183A283B3831B
S11314204D854F70F401408350E0BE016B5F7F4FE8
S1131430C50107D2872D24DF2D960FB6F894DEBFA1
S11314400FBECDBFDF91CF911F910F91FF90EF9011
S1131450DF90CF90BF90AF909F908F907F90089532
S1131460CF93DF93C82FD62FF7DE83E0B2D08D2F32
S1131470B0D080E0AED0D82F8C2F02DF8D2FDF913B
S1131480CF910895CF93C82F60E3EADF83FF0CC0A8
S113149060E48C2FE5DF83FF09C060E58C2FE0DF7B
S11314A083FF06C080E005C080E303C080E401C080
S11314B080E5CF9108958F929F92AF92BF92DF9271
S11314C0EF92FF920F931F93CF93DF93662309F458
S11314D063C047015801C32FE22ED42EF62ED82F15
S11314E043E0E2DEB501A401032E35E1769567956C
S11314F0579547953A95D1F7302D81E08F0D682F98
S11315008D2FD2DEB501A401032E3DE076956795BB
S1131510579547953A95D1F7302D407E8A2D8370A3
S1131520482B486062E06F0D8D2FBEDE77276B2D50
S11315305A2D492D83E08F0D682F8D2FB5DE64E081
S11315406F0D482D8D2FB0DE65E06F0D4D2D8D2F65
S1131550ABDEDD2089F00E2D1C2FC6E0CF0D46E05A
S11315604D0DE42EEF0CF80141918F016C2F8D2F5E
S11315709BDECF5FCE11F7CF8F2D85958595859511
S11315808595835061E070E002C0660F771F8A95ED
S1131590E2F760688D2F9BDEDF91CF911F910F9151
S11315A0FF90EF90DF90BF90AF909F908F90089541
S11315B0CF93DF93C82F50DE80EB0BD080E009D0AF
S11315C0D82F80E006D08C2F5BDE8D2FDF91CF915A
S11315D008958EBD0DB407FEFDCF8EB5089581E547
S11315E08CBD81E08DBD1EBC08951F920F920FB675
S11315F00F9211240BB60F922F938F939F93EF9317
S1131600FF938091C0002091C6008871E091E409A5
S1131610EF5FEF719091E309E91739F0E093E40982
S1131620F0E0E951F64F208301C082E08093E209A3
S1131630FF91EF919F918F912F910F900BBE0F907F
S11316400FBE0F901F9018951F920F920FB60F9216
S113165011240BB60F922F938F939F93EF93FF93C5
S11316608091C8002091CE008871E0919F09EF5FBE
S1131670EF7190919E09E91739F0E0939F09F0E02A
S1131680EE55F64F208301C082E080939D09FF91BF
S1131690EF919F918F912F910F900BBE0F900FBEE2
S11316A00F901F9018951F920F920FB60F9211244E
S11316B00BB60F928F939F93EF93FF939091E6094C
S11316C08091E509981769F0E091E509EF5FEF7102
S11316D0E093E509F0E0E95FF54F80818093C6006F
S11316E005C0E1ECF0E080818F7D8083FF91EF9174
S11316F09F918F910F900BBE0F900FBE0F901F9074
S113170018951F920F920FB60F9211240BB60F92D9
S11317108F939F93EF93FF939091A1098091A009D8
S1131720981769F0E091A009EF5FEF71E093A009C9
S1131730F0E0EE53F64F80818093CE0005C0E9ECD3
S1131740F0E080818F7D8083FF91EF919F918F9155
S11317500F900BBE0F900FBE0F901F901895109214
S1131760E6091092E5091092E4091092E309E1E612
S1131770F0E080E8808310821092C50087E68093B1
S1131780C40082E08093C00088E18093C10086E0B9
S11317908093C20008959091270A911115C0209159
S11317A0E6092F5F2F719091E5092917E1F3E22FE4
S11317B0F0E0E95FF54F80832093E609E1ECF0E087
S11317C080818062808308959130A1F42091A109E1
S11317D02F5F2F719091A0092917E1F3E22FF0E018
S11317E0EE53F64F80832093A109E9ECF0E0808169
S11317F08062808308958091C800881F8827881F8D
S113180008958091CE000895AA1BBB1B51E107C027
S1131810AA1FBB1FA617B70710F0A61BB70B881F7C
S1131820991F5A95A9F780959095BC01CD0108950B
S1131830EE0FFF1F0024001C0BBE0790F691E02D55
S11318400994FB01DC0102C001900D92415050400B
S1131850D8F708950F931F93CF93DF93CDB7DEB7D7
S11318602E970FB6F894DEBF0FBECDBF0D891E892B
S11318708F89988D26E02C831A83098397FF02C0F1
S113188080E090E801979E838D83AE01455E5F4FB3
S1131890698D7A8DCE01019619D04D815E8157FDF7
S11318A00AC02F813885421753070CF49A01F801B6
S11318B0E20FF31F10822E960FB6F894DEBF0FBE10
S11318C0CDBFDF91CF911F910F9108952F923F9239
S11318D04F925F926F927F928F929F92AF92BF923C
S11318E0CF92DF92EF92FF920F931F93CF93DF93E8
S11318F0CDB7DEB72B970FB6F894DEBF0FBECDBFC2
S11319006C017B018A01FC0117821682838181FFAD
S1131910BFC1CE0101963C01F6019381F70193FD0D
S1131920859193FF81917F01882309F4ADC18532AC
S113193039F493FD859193FF81917F01853221F4E0
S1131940B60190E0D6D1E8CF912C212C312CFFE1C7
S1131950F315D8F08B3279F038F4803279F0833291
S1131960A1F4232D20611DC08D3261F0803369F410
S1131970232D216016C0832D8260382EE32DE46070
S11319803E2E2AC0F32DF8601DC037FC2DC020ED7B
S1131990280F2A3040F08E32B9F436FC75C1232D5D
S11319A02064322E19C036FE06C08AE0989E200DAF
S11319B01124922E11C0EAE02E9E200D1124222E15
S11319C0F32DF0623F2E08C08C3621F4832D8068FD
S11319D0382E02C0883641F4F70193FD859193FFB8
S11319E081917F018111B3CF982F9F7D95549330BE
S11319F028F40C5F1F4F9FE399830DC0833631F0A9
S1131A00833771F0833509F055C020C0F801808117
S1131A1089830E5F1F4F88248394912C530112C035
S1131A202801F2E04F0E511CF801A080B18036FE6F
S1131A3003C0692D70E002C06FEF7FEFC5014ED186
S1131A404C018201F32DFF773F2E15C0280122E0BF
S1131A50420E511CF801A080B18036FE03C0692DEE
S1131A6070E002C06FEF7FEFC5012DD14C01F32D63
S1131A70F0683F2E820133FC19C0822D90E0881655
S1131A809906A0F4B60180E290E033D12A94F5CF10
S1131A90F50137FC859137FE81915F01B60190E035
S1131AA028D121102A9421E0821A910881149104EA
S1131AB079F7E1C0843611F0893639F5F80137FE3B
S1131AC007C060817181828193810C5F1F4F08C0C0
S1131AD060817181072E000C880B990B0E5F1F4FDC
S1131AE0F32DFF763F2E97FF09C090958095709552
S1131AF061957F4F8F4F9F4FF0683F2E2AE030E073
S1131B00A30133D1882E861844C0853731F4232DA0
S1131B102F7EB22E2AE030E025C0932D997FB92E76
S1131B208F36C1F018F4883579F0AEC0803719F0DB
S1131B30883721F0A9C0E92FE061BE2EB4FE0DC0A4
S1131B40FB2DF460BF2E09C034FE0AC0292F266085
S1131B50B22E06C028E030E005C020E130E002C02B
S1131B6020E132E0F801B7FE07C060817181828113
S1131B7093810C5F1F4F06C06081718180E090E00B
S1131B800E5F1F4FA301F1D0882E8618FB2DFF771F
S1131B903F2E36FE0DC0232D2E7FA22E891458F41D
S1131BA034FE0BC032FC09C0832D8E7EA82E05C0E6
S1131BB0B82CA32C03C0B82C01C0B92CA4FE0FC0B0
S1131BC0FE01E80DF11D8081803321F49A2D997E68
S1131BD0A92E09C0A2FE06C0B394B39404C08A2DF2
S1131BE0867809F0B394A3FC10C0A0FE06C0B2141A
S1131BF080F4280C922C9B180DC0B21458F4B60132
S1131C0080E290E076D0B394F8CFB21418F42B1895
S1131C1002C0982C212CA4FE0FC0B60180E390E0F2
S1131C2068D0A2FE16C0A1FC03C088E790E002C001
S1131C3088E590E0B6010CC08A2D867851F0A1FEAB
S1131C4002C08BE201C080E2A7FC8DE2B60190E005
S1131C5050D0891430F4B60180E390E04AD09A94CD
S1131C60F8CF8A94F301E80DF11D8081B60190E06C
S1131C7040D08110F6CF222009F44ECEB60180E286
S1131C8090E037D02A94F7CFF6018681978102C07D
S1131C908FEF9FEF2B960FB6F894DEBF0FBECDBF2C
S1131CA0DF91CF911F910F91FF90EF90DF90CF9034
S1131CB0BF90AF909F908F907F906F905F904F9068
S1131CC03F902F900895FC010590615070400110E1
S1131CD0D8F7809590958E0F9F1F0895FC01615051
S1131CE0704001900110D8F7809590958E0F9F1F3A
S1131CF008950F931F93CF93DF93FB01238121FD5D
S1131D0003C08FEF9FEF2CC022FF16C0468157817E
S1131D10248135814217530744F4A081B1819D0188
S1131D202F5F3F4F318320838C93268137812F5F30
S1131D303F4F3783268314C08B01EC01FB010084E1
S1131D40F185E02D0995892BE1F6D80116968D9140
S1131D509C911797019617969C938E931697CE0194
S1131D60DF91CF911F910F910895FA01AA2728308E
S1131D7051F1203181F1E8946F936E7F6E5F7F4F54
S1131D808F4F9F4FAF4FB1E03ED0B4E03CD0670FD0
S1131D90781F891F9A1FA11D680F791F8A1F911D23
S1131DA0A11D6A0F711D811D911DA11D20D009F473
S1131DB068943F912AE0269F11243019305D3193B5
S1131DC0DEF6CF010895462F4770405D4193B3E09E
S1131DD00FD0C9F7F6CF462F4F70405D4A3318F045
S1131DE0495D31FD4052419302D0A9F7EACFB4E0F6
S1131DF0A6959795879577956795BA95C9F70097AE
S1131E006105710508959B01AC010A2E069457954E
S1131E10479537952795BA95C9F7620F731F841FA5
S10D1E20951FA01D0895F894FFCF4C
S1131E2A1E003A01F2013A01F2014501F101C7012A
S1131E3AAA019902030028000504030100020025EF
S1131E4A73202573004572726F7200494E464F0023
S1131E5A4572726F722100215741524E494E4721F1
S1131E6A004552524F520023234552524F522323C4
S1131E7A0043414E4255532031204E6F2052657320
S1131E8A706F6E73650043414E4255532031204EA4
S1131E9A6F20526573706F6E7365210043414E4221
S1131EAA5553203120435249544943414C204E4F03
S1131EBA20524553504F4E53450043414E425553C9
S1131ECA2031204D616C666F726D656420506163C8
S1131EDA6B65740043414E4255532031204D616C69
S1131EEA666F726D6564205061636B65742100438B
S1131EFA414E425553203120435249544943414C9F
S1131F0A204D414C464F524D4544205041434B4588
S1131F1A540043414E4255532032204E6F2052659D
S1131F2A73706F6E73650043414E425553203220DD
S1131F3A4E6F20526573706F6E7365210043414E74
S1131F4A425553203220435249544943414C204E6E
S1131F5A4F20524553504F4E53450043414E42552C
S1131F6A532032204D616C666F726D656420506136
S1131F7A636B65740043414E4255532032204D61D0
S1131F8A6C666F726D6564205061636B65742100C1
S1131F9A43414E4255532032204352495449434106
S1131FAA4C204D414C464F524D4544205041434BE1
S1131FBA45540043414E4255532033204E6F20521C
S1131FCA6573706F6E73650043414E4255532033F7
S1131FDA204E6F20526573706F6E73652100434102
S1131FEA4E425553203320435249544943414C20CD
S1131FFA4E4F20524553504F4E53450043414E4293
S113200A55532033204D616C666F726D65642050A0
S113201A61636B65740043414E4255532033204D2E
S113202A616C666F726D6564205061636B657421BF
S113203A0043414E425553203320435249544943A5
S113204A414C204D414C464F524D4544205041434A
S113205A4B45540047656172626F782025642054A9
S113206A656D7065726174757265204E6F726D610B
S113207A6C0047656172626F782025642054656D2F
S113208A70657261747572652041626E6F726D61FA
S113209A6C6C79204C6F77210047454152424F5866
S11320AA2025642054454D504552415455524520EB
S11320BA435249544943414C4C59204C4F570047C9
S11320CA656172626F782025642054656D7065724B
S11320DA61747572652041626E6F726D616C6C79A0
S11320EA2048696768210047454152424F582025D4
S11320FA642054454D50455241545552452043524B
S113210A49544943414C4C59204849474800526173
S113211A646961746F722025642054656D706572F8
S113212A6174757265204E6F726D616C00526164E0
S113213A6961746F722025642054656D70657261DB
S113214A747572652041626E6F726D616C6C792070
S113215A4C6F7721005241444941544F522025641F
S113216A2054454D504552415455524520435249F5
S113217A544943414C4C59204C4F570052616469AD
S113218A61746F722025642054656D706572617480
S113219A7572652041626E6F726D616C6C7920484C
S11321AA69676821005241444941544F52202564C9
S11321BA2054454D504552415455524520435249A5
S11321CA544943414C4C592048494748004272619A
S11321DA6B6573202564205072657373757265206C
S11321EA4E6F726D616C004272616B657320256477
S11321FA2050726573737572652041626E6F726DD9
S113220A616C6C79204C6F7721004252414B4553E3
S113221A2025642050524553535552452043524970
S113222A544943414C4C59204C4F57004272616BFC
S113223A6573202564205072657373757265204135
S113224A626E6F726D616C6C7920486967682100EF
S113225A4252414B4553202564205052455353550D
S113226A524520435249544943414C4C5920484908
S113227A4748004272616B65732025642050726579
S113228A7373757265205761726E6E696E67210089
S113229A4252414B455320256420505245535355CD
S11322AA524520435249544943414C2100427261E8
S11322BA6B657320256420506F736974696F6E208F
S11322CA4E6F726D616C004272616B657320256496
S11322DA20506F736974696F6E2041626E6F726DFC
S11322EA616C6C79204C6F7721004252414B455303
S11322FA20256420504F534954494F4E2043524994
S113230A544943414C4C59204C4F57004272616B1B
S113231A657320256420506F736974696F6E205742
S113232A61726E696E6721004252414B4553202502
S113233A6420504F534954494F4E204352495449FB
S113234A43414C005374656572696E6720416E6738
S113235A6C65204E6F726D616C0053544545524949
S113236A4E4720414E474C45204F55545349444506
S113237A204C45465420504152414D455445520043
S113238A5354454552494E4720414E474C45204FE8
S113239A55545349444520524947485420504152C0
S11323AA414D45544552005468726F74746C6520EB
S11323BA46756E6374696F6E204E6F726D616C0040
S11323CA5448524F54544C4520435249544943416A
S11323DA4C204D414C46554E4354494F4E0043619F
S11323EA7220697320757072696768740043415278
S11323FA20484153204F5645525455524E454400A5
S113240A4261747465727920256420436861726735
S113241A65204E6F726D616C0042617474657279E5
S113242A20256420436861726765204C6F770042F7
S113243A4154544552592025642043484152474542
S113244A20435249544943414C00426174746572B1
S113245A792025642054656D70657261747572659E
S113246A204E6F726D616C004261747465727920DA
S113247A25642054656D70657261747572652041B6
S113248A626E6F726D616C6C79204C6F77210042B9
S113249A4154544552592025642054454D504552BF
S11324AA415455524520435249544943414C4C598D
S11324BA204C4F5700426174746572792025642058
S11324CA54656D70657261747572652041626E6FD0
S11324DA726D616C6C7920486967682100424154C5
S11324EA544552592025642054454D50455241546F
S11324FA55524520435249544943414C4C5920486A
S107250A49474800F1
S9030000FC
