S011000063635F6D65726765322E73726563AC
S1130000F6C000000C94C90A0C94870A0EC10000C3
S11300100CC100000AC1000008C1000006C10000B4
S113002004C100000C940A0B00C10000FEC00000D3
S1130030FCC00000FAC00000F8C00000F6C00000D8
S1130040F4C000000C947D0AF0C00000EEC0000073
S1130050ECC000000C94560AE8C00000E6C00000A2
S1130060E4C000000C94140D0C94720DDEC000006A
S1130070DCC00000DAC00000D8C00000D6C0000018
S1130080D4C00000D2C00000D0C00000CEC0000028
S11300900C94430D0C94A00DC8C00000C6C0000011
S11300A0C4C00000C2C00000C0C00000BEC0000048
S11300B0BCC00000BAC00000B8C00000B6C0000058
S11300C0B4C00000B2C00000B0C00000AEC0000068
S11300D0ACC00000AAC00000A8C00000A6C0000078
S11300E0A4C0000010028304CD02E80203031E032F
S11300F0390354036F038A03A503C003DB03ED0331
S1130100FF0311042304350450046A0483048304A4
S113011083048304830483048304830483048304A3
S11301208304830483048304830483048304830493
S11301308304830483048304830483048304830483
S11301408304830483048304830483048304830473
S11301508304830483048304830483048304830463
S11301608304830483048304830483048304830453
S11301708304830483048304830483048304830443
S11301808304830483048304830483048304830433
S11301908304830483048304830483048304830423
S11301A08304830483048304830483048304830413
S11301B08304830483048304830483048304830403
S11301C083042B024602830483048304830483048C
S11301D083048304830461027C0283048304830410
S11301E0830483048304830483049702B2021124E6
S11301F01FBECFEFD1E2DEBFCDBF19E0A0E0B2E079
S1130200E6E5F2E200E00BBF02C007900D92AC32CB
S1130210B107D9F72AE0ACE2B9E001C01D92A433DA
S1130220B207E1F79BD70C942911EACEEAE7F0E094
S11302308081806880830895EAE7F0E09081987F68
S113024090839081892B80830895ECE7F0E090817E
S11302509C7F9083208130E4839FC0011124822BF2
S113026080830895CF93C62F10927A00ECE7F0E0D4
S113027090819F7D9083E0DF8C2FE7DFD7DFCF91E4
S11302800895ECE7F0E09081907E9083883060F0F0
S1130290EBE7F0E0908198609083ECE7F0E09081E8
S11302A08850892B80830AC0EBE7F0E09081977F28
S11302B09083ECE7F0E09081892B8083EAE7F0E01B
S11302C0808180648083808186FDFDCF8091780069
S11302D09091790008958F929F92AF92BF92CF929E
S11302E0DF92EF92FF920F931F93CF93DF93C82F68
S11302F0D62F6A01480159010E94610C85017401DD
S113030096014D2F682F8C2F0E947A0CDF91CF918C
S11303101F910F91FF90EF90DF90CF90BF90AF901F
S11303209F908F900895AF92BF92CF92DF92EF92F9
S1130330FF920F931F93CF93C82F7B016A0159013A
S11303400E94F70C8295869586958370823061F0C1
S1130350833091F08130E9F485019601A70161E6CB
S11303608C2F0E94CE0B15C085019601A70161E771
S11303708C2F0E94CE0B0DC085019601A70161E66A
S11303808C2F0E94CE0B9601A70161E78C2F0E944F
S1130390CE0BCF911F910F91FF90EF90DF90CF90F4
S11303A0BF90AF9008950F931F93CF93DF93182FAF
S11303B0092F5F934F937F936F931F9288E28F93DC
S11303C0D0E0DF93C0E0CF930E94400EDF93CF9341
S11303D00F931F9385E392E09F938F931F9282E381
S11303E08F93CF93DF930E94400E62E370E08D2FD2
S11303F09C2F35D68DB79EB742960FB6F8949EBF04
S11304000FBE8DBFDF91CF911F910F910895653875
S1130410710508F078C2FB01EE58FF4F0C942E0EC4
S11304208230910561F08330910579F0019709F0EC
S11304306AC26BE372E081E492E0B5CF089566E4AA
S113044072E08DE492E0AFCF089567E572E08DE548
S113045092E0A9CF08958230910561F0833091052F
S113046079F0019709F04FC267E672E081E492E007
S11304709ACF08956CE772E08DE492E094CF0895EA
S113048062E972E08DE592E08ECF089582309105A5
S113049061F08330910579F0019709F034C260EB83
S11304A072E081E492E07FCF08956AEC72E08DE41B
S11304B092E079CF089565EE72E08DE592E073CF16
S11304C008958230910561F08330910579F00197A8
S11304D009F019C268E073E081E492E064CF089502
S11304E06DE173E08DE492E05ECF089563E373E021
S11304F08DE592E058CF08958230910561F0833004
S1130500910579F0019709F0FEC161E573E081E49A
S113051092E049CF08956BE673E08DE492E043CF17
S1130520089566E873E08DE592E03DCF089582304A
S1130530910561F08330910579F0019709F0E3C1E9
S113054069EA73E081E492E02ECF08956EEB73E0E4
S11305508DE492E028CF089564ED73E08DE592E098
S113056022CF08958230910561F08330910579F0AE
S1130570019709F0C8C162EF73E081E492E013CF00
S113058008956CE074E08DE492E00DCF089567E285
S113059074E08DE592E007CF08958230910561F013
S11305A08330910579F0019709F0ADC16AE474E0F4
S11305B081E492E0F8CE089568E674E08DE492E078
S11305C0F2CE08956FE874E08DE592E0ECCE0895E4
S11305D08230910561F08330910579F0019709F03B
S11305E092C16AE474E081E492E0DDCE089565EBA3
S11305F074E08DE492E0D7CE08956DED74E08DE55E
S113060092E0D1CE08958230910561F08330910556
S113061079F0019709F077C164E075E081E492E034
S1130620C2CE089563E275E08DE492E0BCCE0895F5
S11306306BE475E08DE592E0B6CE089582309105C5
S113064061F08330910579F0019709F05CC164E0B1
S113065075E081E492E0A7CE089562E775E08DE449
S113066092E0A1CE08956BE975E08DE592E09BCE12
S113067008958230910561F08330910579F00197F6
S113068009F041C163EC75E081E492E08CCE0895F9
S11306906DED75E08DE492E086CE089560E076E03D
S11306A08DE592E080CE08958230910561F083302B
S11306B0910579F0019709F026C163EC75E081E4B6
S11306C092E071CE089562E276E08DE492E06BCE22
S11306D0089566E476E08DE592E065CE0895823073
S11306E0910561F08330910579F0019709F00BC110
S11306F063EC75E081E492E056CE089569E676E015
S11307008DE492E050CE089566E876E08DE592E0BF
S11307104ACE08958230910561F08330910579F0D5
S1130720019709F0F0C063EA76E081E492E03BCE01
S113073008956DEB76E08DE492E035CE089560EE99
S113074076E08DE592E02FCE08958230910561F038
S11307508330910579F0019709F0D5C063EC75E019
S113076081E492E020CE089562E276E08DE492E0A6
S11307701ACE089566E476E08DE592E014CE0895ED
S11307808230910561F08330910579F0019709F089
S1130790BAC063EA76E081E492E005CE089562E0AF
S11307A077E08DE492E0FFCD08956EE177E08DE58A
S11307B092E0F9CD08958130910519F0039739F04D
S11307C008956AE377E081E492E0EDCD089560E571
S11307D077E08DE592E0E7CD08958130910519F039
S11307E0039739F008956BE677E081E492E0DBCD7E
S11307F0089561E877E08DE592E0D5CD08958130E4
S1130800910519F0039739F008956BE677E081E4D8
S113081092E0C9CD089567EA77E08DE592E0C3CD13
S113082008958130910519F0039739F008956EEC1D
S113083077E081E492E0B7CD089567EE77E08DE547
S113084092E0B1CD08958130910519F0039739F004
S1130850089565E078E081E492E0A5CD089564E12F
S113086078E08DE592E09FCD08958230910561F0A6
S11308708330910579F0019709F045C067E278E08B
S113088081E492E090CD089560E478E08DE492E014
S11308908ACD089566E578E08DE592E084CD0895EB
S11308A08230910559F08330910571F0019759F523
S11308B061E778E081E492E076CD08956FE878E02E
S11308C08DE492E070CD089566EB78E08DE592E0DA
S11308D06ACD08958230910559F08330910571F005
S11308E0019789F461E778E081E492E05CCD0895B2
S11308F06CED78E08DE492E056CD089564E079E003
S11309008DE592E050CD089540E050E080CD08950B
S1130910E9E6F0E080818A60808383E08DBB81E03A
S11309208093680080E880936B00089582EC8DB911
S11309301EB887E08093010183E08093020187E67B
S113094084B981E085B998E190930A0110920B0172
S113095088EC8AB91AB888E087B918B810920401EB
S1130960E5E0F1E080818064808391B980E182B91F
S113097080E280930701CCCF0895D8DF0E940E0D4A
S113098080E09BE40E94CE0D61E086E06BDC81E0B8
S1130990E1D682E0DFD684E0DDD6E5E0F1E08081D7
S11309A08064808377C2089584B5826084BD85B5F0
S11309B0836085BD8AEF87BDEEE6F0E080818260CA
S11309C08083109280008DE08093810088E99AE30F
S11309D0909389008093880082E080936F0008954B
S11309E0FC018081918168177907E0F084179507ED
S11309F0D8F0E0912202F09123029F01241B350BD1
S1130A00A9019C01240F351FA4E6A29FC001A39F46
S1130A10900D1124640F751F6E0F7F1F0E941A0E14
S1130A20862F089584E6089580E008950F931F9318
S1130A30CF93DF93EC0100917E0910E085E090E014
S1130A4020DC000F111FF801E259F64F91838083D7
S1130A5010917E0981E0810F80937E0982E090E00D
S1130A6010DCE12FF0E0EE0FFF1FE25AF64F918306
S1130A70808380917E09883010F010927E09EEE622
S1130A80F9E0AEE5B9E06EE779E080E090E020E0DF
S1130A9030E041915191240F351F4D915D91840FA8
S1130AA0951FE617F707A9F73695279536952795E5
S1130AB03695279539832883609124027091250205
S1130AC040910C0250910D02461B570B2417350719
S1130AD0D0F19695879596958795969587954091AB
S1130AE0060250910702461B570B8417950768F1BD
S1130AF04091100250911102461B570B42175307A5
S1130B0030F140910A0250910B02461B570B4817D3
S1130B105907F8F0281B390BC901992324F48827B5
S1130B209927821B930B20918209309183098217A4
S1130B30930788F0209100023091010228173907A9
S1130B4060F080E00BC081E009C081E007C082E072
S1130B5005C082E003C083E001C083E0DF91CF9150
S1130B601F910F910895EF92FF921F93CF93DF93FC
S1130B7000D0CDB7DEB77C011A821982CE0101966E
S1130B8055DF182F40910C0250910D026091100214
S1130B9070911102CE01019623DFF7018083123098
S1130BA051F0133071F0113089F46FE070E082E09D
S1130BB090E0AADE0BC06FE070E082E090E0A4DE7B
S1130BC005C06FE070E082E090E09EDE812F0F9020
S1130BD00F90DF91CF911F91FF90EF9008950F93A5
S1130BE01F93CF93DF93EC0100915D0910E08AE03D
S1130BF090E047DB000F111FF801E35BF64F918390
S1130C00808310915D0981E0810F80935D0988E004
S1130C1090E037DBE12FF0E0EE0FFF1FE35CF64FCF
S1130C209183808380915D09883010F010925D0972
S1130C30EDE4F9E0ADE3B9E06DE579E080E090E062
S1130C4020E030E041915191240F351F4D915D9189
S1130C50840F951FE617F707A9F73695279536955C
S1130C60279536952795AC01569547955695479502
S1130C7056954795B901641B750BCB01992324F450
S1130C8088279927861B970BFC0139832883609159
S1130C9024027091250280911A0290911B02861BF6
S1130CA0970B2817390758F080911E0290911F0264
S1130CB0860F971F8217930720F482E003C081E018
S1130CC001C080E02091140230911502261B370BDD
S1130CD04217530710F484600AC020911E02309119
S1130CE01F02620F731F6417750708F48860209150
S1130CF0820930918309E217F30738F0209100024A
S1130D00309101022E173F0708F48061DF91CF91E3
S1130D101F910F910895EF92FF921F93CF93DF934A
S1130D2000D0CDB7DEB77C011A821982CE010196BC
S1130D3056DF182F40911A0250911B0260911E0237
S1130D4070911F02CE0101964BDEF70180831230B1
S1130D5051F0133071F0113089F46CE070E082E0EE
S1130D6090E0D2DD0BC06CE070E082E090E0CCDD7E
S1130D7005C06CE070E082E090E0C6DD812F0F904A
S1130D800F90DF91CF911F91FF90EF9008951F93E3
S1130D90CF93DF93EC0110913C0981E0810F8093A4
S1130DA03C0984E090E06DDAE12FF0E0EE0FFF1FE4
S1130DB0E45DF64F9183808380913C09883010F084
S1130DC010923C09ECE2F9E04CE359E080E090E059
S1130DD021913191820F931FE417F507C9F79C0104
S1130DE03695279536952795369527953983288303
S1130DF0E0912402F09125026091020270910302B5
S1130E006E1B7F0B81E02617370708F080E04091C6
S1130E100402509105024E0F5F1F4217530708F456
S1130E208E5FDF91CF911F910895EF92FF921F93F0
S1130E30CF93DF9300D0CDB7DEB77C011A8219823D
S1130E40CE010196A4DF182F4091020250910302B3
S1130E506091040270910502CE010196C1DDF70193
S1130E608083113019F0123039F00BC06EE070E05D
S1130E7082E090E049DD05C06DE070E082E090E042
S1130E8043DD812F0F900F90DF91CF911F91FF9041
S1130E90EF9008954F925F926F927F928F929F92FC
S1130EA0AF92BF92CF92DF92EF92FF920F931F9374
S1130EB0CF93DF93CDB7DEB7A0970FB6F894DEBF1C
S1130EC00FBECDBFCE0101965C013E0191E1690EDA
S1130ED0711C6301730185018AE090E0D2D9F801A5
S1130EE0819391938F0188E090E0CBD9F7018193AE
S1130EF091937F010C151D0579F7D301F501E12CC0
S1130F00F12C00E010E081919191080F191F8D914F
S1130F109D91E80EF91EEC15FD05A9F716950795A8
S1130F201695079516950795F694E794F694E79425
S1130F30F694E79480912002909121029801280F61
S1130F40391F30931B0220931A028E0D9F1D90931C
S1130F5015028093140240911C0250911D02240F2B
S1130F60351F30931F0220931E02209116023091E8
S1130F701702820F931F9093190280931802230182
S1130F80450185E090E07DD9F401819391934F016F
S1130F9082E090E076D9F201819391932F018C1431
S1130FA09D0479F7F501819191915F01080F191F53
S1130FB0F301819191913F01E80EF91EAC14BD0437
S1130FC089F7809120029091210216950795169534
S1130FD0079516950795080F191F10930D02009396
S1130FE00C02F694E794F694E794F694E794E80EEA
S1130FF0F91EF0920702E092060280910E0290918F
S11310000F02080F191F1093110200931002809110
S1131010080290910902E80EF91EF0920B02E09288
S11310200A02A0960FB6F894DEBF0FBECDBFDF91C3
S1131030CF911F910F91FF90EF90DF90CF90BF90D1
S1131040AF909F908F907F906F905F904F90089596
S1131050E8E0F1E0908180E2892780830895EF92AF
S1131060FF920F931F93CF937C01062F10E010166D
S11310701106B4F4C0E0F701EC0FF11DC7FDFA95B9
S11310808081A8D5CF5F8C2F0C2E000C990B801774
S113109091078CF305C080E09DD5C150E1F702C0F3
S11310A0C8E0F9CFCF911F910F91FF90EF90089571
S11310B08F929F92AF92BF92CF92DF92EF92FF9264
S11310C00F931F93CF93DF93CDB7DEB760970FB61F
S11310D0F894DEBF0FBECDBF85E0D3D8082F892E8C
S11310E082E0CFD8E82E992E8AE0CBD8F82EA92E0C
S11310F088E0C7D8182FB92E84E0C3D8D82EC92EBB
S113110081E0888B89820A839B82EC820E190D838D
S1131110AE82FF82B88619871F191A871B86CE01F3
S1131120409621DD88898C871D86CE86DF866FE018
S1131130CE01019694DF60960FB6F894DEBF0FBE21
S1131140CDBFDF91CF911F910F91FF90EF90DF9072
S1131150CF90BF90AF909F908F9008950EDC24DCC9
S113116010929B091092A3092FEF89E698E1215070
S113117080409040E1F700C000007894FFCF0F93C7
S11311801F93CF93DF931F92CDB7DEB780910301F6
S113119086FD2EC081E08093A5098091A7099091D6
S11311A0A8099C012F5F3F4F3093A8092093A709FA
S11311B08D3D954028F18091A609811121C081E0DF
S11311C08093A6099091A40989278093A40981306A
S11311D039F43EDF81E08093A30980939E0914C013
S11311E037DF10929D0910929E091092A3093BC00B
S11311F01092A5091092A6091092A8091092A709A5
S11312008091A3098130A1F48091A1099091A20950
S11312109C012F5F3F4F3093A2092093A109813D88
S1131220974030F01092A3091092A2091092A109DC
S113123080919E098130B9F480919F099091A00911
S11312409C012F5F3F4F3093A00920939F098B3F50
S1131250910548F010929E091092A00910929F09DE
S113126081E080939D09809130028B3050F0CE0153
S1131270019679DC811103C08981809380091092E1
S1131280300280912F028B3050F0CE01019643DD65
S1131290811103C0898180937F0910922F0280916C
S11312A02E028B3050F0CE010196BFDD811103C0B8
S11312B089818093810910922E02809130028F5F80
S11312C08093300280912F028F5F80932F02809150
S11312D02E028F5F80932E0260917F09262F30E0CB
S11312E080911202909113028217930720F481E0F7
S11312F080939C0902C010929C0910918009E3E933
S1131300F9E010836183B0918109B283A091A409AB
S1131310A3837091A109748380919D0990E8899FAA
S11313209001112430919E0940E4349FC00111249E
S1131330822B20913302822B3091A30990E2399FB2
S1131340A0011124282F242B30919C0940E1349FC3
S1131350C0011124822B90913202990F990F990F99
S1131360292F282B80913402880F880F982F922BD5
S113137080913102880F892B8583E6E8F9E0108398
S11313806183B283A38374838583EEE8F9E0808369
S113139084E681838283838384838091840990910A
S11313A085098436910570F010928509109284099C
S11313B000E010E020E034E043E959E068E081E037
S11313C00E946B0180912C0290912D02853691052B
S11313D070F010922D0210922C0201E010E020E433
S11313E038E046E859E068E084E00E946B018091AF
S11313F02A0290912B028536910570F010922B02EF
S113140010922A0201E010E020E039E04EE859E0B1
S113141065E082E00E946B0180912802909129028C
S11314208536910520F010922902109228028091AD
S11314302602909127028536910528F01092270202
S11314401092260235DE80918409909185090196D7
S1131450909385098093840980912C0290912D02A8
S1131460019690932D0280932C0280912A029091F0
S11314702B02019690932B0280932A0280912802DA
S113148090912902019690932902809328028091D9
S113149026029091270201969093270280932602B8
S11314A00F90DF91CF911F910F9108951F920F928A
S11314B00FB60F9211240BB60F922F933F934F93B5
S11314C05F936F937F938F939F93AF93BF93EF93A8
S11314D0FF9355DEFF91EF91BF91AF919F918F9153
S11314E07F916F915F914F913F912F910F900BBE20
S11314F00F900FBE0F901F9018951F920F920FB66A
S11315000F9211240F900FBE0F901F9018951F92E9
S11315100F920FB60F9211240BB60F922F933F9395
S11315204F935F936F937F938F939F93AF93BF93E7
S1131530EF93FF93CF93DF93CDB7DEB72D97DEBF45
S1131540CDBF9E01275F3F4FAE014F5F5F4FBE018E
S1131550635F7F4F81E00E9493017ADD2D960FB681
S1131560F894DEBF0FBECDBFDF91CF91FF91EF9115
S1131570BF91AF919F918F917F916F915F914F91A7
S11315803F912F910F900BBE0F900FBE0F901F90A5
S113159018951F920F920FB60F9211240BB60F924B
S11315A02F933F934F935F936F937F938F939F9367
S11315B0AF93BF93EF93FF93CF93DF93CDB7DEB792
S11315C02D97DEBFCDBF9E01275F3F4FAE014F5F1A
S11315D05F4FBE01635F7F4F82E00E9493012D96AF
S11315E00FB6F894DEBF0FBECDBFDF91CF91FF9150
S11315F0EF91BF91AF919F918F917F916F915F9187
S11316004F913F912F910F900BBE0F900FBE0F90F3
S11316101F9018951F920F920FB60F9211240BB6BC
S11316200F922F933F934F935F936F937F938F9377
S11316309F93AF93BF93EF93FF93CF93DF93CDB774
S1131640DEB72D97DEBFCDBF9E01275F3F4FAE01B2
S11316504F5F5F4FBE01635F7F4F84E00E94930141
S11316602D960FB6F894DEBF0FBECDBFDF91CF919C
S1131670FF91EF91BF91AF919F918F917F916F9166
S11316805F914F913F912F910F900BBE0F900FBE22
S11316900F901F901895823051F0843071F0813092
S11316A069F4E2E0F1E080818E7F80830895E2E0D6
S11316B0F1E080818D7F8083089528980895823099
S11316C051F0843071F0813069F4E2E0F1E080811E
S11316D0816080830895E2E0F1E08081826080830C
S11316E00895289A08951F93CF93DF93C82F162F38
S11316F0D42FD1DF82E08CD1812F8AD18D2F88D154
S11317008C2FDDDFDF91CF911F910895CF93DF936D
S1131710C82FD62FC0DF8D2F7BD18C2FD0DFDF9148
S1131720CF9108950F931F93CF93DF93C82F062F64
S1131730D42F122FB0DF85E06BD1802F69D1812F98
S113174067D18D2F65D18C2FBADFDF91CF911F9197
S11317500F910895CF93C82F60ECD8DF20EE40E8B6
S11317606FE08C2FDFDF44E06AE28C2FBCDF4AECB1
S113177069E28C2FB8DF41E068E28C2FB4DF43E0EC
S11317806BE28C2FB0DF41E06DE08C2FACDF28EEF4
S113179048E06FE08C2FC6DFCF9108957F928F923F
S11317A09F92AF92BF92CF92DF92EF92FF920F93EC
S11317B01F93CF93DF93CDB7DEB72D970FB6F89471
S11317C0DEBF0FBECDBF782E4A015901613728F420
S11317D00F2EF0E9FF2EF02D04C00F2EF4E9FF2E9A
S11317E0F02D872D58DF8F2D13D1CE0101967C016A
S11317F06E019EE0C90ED11C80E00AD1F7018193ED
S11318007F01EC15FD05C1F72A81898190E0A0E0F4
S1131810B0E0072E75E1880F991FAA1FBB1F7A95A8
S1131820D1F7702D3B81932B3C81832B422F407E3B
S113183050E060E070E0032E3DE0440F551F661F4A
S1131840771F3A95D1F7302D842B952BA62BB72BE8
S11318502370A22BF80180839183A283B3834D81EB
S11318604F70F401408350E0BE016A5F7F4FC501B1
S1131870FED1872D24DF2D960FB6F894DEBF0FBE60
S1131880CDBFDF91CF911F910F91FF90EF90DF902B
S1131890CF90BF90AF909F908F907F900895CF93FB
S11318A0DF93C82FD62FF7DE83E0B2D08D2FB0D0D0
S11318B080E0AED0D82F8C2F02DF8D2FDF91CF9117
S11318C00895CF93C82F60E3EADF83FF0CC060E480
S11318D08C2FE5DF83FF09C060E58C2FE0DF83FFF9
S11318E006C080E005C080E303C080E401C080E559
S11318F0CF9108958F929F92AF92BF92DF92EF9211
S1131900FF920F931F93CF93DF93662309F463C071
S113191047015801C32FE22ED42EF62ED82F43E0D0
S1131920E2DEB501A401032E35E17695679557955E
S113193047953A95D1F7302D81E08F0D682F8D2F83
S1131940D2DEB501A401032E3DE076956795579547
S113195047953A95D1F7302D407E8A2D8370482BD8
S1131960486062E06F0D8D2FBEDE77276B2D5A2DF8
S1131970492D83E08F0D682F8D2FB5DE64E06F0D48
S1131980482D8D2FB0DE65E06F0D4D2D8D2FABDE14
S1131990DD2089F00E2D1C2FC6E0CF0D46E04D0D45
S11319A0E42EEF0CF80141918F016C2F8D2F9BDEFB
S11319B0CF5FCE11F7CF8F2D85958595859585952C
S11319C0835061E070E002C0660F771F8A95E2F7EA
S11319D060688D2F9BDEDF91CF911F910F91FF9057
S11319E0EF90DF90BF90AF909F908F900895CF932A
S11319F0DF93C82F50DE80EB0BD080E009D0D82FC6
S1131A0080E006D08C2F5BDE8D2FDF91CF9108957F
S1131A108EBD0DB407FEFDCF8EB5089581E58CBD56
S1131A2081E08DBD1EBC08951F920F920FB60F92D8
S1131A3011240BB60F922F938F939F93EF93FF93E1
S1131A408091C0002091C6008871E091F009EF5F99
S1131A50EF719091EF09E91739F0E093F009F0E0A4
S1131A60ED50F64F208301C082E08093EE09FF9190
S1131A70EF919F918F912F910F900BBE0F900FBEFE
S1131A800F901F9018951F920F920FB60F9211246A
S1131A900BB60F922F938F939F93EF93FF938091A5
S1131AA0C8002091CE008871E091AB09EF5FEF711F
S1131AB09091AA09E91739F0E093AB09F0E0E255F7
S1131AC0F64F208301C082E08093A909FF91EF9132
S1131AD09F918F912F910F900BBE0F900FBE0F907F
S1131AE01F9018951F920F920FB60F9211240BB6E8
S1131AF00F928F939F93EF93FF939091F2098091AC
S1131B00F109981769F0E091F109EF5FEF71E09343
S1131B10F109F0E0ED5EF54F80818093C60005C0C9
S1131B20E1ECF0E080818F7D8083FF91EF919F91C4
S1131B308F910F900BBE0F900FBE0F901F901895B2
S1131B401F920F920FB60F9211240BB60F928F9320
S1131B509F93EF93FF939091AD098091AC099817EF
S1131B6069F0E091AC09EF5FEF71E093AC09F0E04C
S1131B70E253F64F80818093CE0005C0E9ECF0E09B
S1131B8080818F7D8083FF91EF919F918F910F9042
S1131B900BBE0F900FBE0F901F9018951092F20974
S1131BA01092F1091092F0091092EF09E1E6F0E0C9
S1131BB080E8808310821092C50087E68093C40079
S1131BC082E08093C00088E18093C10086E0809326
S1131BD0C20008959091330A911115C02091F20921
S1131BE02F5F2F719091F1092917E1F3E22FF0E0B3
S1131BF0ED5EF54F80832093F209E1ECF0E0808103
S1131C008062808308959130A1F42091AD092F5F03
S1131C102F719091AC092917E1F3E22FF0E0E25320
S1131C20F64F80832093AD09E9ECF0E08081806277
S1131C3080830895AA1BBB1B51E107C0AA1FBB1FC9
S1131C40A617B70710F0A61BB70B881F991F5A9544
S1131C50A9F780959095BC01CD010895EE0FFF1F63
S1131C600024001C0BBE0790F691E02D0994FB01A3
S1131C70DC0102C001900D9241505040D8F7089504
S1131C800F931F93CF93DF93CDB7DEB72E970FB685
S1131C90F894DEBF0FBECDBF0D891E898F89988D44
S1131CA026E02C831A83098397FF02C080E090E822
S1131CB001979E838D83AE01455E5F4F698D7A8D5A
S1131CC0CE01019619D04D815E8157FD0AC02F8146
S1131CD03885421753070CF49A01F801E20FF31FF9
S1131CE010822E960FB6F894DEBF0FBECDBFDF91E3
S1131CF0CF911F910F9108952F923F924F925F922F
S1131D006F927F928F929F92AF92BF92CF92DF9207
S1131D10EF92FF920F931F93CF93DF93CDB7DEB76C
S1131D202B970FB6F894DEBF0FBECDBF6C017B01BD
S1131D308A01FC0117821682838181FFBFC1CE0113
S1131D4001963C01F6019381F70193FD859193FF80
S1131D5081917F01882309F4ADC1853239F493FD63
S1131D60859193FF81917F01853221F4B60190E042
S1131D70D6D1E8CF912C212C312CFFE1F315D8F0EA
S1131D808B3279F038F4803279F08332A1F4232D48
S1131D9020611DC08D3261F0803369F4232D2160F0
S1131DA016C0832D8260382EE32DE4603E2E2AC0B7
S1131DB0F32DF8601DC037FC2DC020ED280F2A300C
S1131DC040F08E32B9F436FC75C1232D2064322ED6
S1131DD019C036FE06C08AE0989E200D1124922E6A
S1131DE011C0EAE02E9E200D1124222EF32DF06264
S1131DF03F2E08C08C3621F4832D8068382E02C013
S1131E00883641F4F70193FD859193FF81917F0119
S1131E108111B3CF982F9F7D9554933028F40C5F94
S1131E201F4F9FE399830DC0833631F0833771F0E0
S1131E30833509F055C020C0F801808189830E5F85
S1131E401F4F88248394912C530112C02801F2E07F
S1131E504F0E511CF801A080B18036FE03C0692DDD
S1131E6070E002C06FEF7FEFC5014ED14C018201DB
S1131E70F32DFF773F2E15C0280122E0420E511C9E
S1131E80F801A080B18036FE03C0692D70E002C065
S1131E906FEF7FEFC5012DD14C01F32DF0683F2E7C
S1131EA0820133FC19C0822D90E088169906A0F4B3
S1131EB0B60180E290E033D12A94F5CFF50137FCE6
S1131EC0859137FE81915F01B60190E028D1211000
S1131ED02A9421E0821A91088114910479F7E1C0CF
S1131EE0843611F0893639F5F80137FE07C0608170
S1131EF07181828193810C5F1F4F08C06081718161
S1131F00072E000C880B990B0E5F1F4FF32DFF76E5
S1131F103F2E97FF09C090958095709561957F4FEE
S1131F208F4F9F4FF0683F2E2AE030E0A30133D15A
S1131F30882E861844C0853731F4232D2F7EB22E87
S1131F402AE030E025C0932D997FB92E8F36C1F059
S1131F5018F4883579F0AEC0803719F0883721F04D
S1131F60A9C0E92FE061BE2EB4FE0DC0FB2DF460C4
S1131F70BF2E09C034FE0AC0292F2660B22E06C027
S1131F8028E030E005C020E130E002C020E132E08A
S1131F90F801B7FE07C060817181828193810C5F73
S1131FA01F4F06C06081718180E090E00E5F1F4F7B
S1131FB0A301F1D0882E8618FB2DFF773F2E36FE25
S1131FC00DC0232D2E7FA22E891458F434FE0BC08D
S1131FD032FC09C0832D8E7EA82E05C0B82CA32CFC
S1131FE003C0B82C01C0B92CA4FE0FC0FE01E80D3B
S1131FF0F11D8081803321F49A2D997EA92E09C088
S1132000A2FE06C0B394B39404C08A2D867809F066
S1132010B394A3FC10C0A0FE06C0B21480F4280C34
S1132020922C9B180DC0B21458F4B60180E290E0D3
S113203076D0B394F8CFB21418F42B1802C0982CAD
S1132040212CA4FE0FC0B60180E390E068D0A2FE6C
S113205016C0A1FC03C088E790E002C088E590E0C8
S1132060B6010CC08A2D867851F0A1FE02C08BE225
S113207001C080E2A7FC8DE2B60190E050D0891443
S113208030F4B60180E390E04AD09A94F8CF8A9471
S1132090F301E80DF11D8081B60190E040D081107C
S11320A0F6CF222009F44ECEB60180E290E037D07C
S11320B02A94F7CFF6018681978102C08FEF9FEFB4
S11320C02B960FB6F894DEBF0FBECDBFDF91CF9134
S11320D01F910F91FF90EF90DF90CF90BF90AF9042
S11320E09F908F907F906F905F904F903F902F9034
S11320F00895FC010590615070400110D8F7809557
S113210090958E0F9F1F0895FC01615070400190BF
S11321100110D8F7809590958E0F9F1F08950F9307
S11321201F93CF93DF93FB01238121FD03C08FEF26
S11321309FEF2CC022FF16C0468157812481358130
S11321404217530744F4A081B1819D012F5F3F4F93
S1132150318320838C93268137812F5F3F4F3783D0
S1132160268314C08B01EC01FB010084F185E02D72
S11321700995892BE1F6D80116968D919C911797B4
S1132180019617969C938E931697CE01DF91CF916B
S11321901F910F910895FA01AA27283051F1203197
S11321A081F1E8946F936E7F6E5F7F4F8F4F9F4FE7
S11321B0AF4FB1E03ED0B4E03CD0670F781F891F29
S11321C09A1FA11D680F791F8A1F911DA11D6A0FF7
S11321D0711D811D911DA11D20D009F468943F91AA
S11321E02AE0269F11243019305D3193DEF6CF01A9
S11321F00895462F4770405D4193B3E00FD0C9F76F
S1132200F6CF462F4F70405D4A3318F0495D31FDDB
S11322104052419302D0A9F7EACFB4E0A69597952E
S1132220879577956795BA95C9F700976105710504
S113223008959B01AC010A2E06945795479537954E
S11322402795BA95C9F7620F731F841F951FA01DA8
S10922500895F894FFCF8D
S11322561E00960084032C01C800CC013601C80078
S1132266EA010A009501DC0058028101FA003F02E6
S11322760A00030028000400030002000100070608
S113228605010101012573202573004572726F72E1
S113229600494E464F004572726F72210021574124
S11322A6524E494E4721004552524F520023234570
S11322B652524F5223230043414E4255532031205C
S11322C64E6F20526573706F6E73650043414E42C4
S11322D655532031204E6F20526573706F6E7365AF
S11322E6210043414E42555320312043524954491B
S11322F643414C204E4F20524553504F4E534500B8
S113230643414E4255532031204D616C666F726DC8
S11323166564205061636B65740043414E425553B6
S11323262031204D616C666F726D65642050616367
S11323366B6574210043414E42555320312043526C
S113234649544943414C204D414C464F524D454416
S1132356205041434B45540043414E42555320328D
S1132366204E6F20526573706F6E73650043414E45
S11323764255532032204E6F20526573706F6E7330
S113238665210043414E425553203220435249545D
S11323964943414C204E4F20524553504F4E5345CE
S11323A60043414E4255532032204D616C666F7294
S11323B66D6564205061636B65740043414E4255FC
S11323C6532032204D616C666F726D6564205061D6
S11323D6636B6574210043414E42555320322043BA
S11323E65249544943414C204D414C464F524D4568
S11323F644205041434B45540043414E42555320DB
S113240633204E6F20526573706F6E7365004341BF
S11324164E4255532033204E6F20526573706F6EB3
S11324267365210043414E4255532033204352499C
S1132436544943414C204E4F20524553504F4E531E
S1132446450043414E4255532033204D616C666F1F
S1132456726D6564205061636B65740043414E423E
S113246655532033204D616C666F726D6564205040
S113247661636B6574210043414E425553203320FA
S1132486435249544943414C204D414C464F524DC9
S11324964544205041434B45540047656172626F81
S11324A6782025642054656D706572617475726553
S11324B6204E6F726D616C0047656172626F7820A1
S11324C625642054656D706572617475726520416A
S11324D6626E6F726D616C6C79204C6F7721004768
S11324E6454152424F582025642054454D5045528B
S11324F6415455524520435249544943414C4C5941
S1132506204C4F570047656172626F78202564201E
S113251654656D70657261747572652041626E6F83
S1132526726D616C6C792048696768210047454182
S113253652424F582025642054454D50455241542B
S113254655524520435249544943414C4C5920481D
S1132556494748005261646961746F72202564209A
S113256654656D7065726174757265204E6F726D17
S1132576616C005261646961746F72202564205431
S1132586656D70657261747572652041626E6F72F5
S11325966D616C6C79204C6F77210052414449413E
S11325A6544F522025642054454D504552415455AC
S11325B6524520435249544943414C4C59204C4FAF
S11325C657005261646961746F72202564205465F2
S11325D66D70657261747572652041626E6F726D9D
S11325E6616C6C792048696768210052414449410D
S11325F6544F522025642054454D5045524154555C
S1132606524520435249544943414C4C5920484968
S11326164748004272616B657320256420507265D9
S11326267373757265204E6F726D616C00427261D0
S11326366B6573202564205072657373757265200B
S113264641626E6F726D616C6C79204C6F772100FC
S11326564252414B4553202564205052455353550D
S1132666524520435249544943414C4C59204C4FFE
S113267657004272616B657320256420507265733E
S1132686737572652041626E6F726D616C6C792030
S11326964869676821004252414B4553202564200E
S11326A65052455353555245204352495449434188
S11326B64C4C592048494748004272616B65732067
S11326C62564205072657373757265205761726E46
S11326D66E696E6721004252414B455320256420A2
S11326E65052455353555245204352495449434148
S11326F64C21004272616B657320256420506F7310
S11327066974696F6E204E6F726D616C00427261FE
S11327166B657320256420506F736974696F6E202E
S113272641626E6F726D616C6C79204C6F7721001B
S11327364252414B455320256420504F5349544936
S11327464F4E20435249544943414C4C59204C4F17
S113275657004272616B657320256420506F73695C
S113276674696F6E205761726E696E6721004252FA
S1132776414B455320256420504F534954494F4EED
S113278620435249544943414C004272616B6520CF
S113279646756E6374696F6E204E6F726D616C0060
S11327A64252414B4520435249544943414C204DE2
S11327B6414C46554E4354494F4E00537465657219
S11327C6696E6720416E676C65204E6F726D616C31
S11327D6005354454552494E4720414E474C4520E7
S11327E64F555453494445204C4546542050415274
S11327F6414D45544552005354454552494E472090
S1132806414E474C45204F5554534944452052495F
S113281647485420504152414D455445520054684E
S1132826726F74746C652046756E6374696F6E207E
S11328364E6F726D616C005448524F54544C45208F
S1132846435249544943414C204D414C46554E430D
S113285654494F4E00436172206973207570726942
S11328666768740043415220484153204F564552ED
S11328765455524E4544004261747465727920255C
S11328866420436861726765204E6F726D616C00E7
S113289642617474657279202564204368617267A5
S11328A665204C6F770042415454455259202564A3
S11328B62043484152474520435249544943414CD9
S11328C600426174746572792025642054656D70C4
S11328D665726174757265204E6F726D616C00422B
S11328E66174746572792025642054656D7065720F
S11328F661747572652041626E6F726D616C6C797C
S1132906204C6F7721004241545445525920256486
S11329162054454D50455241545552452043524941
S1132926544943414C4C59204C4F570042617474EE
S11329366572792025642054656D706572617475BD
S113294672652041626E6F726D616C6C79204869A4
S11329566768210042415454455259202564205445
S1132966454D5045524154555245204352495449C8
S10F297643414C4C59204849474800009C
S9030000FC
