S00D000063635F76332E7372656349
S113000071C000007FC000007DC000007BC0000004
S113001079C0000077C0000075C0000073C0000004
S113002071C000006FC000006DC000006BC0000014
S113003069C0000067C0000065C0000063C0000024
S113004061C000005FC000005DC000005BC0000034
S113005059C000009CC0000055C0000053C00000FF
S113006051C00000BBC0000017C100004BC000001D
S113007049C0000047C0000045C0000043C0000064
S113008041C000003FC000003DC000003BC0000074
S1130090D4C000002FC1000035C0000033C00000F0
S11300A031C000002FC000002DC000002BC0000094
S11300B029C0000027C0000025C0000023C00000A4
S11300C021C000001FC000001DC000001BC00000B4
S11300D019C0000017C0000015C0000013C00000C4
S11300E011C0000011241FBECFEFD1E2DEBFCDBF8F
S11300F022E0A0E0B2E001C01D92AC38B207E1F703
S113010002D08EC17DCF80E09BE422D180E09BE4CD
S11301103BD1539A699AE7E0F1E080818062808361
S113012080E280930801E5E0F1E0808180648083CF
S113013084B5826084BD85B5836085BD8AEF87BD43
S1130140EEE6F0E0808182608083789484E438D1A4
S11301502FEF84E39CE0215080409040E1F700C001
S11301600000E8E0F1E080910002882321F0808122
S113017080628083F8CF80818F7D8083F4CF8091EB
S1130180030186FD03C081E08093000208951F925D
S11301900F920FB60F9211240BB60F922F933F9329
S11301A04F935F936F937F938F939F93AF93BF937B
S11301B0EF93FF93E4DFFF91EF91BF91AF919F9194
S11301C08F917F916F915F914F913F912F910F90FC
S11301D00BBE0F900FBE0F901F9018951F920F9299
S11301E00FB60F9211240BB60F922F938F939F93F8
S11301F0EF93FF938091C0002091C6008871E09135
S11302004802EF5FEF7190914702E91739F0E093EC
S11302104802F0E0E55BFD4F208301C082E080935B
S11302204602FF91EF919F918F912F910F900BBEFA
S11302300F900FBE0F901F9018951F920F920FB63C
S11302400F9211240BB60F922F938F939F93EF93DA
S1130250FF938091C8002091CE008871E091030241
S1130260EF5FEF7190910202E91739F0E093030216
S1130270F0E0EA5FFD4F208301C082E08093010239
S1130280FF91EF919F918F912F910F900BBE0F9043
S11302900FBE0F901F9018951F920F920FB60F92DA
S11302A011240BB60F928F939F93EF93FF9390912A
S11302B04A0280914902981769F0E0914902EF5F80
S11302C0EF71E0934902F0E0E559FD4F808180939E
S11302D0C60005C0E1ECF0E080818F7D8083FF9152
S11302E0EF919F918F910F900BBE0F900FBE0F90C7
S11302F01F9018951F920F920FB60F9211240BB6F0
S11303000F928F939F93EF93FF93909105028091A7
S11303100402981769F0E0910402EF5FEF71E09333
S11303200402F0E0EA5DFD4F80818093CE0005C0B9
S1130330E9ECF0E080818F7D8083FF91EF919F91C4
S11303408F910F900BBE0F900FBE0F901F901895BA
S113035010924A02109249021092480210924702E7
S1130360E1E6F0E080E8808310821092C50087E621
S11303708093C40082E08093C00088E18093C10030
S113038086E08093C2000895109205021092040240
S11303901092030210920202E1E6F0E080E880830A
S11303A010821092CD0087E68093CC0082E0809387
S11303B0C80088E18093C90086E08093CA0008954C
S11303C090918B02911115C020914A022F5F2F71D9
S11303D0909149022917E1F3E22FF0E0E559FD4F2E
S11303E0808320934A02E1ECF0E080818062808384
S11303F008959130A1F4209105022F5F2F719091FF
S113040004022917E1F3E22FF0E0EA5DFD4F808357
S113041020930502E9ECF0E08081806280830895F6
S1070420F894FFCF7A
S9030000FC
